:020000040800F2
:1000000090070020F10100087B39000893350008B3
:1000100079390008E5080008A9430008000000003D
:100020000000000000000000000000007F39000810
:1000300065090008000000007D39000881390008CA
:100040000B0200080B0200080B0200080B0200085C
:100050000B0200080B0200080B0200080B0200084C
:100060000B0200080B0200080B020008F50800084C
:100070000B0200080B0200080B0200080B0200082C
:100080000B02000800000000C90800080B0200086D
:100090000B020008890900080B0200080B02000887
:1000A0001D3A0008353A00080B020008293A0008FA
:1000B0000B0200080B020008413A00080B0200087E
:1000C0000B0200080B0200080B0200080B020008DC
:1000D0000B0200080B0200080B0200089D430008F9
:1000E000670900080B0200080B0200080B02000859
:1000F0000B0200080B0200080B02000800000000C1
:10010000000000000B020008000000000B020008C5
:100110000B020008000000000B0200080B020008A0
:100120000B0200080B0200080B0200080B0200087B
:100130000B02000800000000000000000B02000895
:10014000E90800080B0200080000000000000000A1
:10015000000000000000000000000000000000009F
:100160000000000000000000000000000B0200087A
:100170000B0200080000000000000000000000006A
:10018000000000000B02000800000000000000005A
:10019000000000000000000000000000000000005F
:1001A00000000000000000000B0200080B02000825
:1001B0000B0200080B0200080B0200080000000000
:1001C000000000000B02000800000000000000001A
:1001D0000B0200080B020008DFF810D000F062FBF1
:1001E00000480047A94E0008AFF3008090070020A8
:1001F0000648804706480047FEE7FEE7FEE7FEE7C1
:10020000FEE7FEE7FEE7FEE7FEE7FEE70D3A000841
:10021000D90100082DE9F05F0546002092469B4673
:1002200088460646814640241BE02846414647460C
:10023000224600F09FF953465A46C01A914110D306
:1002400011461846224600F086F92D1A67EB010880
:100250004F4622460120002100F07DF917EB0009EE
:100260004E41201EA4F10104DFDC484631462A46F7
:100270004346BDE8F09FD2B201E000F8012B491ED1
:10028000FBD270470022F6E710B513460A46044633
:100290001946FFF7F0FF204610BD2DE9FE4F8046BE
:1002A00081EA0300C00F0C46009021F0004123F0CA
:1002B0000045B8EB0200A94105D2404621469046D0
:1002C0001C460B46024623F00040104347D0270D42
:1002D000C7F30A00C3F30A510290401A0190402864
:1002E0006BDAC3F3130040F4801B0098924620B1F0
:1002F0000023D2EB030A63EB0B0B01985946C0F1C4
:100300004002504600F027F906460D465046594631
:10031000019A00F03FF910EB08006141002487EAE0
:10032000115284EAE7731A4340D0009A62B3019AEB
:10033000012A4FEA075215DC001B61EB02014FF066
:10034000004202EA0752CDE90042001C41F580114B
:1003500032462B4600F076F903B0BDE8F08F4046F8
:100360002146F9E7001B61EB0201001C41F58013F7
:1003700000185B412018A2F5001747EB030140EA83
:10038000D570B6196D4111E06D084FEA360645EAA1
:10039000C0754FEA0752001B61EB0201001C41F5DA
:1003A000801149084FEA30000019514132462B466E
:1003B00003B0BDE8F04F00F036B9009801224000CC
:1003C0000023D0EB020263EBE073009821464FEA72
:1003D000E074B8EB000061EB0401E9E783F000434F
:1003E0005BE781F0004158E72DE9FE4F81EA030405
:1003F00004F0004421F0004100944FF0000B23F082
:10040000004350EA01045ED052EA03045BD0C3F318
:100410000A54C1F30A552C44A4F2F3340194A0FB0E
:100420000254C1F3130141F48011C3F3130343F4E5
:10043000801301FB024400FB034E840A970A44EA3E
:10044000815447EA8357A4FB076802958D0A05FB90
:1004500007854FEA932C04FB0C542705029D4FEAB5
:10046000065847EA1637B5EB08056EEB070C870E02
:10047000920E47EA811742EA8312A7FB0201B6EB0C
:100480000B0164EB00042B0D43EA0C335E1844EBC4
:100490001C50DA465146E7FB0201C5F313044FEA4C
:1004A0000B3343EA14534FEA0432019C43EA060338
:1004B000A4F10C040294009CCDE900B400F0C2F851
:1004C00003B0BDE8F08F00200146F9E700F00042DC
:1004D00030F000400AD0C10D01F56071C0F3160084
:1004E00042EA0151C208400711437047002001460B
:1004F000704701F0004330B421F0004150EA01029E
:1005000006D00A0DA2F56072C1F31301002A02DCC5
:1005100030BC00207047440F44EAC104C100E01819
:1005200030BC00EBC25000F047B830B50B46014676
:1005300000202022012409E021FA02F59D4205D382
:1005400003FA02F5491B04FA02F52844151EA2F12C
:100550000102F1DC30BD202A04DB203A00FA02F16E
:10056000002070479140C2F1200320FA03F31943A1
:1005700090407047202A04DB203A21FA02F0002143
:10058000704721FA02F3D040C2F1200291400843A3
:1005900019467047202A06DBCB17203A41FA02F0B1
:1005A00043EAE07306E041FA02F3D040C2F12002D0
:1005B00091400843194670470029A8BF7047401C66
:1005C000490008BF20F00100704710B4B0FA80FC69
:1005D00000FA0CF050EA010404BF10BC704749B1A6
:1005E000CCF1200421FA04F411FA0CF118BF012116
:1005F00021430843A3EB0C01CB1D4FEA00614FEAF6
:10060000102042BF002010BC704700EBC3501044C4
:100610000029A4BF10BC7047401C490008BF20F04F
:10062000010010BC704710B5141E73F1000408DA05
:10063000401C41F1000192185B411A4301D120F0A6
:10064000010010BD2DE9F04D92469B4611B1B1FA63
:1006500081F202E0B0FA80F220329046FFF77BFF91
:1006600004460F4640EA0A0041EA0B0153465A4647
:10067000084313D0114653EA010019D0C8F14002D3
:100680005046FFF777FF05460E465046594642460C
:10069000FFF761FF084305D0012004E020463946FA
:1006A000BDE8F08D0020054346EAE0762C43374351
:1006B0000A986305E40AA0EB08000022FD0A44EA58
:1006C00047540A3002D500200146E9E70105101918
:1006D0006941DDE9084500196941BDE8F04DA2E72F
:1006E0002DE9F04D81EA030404F0004B21F00045B0
:1006F00014464FF0000A23F0004150EA050220D0D2
:1007000054EA01021DD0C5F30A570246C5F313038C
:10071000C1F31300C1F30A5640F4801543F480136B
:10072000A7EB0608101BD64608F2FD3873EB050050
:1007300002D308F1010801E092185B41B8F1000F03
:1007400003DA00200146BDE8F08D00204FF480114F
:10075000064684460EE0171B73EB050705D3121BF4
:1007600063EB050306434CEA010C49084FEA3000ED
:1007700092185B4150EA0107EDD152EA030012D012
:1007800082EA040083EA0501084305D0101BAB414F
:1007900006D20122002306E000224FF0004302E0CF
:1007A0006FF0010253101AEB06004CEB085110EBEE
:1007B0000A0041EB0B01BDE8F04DFFF734BF2DE916
:1007C000FE4FC3F30A5701F000450024C1F30A5657
:1007D000C3F31303C1F3130143F4801312EB020AB2
:1007E000A64641F48011009543EB030CA7F1010BE1
:1007F00016E0B0EB0A0061EB0C01071E71F1000777
:1008000007DA4FF00008D0EB080085F0004568EBF0
:100810000101171A73EB0107EBD3761E001849414B
:100820005E45F6DA50EA010209D0CDE900E5002282
:1008300013460296FFF706FF03B0BDE8F08F20468F
:100840000099F9E7C1F30A52C1F3130140F2FF33F3
:1008500041F480119A4202DA00200146704740F2CA
:1008600033439A42A2F2334202DC5242FFF782BE85
:10087000FFF771BE30B5041E71F1000404DB4FF0C8
:100880000044404264EB0101141E73F1000405DBD7
:100890001C464FF00043524263EB0403994208BFE9
:1008A000904230BD064C074D06E0E06840F0010381
:1008B00094E8070098471034AC42F6D3FFF790FC59
:1008C000EC4F00080C50000810B5044800F0A4F8E4
:1008D000BDE81040024800F09FB8000080000020F2
:1008E000EC000020FEE70000014800F0CDB9000058
:1008F00058010020014800F046BC000030030020F1
:100900000D4902688A4201D20C4901E00B492031AD
:10091000D2B21423083AB2FBF3F2436C02F01F0286
:1009200023F003031944816404498031C164012127
:100930009140016570470000080402400008024031
:100940000179074A02EB81024265054A4432491E99
:10095000826501F01F0201219140C16570470000CE
:10096000FC080240704710B54FF4806000F0F0FFC3
:100970004FF4006000F0ECFFBDE810404FF4005071
:1009800000F0E6BF72B6FEE710B5054800F0D5FDF1
:10099000BDE81040034B044A4021014800F054BD1B
:1009A000A4010020100000203400002030B587B0E2
:1009B00000220121124800F0A6FC002401204FF083
:1009C0008045CDE90240CDE900546FF07E40CDE98D
:1009D000044069460A4800F006FD0A481B21C0E9A8
:1009E0000015E912C0E902410461446152218461A9
:1009F000C0E90741024800F08DFF07B030BD00009C
:100A0000A40100205C0000207047704770477047C9
:100A100070477047704700002DE9F05F044600689A
:100A200006684568DFF854B2DBF8080000F01F07DD
:100A3000B0070ED5A8070CD5E06DC00603D4E06D55
:100A400040F40060E0652046FFF7DEFF21680220E9
:100A50000860DFF82CA270074FF0A04801D56807A6
:100A600003D4300737D5280735D5E06DC00603D449
:100A7000E06D40F40070E065206802F093FD20B363
:100A80002068504501D1424600E00246824208D02B
:100A90003FB1052F05D0092F03D0504503D1414662
:100AA00002E0C16801E00146C96889040DD401680B
:100AB00009070AD502F072FD58B3E06D40F010004E
:100AC000E065206E40F0010020662046FFF7A1FFA0
:100AD00021680C200860B00601D5A80603D4700672
:100AE00058D5680656D5E06DC00603D4E06D40F4D5
:100AF0000050E0652068C16C11F4C07F1AD000215D
:100B0000894602F04FFD02462068504514D1434605
:100B100013E02068416821F00C014160E06D20F491
:100B20008070E065E06DC004CFD4E06D40F001005E
:100B3000E065CAE70121E3E70346834208D03FB1FD
:100B4000062F05D0072F03D0504503D1414602E0C0
:100B5000C16801E00146C968B9F1000F14D08B01EA
:100B600002D58AB18A040FD4026852060CD58902D4
:100B70000AD402F00FFDE8B3E06D40F01000E0652C
:100B8000206E40F0010020662046FFF73EFF2168FE
:100B90006020086030060BD5280609D5E06D40F4CA
:100BA0008030E065204600F06DF821688020086004
:100BB000F0050CD5E8050AD5E06D40F40030E0659D
:100BC0002046FFF724FF21684FF480700860B005CD
:100BD0000CD5A8050AD5E06D40F48020E0652046DC
:100BE000FFF716FF21684FF400700860F0062ED55D
:100BF000E80600E008E02AD5E06BD0B1AFB1DBF841
:100C0000080000F4604013E02068416821F06001B2
:100C10004160E06D20F48050E065E06DC005B3D424
:100C2000E06D40F00100E065AEE72068C068C007F5
:100C300050B1E06D40F48060E065206E40F002004D
:100C400020662046FFF7E6FE216810200860700548
:100C500012D5680510D5E06D40F48040E065206E47
:100C600040F00800206621684FF48060086020464C
:100C7000BDE8F05FFFF7CABEBDE8F09F000300507B
:100C8000000100507047000010B50F4A0168914202
:100C900002D14FF400110EE00B4A121D914202D115
:100CA0004FF4800107E0084A0832914201D18906D9
:100CB00001E04FF08041054A136831EA030302D195
:100CC000116000F0C3F810BD00020140140401409F
:100CD000F8B504004FF000000546009003D02168ED
:100CE0000968002901DA012574E0617F21B92077C4
:100CF0002062204600F07CF821680868E66800F46D
:100D00000002D4E90130184363693343184323696F
:100D100018430B68304E334003430B602068016872
:100D200009020DD562B92D492D4A0968B1FBF2F1CE
:100D300001EB8101890000E0491E00910029FBD1EF
:100D40002849884202D14FF400110EE02549091DBF
:100D5000884202D14FF4800107E0224908318842DD
:100D600001D1810601E04FF08041A3691E489E0732
:100D7000A0F1040228D0DE0600F104031E6801D5AC
:100D80000E4300E08E431E60237E9E06174B1E68B6
:100D900001D50E4300E08E431E60144B08331960EA
:100DA000237E9B07036801D50B4300E08B43036060
:100DB000207EC00702D01068084301E01068884315
:100DC0001060607F20B105E003688B430360F5E7A6
:100DD000012060772846F8BD0F7E00FF2800002024
:100DE000400D030000020140040401400C040140D6
:100DF00010B586B0044614216846FFF743FA10493F
:100E0000206888421AD10F48C16C41F00201C164C8
:100E1000C06C694600F0020005900220009003209B
:100E2000019000200290084800F09EFD002211462B
:100E3000402000F0E9FE402000F0D8FE06B010BDD2
:100E4000000201400010024000040048704700000A
:100E50002DE9F0470446407990460D4601280BD015
:100E60004FF0010984F8059002202071A96808F06C
:100E70001006042903D045E00220BDE8F08700F009
:100E80005DFE07465FEA08004FF0030805D01CE04E
:100E900000F054FEC01B01280FD82068406B0004EE
:100EA000F6D4012000F02CFA2168686A086416E084
:100EB00000F044FEC01B012807D9206940F008005B
:100EC000206184F804800320D7E72068406B002865
:100ED000EEDB012000F014FA2168686A486420689B
:100EE000816C40F2FF32B2409143AA6AB240114392
:100EF00081642068C16CFF22B2409143EA6AB2402B
:100F00001143C164E869012808D12268916B1F2050
:100F1000B0408143286AB040084390632068C06BAA
:100F20000721B1408843A969012903D0022955D07E
:100F30006969E9B300216B69AA681A430A434FF44F
:100F4000807101FA06F398432B79012B00D0002120
:100F500011434FF4007202FA06F398436B79012BA8
:100F600000D0002220F44047286842EA0108022805
:100F700036D00743216808FA06F03843C863206872
:100F800001684FF48042B2409143016022681168C9
:100F900040F6FE70B0408143E868B04008431060FE
:100FA00020680168C022B24091430160287B00E0C4
:100FB00014E0297C2268C0F3830001F03C0140EA80
:100FC0008110116E40F60F73B3409943B040014356
:100FD000116684F80490002060714EE70121AAE7B1
:100FE00001F0DCF80549884202D947F40047C1E71F
:100FF00003498842BED947F48047BBE700688909A6
:1010000000B4C40470B5040003D02079002510B1E9
:1010100005E0012070BD6571204600F007F8022050
:101020002071256101202071002070BD10B586B0AF
:10103000044614216846FFF725F9174A2168174826
:1010400091421CD1C16C41F48031C164C16C01F486
:1010500080310591C16C41F00101C164C06C6946E9
:1010600000F0010005901020009003200190002066
:1010700002904FF0904000F077FC06B010BD084A97
:101080009142FAD1C16C41F48021C164C06C00F47A
:1010900080200590F1E70000000800500010024099
:1010A0000010005010B590F8253000210122022BCD
:1010B00003D00421C163012122E003681C6824F0ED
:1010C0000E041C60836C1C6824F480741C6003682C
:1010D0001C6824F001041C6090F84430046C03F098
:1010E0001F0302FA03F36360D0E913345C60436DBD
:1010F00033B11C6824F480741C60D0E916345C6041
:1011000080F82520002280F82420084610BD70B504
:1011100090F82520002401212346022A07D004222A
:10112000C26380F8251080F82430012429E0026889
:10113000156825F00E0515600268156825F0010593
:101140001560826C156825F48075156090F8442050
:10115000056C02F01F0201FA02F26A60D0E9132561
:101160005560426D32B1156825F480751560D0E97F
:101170001625556080F8251080F82430816B01B168
:101180008847204670BDF0B4016C0C6801680D689A
:1011900090F8442002F01F06042202FA06F32342CC
:1011A00011D06B070FD50B689B0603D40B6823F097
:1011B00004030B6090F8441001F01F018A40016C99
:1011C0004A60016B1DE0022303FA06F727424FF045
:1011D000000C4FF0010218D0AF0716D50C68A4061A
:1011E00005D40C6824F00A040C6080F8252090F8DF
:1011F000441001F01F018B40016C4B6080F824C04B
:10120000C16A00291AD0F0BC08470823B340234222
:1012100014D02B0712D50B6823F00E030B6090F847
:101220004410036C01F01F0102FA01F15960C2631E
:1012300080F8252080F824C0416BE2E7F0BC7047BD
:1012400070B504000CD02B4A21681420914209D2B9
:10125000294A0A44B2FBF0F08000606427480AE0A3
:10126000012070BD234A52420A44B2FBF0F08000D4
:101270006064204808382064022084F825000A6849
:1012800047F6F0708243D4E902031843D4E90435E9
:101290002B431843A3691843E3691843236A18438F
:1012A000104308602046FFF72BFBA0680025B0F52F
:1012B000804F00D16560A16C20790860D4E91301EA
:1012C00041606068401E032808D82046FFF738FBBD
:1012D000606D0560D4E91601416002E06565A565B1
:1012E000E565E563012084F8250084F8245000209A
:1012F00070BD000008040240F8FFFDBF000002407E
:1013000080B203F0A5BD30B590F85C30012B07D05A
:10131000022B05D0016E41F002010166012030BDB3
:101320000468A36D4D0701D0DD071DD011F0380F03
:1013300001D09D0718D511F4E07F01D05D0713D5CA
:1013400011F4F05F01D01D070ED511F4604F01D0EC
:10135000DD0609D511F4403F01D09D0604D511F4F6
:101360007C0F05D05D0603D4E56D45F00105E5650C
:101370004C0701D0DC071DD111F0380F01D09C07BC
:1013800018D411F4E07F01D05C0713D411F4F05F9E
:1013900001D01C070ED411F4604F01D0DC0609D433
:1013A00011F4403F01D09C0604D411F47C0F06D008
:1013B0005B0604D50368DC6D44F00204DC650B06B3
:1013C00004D5036853F8DC4F14431C60CB0504D5E7
:1013D000036853F8E04F14431C600068426D0A43F1
:1013E0004265002030BD10B590F85C20012A07D07E
:1013F000022A05D0016E41F002010166012010BDF4
:101400000A687AB10B7B0A690C7A42EA43734A692B
:10141000406C496842EA847200EBC100C0E90032C6
:10142000002010BD0B7A4A690C8A42EA83720B7B5A
:10143000006CDB06496843EA04431A4340F8212064
:10144000EEE7704770470000F0B590F85C40022C62
:1014500003D0016E41F008014DE0046840293DD001
:10146000D4F898502D0743D0D4F89840C4F30126FF
:10147000D0F84C4006EBC60504EBC504256815F012
:1014800080455560256839D025F060451560256890
:10149000284F05F00055956020CC05F000451561FA
:1014A00034F8045BADB2D56154F8045C05F47025E2
:1014B000D56054F8045C05F48015556154F8045C5B
:1014C00005F40015956154F8045CC5F306651562D2
:1014D00054F8045CED0F5562002518E0D4F89050E4
:1014E0002D0705D0D4F89040C4F30126846CC1E7E1
:1014F000016E41F4807101660120F0BDC5F38A459B
:10150000C4E700BF14F805C003F805C06D1CD2F88D
:101510000CC007EB1C4C9CF800C0AC45F2D800682E
:10152000402903D0C0F89C600020F0BDC0F8946052
:10153000FAE700009C4F000870472DE9F047044689
:101540000068016D466D01F4E0510E40016D476D7C
:1015500001F007010F40016D426D01F0380102EA10
:101560000108016D456D01F471010D40016D426D81
:1015700001F4602102EA0109016D490607D5416DB8
:10158000490604D5402101652046FFF7D5FF2068B4
:10159000016DC9050DD5416DC9050AD5D0F8D82012
:1015A000D0F8E01011404FF480720265204600F040
:1015B000C9F92EB1206806653146204600F0C4F90D
:1015C0002FB1206807653946204600F0A1F9B8F12F
:1015D000000005D0216808654146204600F099F9D1
:1015E0002068016D890508D5416D890505D54FF441
:1015F00000710165204600F0A8F92068016D090618
:101600000CD5416D090609D5D0F8D420D0F8DC10EE
:10161000114080220265204600F095F92068016D96
:10162000890408D5416D890405D54FF40051016541
:10163000204600F086F92068016D090408D5416D47
:10164000090405D54FF400410165204600F078F902
:101650002068016D490409D5416D490406D54FF450
:1016600080410165206E40F080002066B9F10000E5
:1016700005D02168086549462046FFF7E3FE25B1FD
:1016800020680565206E28432066206E002802D061
:101690002046FFF7D6FEBDE8F08700002DE9F041B7
:1016A000040006D0DFF8E88194F85C00002518B14A
:1016B00007E00120BDE8F08184F85D50204600F08D
:1016C000EFF82068816921F01001816100F036FA9D
:1016D0000646032705E000BF00F030FA801B0A2809
:1016E00011D8206880690007F6D42068816941F02C
:1016F0000101816100F022FA06460BE000F01EFABB
:10170000801B0A2806D9206E40F00100206684F86C
:101710005C70CEE720688069C007EFD020688169DF
:1017200041F0020181612168414502D15949606857
:101730000860207C01282068816937D041F0400191
:101740008161607C01282068816932D021F4804168
:101750008161A07C0128206881692DD041F48051ED
:10176000816120688169A26821F44071114381611F
:101770002068816921F0A40181612068016921F05C
:1017800010010161E068012819D010B302281BD0B4
:101790002068816941F0800181612068016941F020
:1017A00010010161E06803280ED012E021F0400131
:1017B000C6E741F48041CBE721F48051D0E72068AF
:1017C000816941F0040103E02068816941F0200152
:1017D0008161207EE26940066FF0FF0101EB022289
:1017E000A0F100701043226AA38A521E10430A021D
:1017F00002EB034318432368D861A068B0F5407F2B
:1018000010D1D4E90A0301EB0321401E0843216BE8
:10181000131303EB01110843A18C02EB01410843B0
:101820002168C860206850F8C01FE26B1143016056
:1018300019482064216851F8802FA38E22F4F812F1
:1018400042EA03420A60144970316164216851F828
:10185000802F94F8383022F0706242EA03620A6006
:101860000D49B031A1640D49E1640C49D8312165BD
:101870000A49F031616500F5547120C08842FCD3FB
:10188000A5652566012084F85C00002012E70000B1
:10189000006400400065004000A4004088A50040AE
:1018A00010B586B0044614216846FEF7EBFC1649D5
:1018B0002068884226D11548816D41F0007181650C
:1018C000816D01F000710591C16C41F00101C164AD
:1018D000C06C694600F0010005904FF4C0500090C4
:1018E0000220019000200290039009200490C0067D
:1018F00000F03AF800221146152000F085F9152075
:1019000000F074F906B010BD006400400010024001
:101910007047704790F85C10012905D0016E41F0C6
:101920000401016601207047022180F85C10016803
:101930008A6922F001028A61002101660846704727
:101940007047704770477047704770477047000096
:10195000044910B50A68024202D00860FFF7F6FF9A
:1019600010BD0000140401402DE9FC4FDFF8A0A1D8
:10197000002301250AF1040B03244FF00F0C0BF197
:10198000040EBDE005FA03F632406FD04F68012F18
:1019900005D0022F03D0112F01D0122F17D1D0F86C
:1019A00008905F0004FA07F829EA08090097D1F8BF
:1019B0000C8008FA07F848EA0908C0F80880476868
:1019C000B7430E79C6F300169E403E434660C66894
:1019D0004FEA430804FA08F7BE4301978F6807FAF5
:1019E00008F73743C7604E68022E01D0122E13D17C
:1019F000DE0800EB86060096366A5F07FF0E0CFADB
:101A000007F926EA0906D1F8109009FA07F949EA18
:101A10000609009EC6F820900668019FBE430F7914
:101A200007F0030707FA08F7374307604E68F60028
:101A300065D5384E376E47F001073766366E23F0AE
:101A4000030706F001060096334E3E44B146B668E1
:101A50009F074FEA17780CFA08F7BE43B0F1904F92
:101A600005D02E4FB84204D1012717E047E00027E8
:101A700014E02B4FB84201D102270FE0294FB842A2
:101A800001D103270AE0284FB84201D1042705E01D
:101A9000264FB84201D1052700E0062707FA08F7CC
:101AA0003743C9F80870DAF800605746D1F8048067
:101AB00096435FEAC83800D516433E60DBF8006005
:101AC0005F46D1F8048096435FEA883800D5164314
:101AD0003E60DEF800607746D1F8048096435FEA06
:101AE000C82800D516433E60094F0C373E68D1F830
:101AF000048096435FEA882800D516433E605B1C4D
:101B00000A6832FA03F67FF43DAFBDE8FC8F0000AF
:101B100000040140001002400000014000040048A1
:101B200000080048000C004800100048001400485D
:101B30000AB1816170478162704700000148806886
:101B4000704700001C000020024881684268114470
:101B5000816070471C00002010B50024032000F0B5
:101B600073F80F2000F008F808B1012401E000F03C
:101B700025F8204610BD000070B50E4E0546002425
:101B8000706898B14FF47A71B1FBF0F00A490968B6
:101B9000B1FBF0F000F076FD40B9102D06D2002226
:101BA0002946501E00F030F8356000E00124204640
:101BB00070BD00001C000020280000200A4882B0F0
:101BC000016E41F001010166016E01F00101009119
:101BD000816D41F080518165806D00F080500090F2
:101BE00002B000F0A1B8000000100240002809DB9C
:101BF00000F01F02012191404009800000F1E02027
:101C0000C0F8001170470000F0B40E4B1B680C4682
:101C1000C3F30223C3F10705042D00D90425191DC0
:101C2000072901D2002300E0DB1E012606FA05F198
:101C3000491E214099409E40761E16403143F0BC1B
:101C400002F0C4BB0CED00E0064900F00702086892
:101C50004FF6FF03184040EA0220034A1043086091
:101C6000704700000CED00E00000FA052B492C4BFA
:101C70000A6832214A432B4940B1B0F5007F086819
:101C800029D020F4C06040F480602CE00868C0F3E4
:101C90004120022804D051F8800F20F4807022E007
:101CA000D1F8800020F48070C1F88000086820F42A
:101CB000C06040F400700860B2FBF3F0401C00E02C
:101CC000401E4A69520501D50028F9D148694005EE
:101CD0000AD503207047C0F34120022806D051F8EE
:101CE000800F40F48070086000207047D1F88000B9
:101CF00040F48070C1F88000086820F4C06040F4AF
:101D000000700860B2FBF3F0401C00E0401E4A691E
:101D10005205DBD50028F9D1D8E7000028000020C3
:101D200040420F00007000400248816841F4804149
:101D300081607047007000402DE9F8430446006858
:101D400000269D4D00035ED5A86D0027C00008D475
:101D5000A86D40F08050A865A86D012700F0805064
:101D60000090DFF85892D9F8001041F48071C9F85A
:101D70000010FFF7E3FE804606E000BFFFF7DEFE3F
:101D8000A0EB080002282BD8D9F80000C005F5D533
:101D9000D5F8900010F4407014D0216C814211D01D
:101DA000D5F89000D5F8901020F4407041F48031BF
:101DB000C5F89010D5F8901021F48031C5F8901036
:101DC000C5F89000C00711D0FFF7B8FE804641F279
:101DD000883907E0FFF7B2FEA0EB0801494501D9B9
:101DE00003260BE0D5F890008007F3D5D5F89000D6
:101DF000216C20F440700843C5F890001FB1A86D15
:101E000020F08050A8652078C00707D0D5F888005A
:101E1000616820F003000843C5F888002078800737
:101E200007D5D5F88800A16820F00C000843C5F854
:101E300088002078400707D5D5F88800E16820F0B1
:101E400030000843C5F888002078000707D5D5F88A
:101E50008800216920F0C0000843C5F88800207878
:101E6000800607D5D5F88800616920F440600843F2
:101E7000C5F888002078400607D5D5F88800A16904
:101E800020F440500843C5F888002078000607D5A4
:101E9000D5F88800E16920F440400843C5F888007F
:101EA0002088C00507D5D5F88800216A20F4403085
:101EB0000843C5F888002088800507D5D5F8880034
:101EC000616A20F440200843C5F888002088400556
:101ED0000FD5D5F88800A16A20F440100843C5F852
:101EE0008800A06AB0F5801F03D1E86840F4801034
:101EF000E860208800050FD5D5F88800E16A20F455
:101F000040000843C5F88800E06AB0F5800F03D1AF
:101F1000E86840F48010E8602088C0040FD5D5F848
:101F20008800216B20F040700843C5F88800206BC2
:101F3000B0F1807F03D1E86840F48010E860208829
:101F40004FF0006180040ED5D5F88800626B20F058
:101F500040601043C5F88800606B884203D1E86890
:101F600040F48010E860208840040ED5D5F8880041
:101F7000A26B20F040601043C5F88800A06B884237
:101F800003D1E86840F48010E860208800040FD591
:101F9000D5F88800E16B20F040500843C5F8880070
:101FA000E06BB0F1805F03D1E86840F48030E86016
:101FB0003046BDE8F8830000001002400070004089
:101FC0002DE9F0470E4605004FF0000725D0DFF859
:101FD000AC81D8F8000000F00F00B0420CD2D8F865
:101FE000001021F00F013143C8F80010D8F80000AC
:101FF00000F00F00B04210D12968614CC80741F2CF
:10200000883A5AD06868DFF87C91032808D0022803
:1020100020682DD0400500282CDB0120BDE8F0878A
:1020200020688001F9D5E06800F00302E068C0F3A1
:102030000310401C032A19D0534A00BFB2FBF0F032
:10204000E268C2F306225043E268C2F34162521CC6
:102050005200B0FBF2F0484517D9A06810F0F00F1D
:102060000CD0880711D5A86840B10EE0474AE5E7D3
:102070008003D0E700F0BCF8484506D9A06820F0FE
:10208000F00040F08000A0608027A068696820F020
:1020900003000843A060FFF751FD814606E000BF42
:1020A000FFF74CFDA0EB090151453AD8A0686968DB
:1020B00000F00C00B0EB810FF2D12868810714D535
:1020C000400703D5A06840F4E060A06028780007CE
:1020D00005D5A06820F4605040F4E060A060A068DE
:1020E000A96820F0F000084304E0802F03D1A06825
:1020F00020F0F000A060D8F80010404601F00F0179
:10210000B14216D9016821F00F0131430160FFF798
:1021100015FD074607E000BFFFF710FDC11B514545
:1021200001D903207AE7D8F8000000F00F00B04290
:10213000F2D12878400705D5A068E96820F4E0606E
:102140000843A0602878000706D5A068296920F414
:10215000605040EAC100A06000F04AF8A1680C4A53
:10216000C1F30311515C01F01F01C8400949086027
:1021700009480068BDE8F047FFF7FEBC00200240B8
:102180000010024000B4C4040024F40000366E01C4
:10219000D44F0008280000201C00002001480068DF
:1021A000704700002800002005480649006889683B
:1021B000054AC1F30221515C01F01F01C84070477C
:1021C0002800002000100240E44F0008054806499E
:1021D00000688968054AC1F3C221515C01F01F0102
:1021E000C84070472800002000100240E44F00085B
:1021F000184910B58868C0F381021748012A0BD02E
:102200008A68164BC2F38102022A06D08A68C2F39A
:102210008102032A03D0002010BD184610BDCA68F1
:1022200002F00304CA68C2F30312521C032C02D04A
:10223000B0FBF2F001E0B3FBF2F0CA68C968C2F388
:1022400006225043C1F34161491C4900B0FBF1F043
:1022500010BD0000001002400024F40000366E01A2
:102260002DE9F84304007AD02078FA4DC00747D012
:10227000A868E96800F00C0001F003010C2802D006
:10228000082817D001E0032914D06068B0F5803F1A
:1022900017D0B0F5A02F286817D020F48030286020
:1022A000286820F4802028606068E0B1FFF746FCD1
:1022B000064614E02868800322D560680028D2D042
:1022C0001EE0286840F48030EDE740F4802028606C
:1022D000F7E700BFFFF732FC801B642870D828683E
:1022E0008003F7D50CE0FFF729FC064605E000BFA8
:1022F000FFF724FC801B6428F0D828688003F7D4FB
:10230000207880074CD5A868E96800F00C0001F03F
:1023100003010C2802D004280DD001E002290AD0C4
:10232000E068002828682BD040F480702860FFF710
:1023300005FC064619E02868400502D5E06800283B
:1023400091D06868217C20F0FE4040EA016068601E
:10235000C1480068FFF710FC002800D120E076E1BA
:10236000FFF7ECFB801B0228B8D828684005F7D59A
:102370006868217C20F0FE4040EA016068600FE060
:1023800020F480702860FFF7D9FB064605E000BF07
:10239000FFF7D4FB801B0228A0D828684005F7D49B
:1023A0002078000729D560690028D5F8940013D05B
:1023B00040F00100C5F89400FFF7C0FB064606E0B8
:1023C00090E000BFFFF7BAFB801B022886D8D5F843
:1023D00094008007F6D510E020F00100C5F89400C5
:1023E000FFF7ACFB064604E0FFF7A8FB801B0228C2
:1023F00078D8D5F894008007F6D42078400761D5C6
:10240000A86D0026C00008D4A86D40F08050A865D3
:10241000A86D012600F08050009090480168C90521
:1024200011D40168804641F480710160FFF786FB9A
:10243000074604E0FFF782FBC01B022852D8D8F8F9
:102440000000C005F6D5A068012815D00528D5F8EC
:10245000900016D020F00100C5F89000D5F890004B
:1024600020F00400C5F89000A06841F28838B8B1A7
:10247000FFF764FB07460EE0D5F8900040F001003E
:10248000F0E740F00400C5F89000F5E7FFF756FBD1
:10249000C11B414526D8D5F890008007F6D50CE041
:1024A000FFF74CFB074604E0FFF748FBC11B414523
:1024B00018D8D5F890008007F6D41EB1A86D20F08A
:1024C0008050A8652078800629D5A0690028D5F815
:1024D000980013D040F00100C5F89800FFF72EFBDC
:1024E000064606E077E000BFFFF728FB801B0228C6
:1024F00077D8D5F898008007F6D510E020F00100D5
:10250000C5F89800FFF71AFB064604E0FFF716FB34
:10251000801B022865D8D5F898008007F6D4E069BA
:10252000F0B3A968C1F38101032961D002282868AA
:1025300020F0807028600BD0E86820F00300E8608D
:10254000E86847490840E860FFF7F8FA04464BE0BE
:10255000FFF7F4FA064604E0FFF7F0FA801B0228C2
:102560003FD828688001F7D4F4E908016FF00F0222
:1025700002EB01110843218A5204490802EB415140
:10258000A26841EA02210843217D4FF07E424908BA
:1025900002EB41610843217B40EAC160E96800E049
:1025A00062E0304A11400843E860286840F08070DB
:1025B0002860E86840F08070E860FFF7BFFA0446E2
:1025C00005E000BFFFF7BAFA001B022809D8286807
:1025D0008001F7D548E004E0FFF7B0FA001B0228BD
:1025E00002D90320BDE8F88328688001F4D43BE0D9
:1025F0000128F7D0E868226A00F00301914226D151
:10260000616A00F0F0020901103991421FD1A26AFB
:1026100000F4FE41B1EB022F19D194F82C2000F008
:102620007841B1EBC26F12D1218E00F4C00249088B
:102630004905A1F50011914209D194F8341000F038
:10264000C06049084906A1F1007181420CD0012007
:10265000C8E70000001002401C000020007000408D
:10266000FFFFEEFE0C809F010020BBE74FF0E02152
:102670000428086903D020F004000861704740F086
:102680000400FAE710B5401EB0F1807F01D30120AD
:1026900010BD4FF0E02460610F21601701F096FE3D
:1026A0000020A06107202061002010BD7047704706
:1026B00070470000F0B590F83C20012A4AD0012272
:1026C00080F83C20CA688B6822F440721A434B6839
:1026D00022F480621A430B6822F400621A430B69E9
:1026E00022F480521A434B6922F400521A430B6BB6
:1026F00022F480421A430B8B22F4702242EA0342F6
:10270000154C03680026154DA34201D0AB4203D1FE
:10271000CF6922F080523A43A34201D0AB4214D198
:102720000F8D22F4700242EA07520F6A22F0807283
:102730003A434F6A22F000723A43A34201D0AB42BF
:1027400003D1C96A22F000520A435A6480F83C60FF
:102750000020F0BD0220F0BD002C014000340140FB
:10276000F0B590F83C30012B0BD0012380F83C30C1
:102770001368042B1ED006DC012B11D0022B06D1CE
:1027800013E00220F0BD082B19D0102B1CD0002420
:1027900023462646254601291BD002293AD129E0A5
:1027A0000124002663020925F5E7022401266302BD
:1027B0000A25F0E70424022663020B25EBE7082430
:1027C000032663020C25E6E71024042663020D2588
:1027D000E1E7D0F800C0DCF8607051689268B14061
:1027E000A74321403943AA4099431A400A43CCF8F1
:1027F00060200FE0D0F800C0DCF864705168926887
:10280000B140A74321403943AA4099431A400A43A3
:10281000CCF86420002180F83C100846F0BD7047D9
:1028200070477047F0B590F83C20012A3AD0012556
:1028300080F83C50022280F83D2003685A689C686A
:10284000194E1A4FB34201D0BB4204D122F4700C8E
:102850004A6842EA0C02DFF858C002EA0C02D1F8DA
:1028600000C04CEA020CC3F804C00268B2420DD0AA
:10287000B2F1804F0AD00F4B9A4207D00E4B9A42CA
:1028800004D0BA4202D00D4B9A4204D1896824F098
:1028900080031943916080F83D50002180F83C107E
:1028A0000846F0BD0220F0BD002C0140003401407C
:1028B0008FFFFFFD00040040000800400040014081
:1028C00010B50446022249B104290ED0082913D0BC
:1028D00094F84700012816D0012010BD94F8440058
:1028E0000128F9D184F844200FE094F8450001282C
:1028F000F2D184F8452008E094F846000128EBD195
:1029000084F8462001E084F847200422206801F082
:1029100002F92068416C41F400414164104920688B
:1029200088420ED0B0F1804F0BD00E49884208D0BB
:102930000D49884205D00D49884202D00C49884291
:1029400007D181680B4A1140062906D0B1F5803FB6
:1029500003D0016841F001010160002010BD0000BA
:10296000002C0140000400400008004000340140F9
:102970000040014007000100704710B5040003D07B
:1029800094F83D0010B107E0012010BD002084F84C
:102990003C00204600F022F8022084F83D00211D72
:1029A000206801F053F8012084F8480084F83E00C4
:1029B00084F83F0084F8400084F8410084F8420025
:1029C00084F8430084F8440084F8450084F8460005
:1029D00084F8470084F83D00002010BD10B586B093
:1029E000044614216846FDF74DFC274A2168274814
:1029F00091421ED1016E41F400610166006E002219
:102A000000F40060059011461820FFF7FDF818202B
:102A1000FFF7ECF8002211461920FFF7F5F819200E
:102A2000FFF7E4F8002211461B20FFF7EDF81B200A
:102A300025E0174A914224D1816D41F0040181655E
:102A4000816D01F004010591C16C41F00201C16486
:102A5000C06C002100F0020005904FF4E07000907F
:102A60000220CDE90101CDE9031069460948FEF7CE
:102A70007BFF002211461E20FFF7C6F81E20FFF73D
:102A8000B5F806B010BD0000002C01400010024057
:102A9000000800400004004890F83D10012901D0D2
:102AA00001207047022180F83D1000680F498842DC
:102AB0000ED0B0F1804F0BD00D49884208D00D499F
:102AC000884205D00C49884202D00C49884207D17F
:102AD00081680B4A1140062906D0B1F5803F03D02A
:102AE000016841F00101016000207047002C0140A5
:102AF0000004004000080040003401400040014054
:102B00000700010070B5044690F83C00012814D07D
:102B1000012584F83C50022084F83D00226890682A
:102B2000344B184020F47F4090600868702827D00C
:102B300010DC10F00F0F03D04AE04FF0020070BD20
:102B40004FEA2012072A43D2DFE802F050505050DB
:102B500048313900284BC21A984247D009DCB0F5F9
:102B6000805F35D0B0F5005F15D0B0F1101F2FD1C8
:102B70003CE0102A3AD0202A38D0502A28D135E01B
:102B8000CB68D1E90121206800F0D2FF206881687C
:102B900041F0770109E0CB68D1E90121206800F01C
:102BA000C7FF2068816841F48041816010E0CA68F5
:102BB0004968206801F066F95021206806E0CA687B
:102BC0004968206801F06FF96021206800F0BAFFC1
:102BD00084F83D50002084F83C0070BDCA68496804
:102BE000206801F04FF940212068EFE72268014694
:102BF0001046EBE788FFCEFF20001000704770B54D
:102C00000446006801694FF00005C943890715D4DF
:102C1000C168C943890711D4E91E016101202077E9
:102C2000206880698007204602D0FFF7E7FF04E0B4
:102C300000F02EF9204600F0EDF9257720680169B3
:102C4000C943490717D4C168C943490713D46FF072
:102C500004010161022020772068806910F4407F20
:102C6000204602D0FFF7CAFF04E000F011F9204629
:102C700000F0D0F9257720680169C943090716D407
:102C8000C168C943090712D46FF00801016104202B
:102C900020772068C0698007204602D0FFF7AEFF8A
:102CA00004E000F0F5F8204600F0B4F9257720683C
:102CB0000169C943C90617D4C168C943C90613D4F9
:102CC0006FF010010161082020772068C06910F4BE
:102CD000407F204602D0FFF791FF04E000F0D8F8D3
:102CE000204600F097F9257720680169C943C90794
:102CF00008D1C168C943C90704D1891E01612046B2
:102D000000F008FA20680169C943090609D4C168BE
:102D1000C943090605D46FF0800101612046FFF721
:102D2000C6FC20680169C943C90509D4C168C94303
:102D3000090605D46FF4807101612046FFF7B6FCE7
:102D400020680169C943490609D4C168C9434906D5
:102D500005D46FF040010161204600F0DCF92068E5
:102D60000169C943890609D4C168C943890605D4E4
:102D70006FF0200101612046FFF79AFC206801698D
:102D8000C943C90209D4C168C943C90205D46FF453
:102D9000801101612046FFF743FD20680169C943A6
:102DA000890209D4C168C943890205D46FF40011AE
:102DB00001612046FFF733FD20680169C9434902DC
:102DC00009D4C168C943490205D46FF48001016187
:102DD0002046FFF726FD20680169C94309020BD48C
:102DE000C168C943090207D46FF40001016120469C
:102DF000BDE87040FFF7C0BD70BD0000F0B587B002
:102E0000044614216846FDF73DFA1E4920688842B1
:102E100036D11D48C16C41F00201C164C16C01F0A2
:102E200002010591C16C41F00101C164C06C022531
:102E300000F0010005904FF4C04000900024CDE95F
:102E400001540626114FCDE9034669463846FEF780
:102E50008BFDA8030090CDE901540420CDE9034087
:102E600069463846FEF780FD4FF4E0600090CDE9FA
:102E70000154CDE9034669464FF09040FEF774FDDA
:102E800007B0F0BD002C01400010024000040048D3
:102E9000704770B5044690F83C000D4601280BD0F1
:102EA000012084F83C000C2A45D007DC5AB1042AE2
:102EB0001BD0082A78D12CE0022070BD102A4ED0F9
:102EC000142A71D15DE0206800F046FE2068816917
:102ED00041F0080181612068816921F0040181616C
:102EE000206881692A69114311E0206800F082FEA0
:102EF0002068816941F4006181612068816921F461
:102F000080618161206881692A6941EA02218161C9
:102F10004AE0206800F0B6FE2068C16941F008016F
:102F2000C1612068C16921F00401C1612068C169E3
:102F30002A69114311E0206800F0ECFE2068C169A5
:102F400041F40061C1612068C16921F48061C161FF
:102F50002068C1692A6941EA0221C16124E0206830
:102F600000F020FF2068016D41F008010165206834
:102F7000016D21F0040101652068016D2A6911438A
:102F800011E0206800F046FF2068016D41F4006107
:102F900001652068016D21F4806101652068016D83
:102FA0002A6941EA02210165002084F83C0070BDD5
:102FB00010B5040003D094F83D0010B107E00120E3
:102FC00010BD002084F83C00204600F022F80220CA
:102FD00084F83D00211D206800F038FD012084F8B0
:102FE000480084F83E0084F83F0084F8400084F8EC
:102FF000410084F8420084F8430084F8440084F8D7
:10300000450084F8460084F8470084F83D0000201D
:1030100010BD70477047000030B50446022269B108
:10302000042912D0082917D00C291CD0102921D02E
:1030300094F84300012824D0012030BD94F83E00CC
:103040000128F9D184F83E201DE094F83F000128C2
:10305000F2D184F83F2016E094F840000128EBD12B
:1030600084F840200FE094F841000128E4D184F86E
:10307000412008E094F842000128DDD184F8422084
:1030800001E084F843200122206800F037FD194B4D
:1030900020681949194A984209D0884207D09042BD
:1030A00005D0174DA84202D0164DA84203D1456C59
:1030B00045F400454564206898420CD0B0F1804F3B
:1030C00009D0114B984206D0104B984203D0884249
:1030D00001D0904207D181680D4A1140062906D0DF
:1030E000B1F5803F03D0016841F00101016000208B
:1030F00030BD0000002C0140003401400040014080
:103100000044014000480140000400400008004025
:10311000070001007047704790F88010012918D00F
:10312000012180F880102421C0F8841050F8641B1D
:103130000A680B6823F001030B6022F000510022A3
:10314000026050F8643C1960202101620277104649
:103150007047022070477047704770B5044690F87A
:10316000800001281DD0012084F880002420C4F8AC
:10317000840020680568026822F00102026020686D
:10318000826822F060620A438260204600F09EFE60
:10319000206805602020C4F88400002084F88000A6
:1031A00070BD022070BD70B5044690F88000012803
:1031B0001DD0012084F880002420C4F884002068F9
:1031C0000568026822F0010202602068826822F02D
:1031D00060420A438260204600F078FE2068056065
:1031E0002020C4F88400002084F8800070BD0220F4
:1031F00070BD7047704770472DE9F0410368044681
:10320000D86919689A6840F60F0528424FF0000502
:1032100009D186067ED501F0200602F080573E4394
:1032200078D0216FFFE0924E924F16400F40374307
:1032300070D0C70709D0CF0507D501271F62D4F882
:103240008C3043F00103C4F88C3083070AD5D307D0
:1032500008D0276802233B62D4F88C3043F0040383
:10326000C4F88C3043070AD5D30708D02768042355
:103270003B62D4F88C3043F00203C4F88C3003076F
:103280000CD501F02003334308D0266808233362AD
:10329000D4F88C3043F00803C4F88C3003050BD508
:1032A0004B0109D526684FF400633362D4F88C30A3
:1032B00043F02003C4F88C30D4F88C30002B34D089
:1032C000800609D501F0200002F08051084303D0A8
:1032D000216F09B120468847D4F88C00216889689D
:1032E000490602D410F0280F21D0204600F0AEFE8F
:1032F00020688168490615D5816821F04001816008
:10330000E06F78B15C498163E06FFDF700FF002852
:103310000BD000E011E0E06F816B00E02046BDE8DB
:10332000F04108472046FFF766FFBDE8F0812046E0
:10333000FFF761FFC4F88C50F7E7E76E2026012FF6
:103340005CD1C7065AD5CF0658D510201862206820
:10335000816849062FD5E26F116849680904090C94
:10336000E3D0B4F85C308B42DFD9A4F85E1011686A
:103370000968890618D4016821F480710160206809
:10338000816821F0010181602068816821F040019D
:103390008160C4F88860E5662068016821F010014A
:1033A0000160E06FFDF77EFEB4F85C00B4F85E10DB
:1033B000401A81B21EE0B4F85C10B4F85E20891A9D
:1033C000B4F85E2089B2002AAFD00029ADD00268DF
:1033D00022F49072026020688268254BDB431A4019
:1033E0008260C4F88860E56625672068026822F07C
:1033F000100202602046FFF7AEFE96E7C70209D52D
:10340000570207D54FF4801018622046BDE8F041FE
:10341000FFF7F0BE07060AD501F0800702F40002AC
:10342000174304D0616F00297FF478AF7DE742062F
:103430000CD54A060AD51968204621F040011960CA
:10344000C4F88460656700F0A3F86EE7020206D551
:103450004A0004D52046BDE8F041FFF7CABEC001CE
:10346000CBD50029C9DA2046BDE8F041FFF774BE8C
:1034700001000010200100043940000810B50400CC
:1034800003D0D4F8840010B107E0012010BD002063
:1034900084F88000204600F027F82420C4F8840037
:1034A0002068016821F001010160204600F0EAFD7A
:1034B0000128EBD0A06A10B1204600F029FD206859
:1034C000416821F4904141602068816821F02A011F
:1034D00081602068016841F0010101602046BDE87B
:1034E000104000F079BD000070B586B0064614218A
:1034F0006846FCF7C7FE2149306888423CD1204924
:10350000886D40F480208865886D00F480200590E7
:10351000C86C40F00200C864C86C002500F00200CE
:1035200005904FF4406000900220CDE9010507208E
:10353000CDE9035069461348FEF716FA134C1248BA
:1035400020601D2060601020C4E902058020C4E9CD
:103550000405A561E56120462562FDF771FE08B10D
:10356000FDF710FAB467002211462720A662FEF785
:103570004BFB2720FEF73AFB06B070BD0048004029
:103580000010024000040048080002403003002000
:103590007047FEE78068C0F3C00070478068C0F3E2
:1035A00080007047C06810F4406F01D00020704761
:1035B000012070470C4810B50A4901608915416027
:1035C0004021816000210161C1604161112181615F
:1035D000FDF77EFB002803D0BDE81040FDF7D2B90F
:1035E00010BD0000000201405801002000B58DB060
:1035F00030216846FCF746FE11491048086008462D
:10360000FDF700FD08B1FDF7BDF902200090002094
:103610008DF804008DF805000290039001210490BC
:10362000CDE905010246079069460548FDF710FC03
:10363000002801D0FDF7A6F90DB000BD000800502C
:103640007C01002000B58DB030216846FCF71AFEE1
:103650001149104808600846FDF7D4FC08B1FDF791
:1036600091F9002002218DF804008DF805000290E8
:10367000CDE906100091CDE90401039002466946A8
:103680000548FDF7E5FB002801D0FDF77BF90DB0FB
:1036900000BD000000100050900100200D4808B54A
:1036A000816C41F004018164816C01F0040100919E
:1036B000816C41F001018164806C002200F0010006
:1036C000009011460B20FEF79FFABDE808400B2042
:1036D000FEF78CBA0010024070B513481149102251
:1036E00002C0002102C0082340F8081B072440F84C
:1036F000041C00F8011B022500F8011B00F8021B46
:103700003CC03CC0012240F83429C0E90E210648E3
:10371000FDF7C4FF002803D0BDE87040FDF732B9C3
:1037200070BD000000640040A401002030B587B0E7
:1037300014216846FCF7A6FD2248C16C41F0040143
:10374000C164C16C01F004010591C16C41F020011C
:10375000C164C16C01F020010591C16C41F001010F
:10376000C164C16C01F001010591C16C41F002011D
:10377000C164C06C144D00F002000590002250217D
:103780002846FEF7D5F94FF4305000900F4800243A
:10379000CDE9010469462846FEF7E6F8502000907E
:1037A0000120CDE90104694628460394FEF7DCF8C0
:1037B000002211462820FEF727FA2820FEF716FAE5
:1037C00007B030BD00100240000800480000111092
:1037D0002DE9F0419EB000241A941B941C941D9472
:1037E000149415941694179418941C2168461994EF
:1037F000FCF748FD342107A8FCF744FD4348424943
:103800000127C0E900142021816041F63F71C160A9
:103810004FF480718461C0E90417FFF7AEF808B176
:10382000FDF7B0F84FF480581AA93848CDF86880F1
:10383000FFF768F908B1FDF7A5F83448FFF7B8FBC2
:1038400008B1FDF79FF87026CDE9146414A92F483C
:103850001694FEF7E7FF08B1FDF794F8CDE9187468
:10386000022517AA012129481795FEF779FF08B10B
:10387000FDF788F86020CDE90004029403940494D5
:1038800005940022694621480694FFF702FB08B11F
:10389000FDF778F8042269461C48FFF7FAFA08B1E8
:1038A000FDF770F8082269461848FFF7F2FA08B1E8
:1038B000FDF768F841F63E70CDE900600C226946DC
:1038C0001248FFF7E6FA08B1FDF75CF80794782094
:1038D0000894CDE90940CDE90D544FF40050CDE9ED
:1038E0000B800003CDE90F401194129407A90748FB
:1038F0001394FEF7DFFE08B1FDF744F80348FFF725
:103900007DFA1EB0BDE8F081002C014008020020C5
:10391000184810B5164901604FF46121416000213B
:1039200081600C22C160C0E904128161C161016241
:1039300041628162FFF7A2FD08B1FDF723F8002183
:103940000C48FFF730FC08B1FDF71CF800210948CE
:10395000FFF703FC08B1FDF715F80648FFF7DCFB9D
:10396000002803D0BDE81040FDF70CB810BD0000E2
:1039700000480040A0020020FEE7FEE770477047C5
:10398000FEF7E2B810B5A4B038216846FCF77AFC1F
:1039900014211FA8FCF776FC44210EA8FCF772FC4A
:1039A0000020FEF763F9012000900004019002203E
:1039B0000324CDE907042821CDE90A100C900D90CD
:1039C00009946846FEF74CFC08B172B6FEE70F207A
:1039D000CDE91F0400242194229404211FA82394DC
:1039E000FEF7EEFA08B172B6FEE749F204000E9057
:1039F000C0051A9000011D9011940EA8FEF79CF9C5
:103A0000002801D072B6FEE724B010BD024801685C
:103A100041F470010160704788ED00E00148FFF754
:103A2000EEB80000080200200148FFF7E8B80000E7
:103A3000080200200148FFF7E2B800000802002059
:103A40000148FFF7DCB80000540200202DE9F043E4
:103A50000268234B234D244E244C4FF0804998425A
:103A600007D0484505D0A84203D0B04201D0A042BB
:103A700003D122F070074A683A431D4FDFF874C043
:103A8000DFF8748098420DD048450BD0A84209D089
:103A9000B04207D0A04205D0B84203D0604501D063
:103AA000404503D122F44075CA682A434D6922F08B
:103AB00080022A4302608A68C2620A68826298426F
:103AC00007D0A04205D0B84203D0604501D04045A0
:103AD00001D10969016301214161BDE8F083000062
:103AE000002C014000040040000800400034014068
:103AF00000400140004401400048014010B501F081
:103B00001F030121046A99408C430462016A9A40B0
:103B10001143016210BD10B501F01F030421046AB6
:103B200099408C430462016A9A401143016210BDBE
:103B300010B5846842EA032224F47F440A432243F6
:103B4000826010BD8268034B1A400A4342F00701AD
:103B5000816070478FFFCFFF2DE9F043026A22F0AA
:103B600001020262056A436882691C4C25F0020565
:103B700022400C6822F0030214438A68194E2A433B
:103B8000174D194FDFF864C0DFF86490A84207D0E2
:103B9000B04205D0B84203D0604501D0484506D1B7
:103BA00022F00808CA6842EA080222F00402A84289
:103BB00007D0B04205D0B84203D0604501D0484597
:103BC00005D14D6923F440731D438B692B4343603A
:103BD0008461496841630262BDE8F0838FFFFEFFA4
:103BE000002C0140003401400040014000440140ED
:103BF00000480140F0B5026A22F010020262056A34
:103C000042688369194C1B4E23400C6823F44073AF
:103C100043EA042425F020038D6843EA0513144D7C
:103C2000A84201D0B04206D1CF6823F0800343EA16
:103C3000071323F04003A8420AD0B04208D00E4D2B
:103C4000A84205D00D4DA84202D00D4DA84207D183
:103C50004D6922F4406242EA85028D6942EA85029A
:103C600042608461496881630362F0BDFF8FFFFE9B
:103C7000002C01400034014000400140004401405C
:103C800000480140F0B5026A22F480720262056ABF
:103C90004368C269194C1B4E22400C6822F0030293
:103CA000144325F400728D6842EA0522144DA8429F
:103CB00001D0B04206D1CF6822F4006242EA072266
:103CC00022F48062A8420AD0B04208D00E4DA84229
:103CD00005D00E4DA84202D00D4DA84207D14D6926
:103CE00023F4405343EA05138D6943EA0513436007
:103CF000C4614968C1630262F0BD00008FFFFEFF2E
:103D0000002C0140003401400040014000440140CB
:103D100000480140F0B5026A22F480520262056A4E
:103D20004268C369194C1B4E23400C6823F440734E
:103D300043EA042425F400538D6843EA0533144D07
:103D4000A84201D0B04206D1CF6823F4004343EA31
:103D5000073323F48043A8420AD0B04208D00E4D66
:103D6000A84205D00D4DA84202D00D4DA84207D162
:103D70004D6922F4404242EA85128D6942EA851279
:103D80004260C461496801640362F0BDFF8FFFFEB9
:103D9000002C01400034014000400140004401403B
:103DA0000048014030B5026A22F480320262046A9F
:103DB0004268036D114D2B400D681D4324F4003300
:103DC0000C8943EA04430E4CA0420BD00D4CA04298
:103DD00008D00D4CA04205D00C4CA04202D00C4C97
:103DE000A04204D14C6922F4803242EA04224260AB
:103DF000056549688164036230BD00008FFFFEFFE6
:103E0000002C0140003401400040014000440140CA
:103E10000048014030B5026A22F480120262046A4E
:103E20004268036D114D24F400142B400D6843EAE1
:103E300005230D8944EA05540D4DA8420BD00D4DC4
:103E4000A84208D00C4DA84205D00C4DA84202D083
:103E50000B4DA84204D14D6922F4802242EA85220A
:103E6000426003654968C164046230BDFF8FFFFE94
:103E7000002C01400034014000400140004401405A
:103E80000048014010B5036A046A24F0010404628A
:103E9000846924F0F00444EA021423F00A020A437D
:103EA0008461026210BD10B5036A23F0100303623F
:103EB0008369046A23F4704343EA023224F0A003C6
:103EC00043EA01118261016210BD000030B5416E0C
:103ED000B9B1026891689268C1F342610B4B520F0D
:103EE0009C5CE50003F10804A25CB5FBF2F2A0F8CB
:103EF0006A205A5C615CD200B2FBF1F1A0F8681054
:103F000030BD0121A0F86A10F8E70000C44F000896
:103F100090F82810C90706D001684A68C36A22F4DD
:103F200000321A434A6090F82810890706D50168C4
:103F30004A68036B22F480321A434A6090F82810D2
:103F4000490706D501684A68436B22F480221A4368
:103F50004A6090F82810090706D501684A68836B03
:103F600022F400421A434A6090F82810C90606D588
:103F700001688A68C36B22F480521A438A6090F801
:103F80002810890606D501688A68036C22F400525D
:103F90001A438A6090F82810490611D501684A68CA
:103FA000436C22F480121A434A60416CB1F5801FC1
:103FB00006D101684A68836C22F4C0021A434A6041
:103FC00090F82810090606D501684A68C06C22F4EA
:103FD000002202434A607047F8B500260446C0F844
:103FE0008C60FDF7ABFD0546206800686FF07E47EA
:103FF000000708D52B4600224FF4001120460097F9
:1040000000F07AF960B92068006840070AD52B46AD
:1040100000224FF480012046009700F06DF908B1AE
:104020000320F8BD2020C4F88400C4F8880044F8B8
:104030006C6F00202675F8BD10B5806A0021A0F8CD
:104040005E10A0F85610FFF7D6F810BD01680A6898
:1040500022F490720A6001688A68094B1A408A60EB
:10406000C16E012904D101680A6822F010020A60B9
:104070002021C0F888100021C16601677047000048
:10408000FEFFFFEF2DE9F0410446016880682269D8
:10409000E3691043626900251A431043DFF82CC21C
:1040A0000A688B4B1A4002430A6020684168E26844
:1040B00021F44051114341602168A069614501D05C
:1040C000226A10438A68834B1A4002438A60206840
:1040D000C16A626A21F00F011143C1627E492368FF
:1040E0007E488B420DD1D0F8880010F0030006D036
:1040F000012855D0022842D003283FD152E00120A8
:104100003DE077498B420BD1D0F8880010F00C00CD
:1041100035D0042833D0082840D00C282ED141E0D7
:1041200070498B420BD1D0F8880010F0300026D0B7
:10413000102835D0202831D030281FD132E06A49EC
:104140008B420BD1D0F8880010F0C00017D0402867
:1041500026D0802822D0C02810D123E063450DD17D
:10416000D0F8880010F4406009D0B0F5806F17D007
:10417000B0F5006F12D0B0F5406F13D010205B4A3D
:104180005B4F00264FF40041634539D160B10228EE
:104190000DD004280DD0082831D10EE00220EEE722
:1041A0000420ECE70820EAE7FDF7FEFF03E01146F4
:1041B00003E0FEF71DF801007DD0606A37F810209B
:1041C0006768B1FBF2F007EB470383426CD8B0EBB2
:1041D000073F69D8002308461946FCF71BF8090277
:1041E00041EA106102027808101871413A46002332
:1041F000FCF710F83F4AA0F54071914259D953E0BD
:10420000E3694FF6EF788B422DD109284CD2DFE8D5
:1042100000F005080D4B274B4B4B0E00FDF7C4FF7C
:1042200001E0FDF7D3FF010001D144E01146606ACF
:1042300037F81000B1FBF0F04100606801EB50016D
:10424000B1FBF0F080B2A0F1100141452CD84FF63F
:10425000F0710140C0F3420001432068C1602AE0D0
:10426000FDF7C6FFDFE709281ED2DFE800F00508EA
:104270000D1D1F1D1D1D0E00FDF796FF01E0FDF732
:10428000A5FF010001D116E01146606A37F8100061
:10429000B1FBF0F1606801EB5001B1FBF0F080B2CE
:1042A000A0F11001414504D9012504E0FDF7A0FF6C
:1042B000E7E72168C8600120A4F86A0024F8680FC5
:1042C0002846A660E660BDE8F0810000008000405E
:1042D000F369FFCFFFF4FF110038014000100240E6
:1042E0000044004000480040004C00400024F4001E
:1042F000AC4F0008FFFC0F002DE9F0479A46174627
:104300000E4604464FF000094FF02008089D39E0A2
:10431000681C37D0FDF712FCA0EB0A00A84222D897
:104320000DB32068016849072CD5C069C04300055A
:1043300028D421684FF4006008622068016821F4E5
:10434000D07101602068816821F001018160C4F8AA
:104350008480C4F88880C4F88C8000BF84F8809082
:104360000320BDE8F0872068016821F4D071016066
:104370002068816821F001018160C4F88480C4F85C
:104380008880EBE72068C06936EA000004D000208E
:10439000B842BDD00020E4E70120F9E70148FEF76C
:1043A0002BBF0000A0020020FEE700000FB4054B69
:1043B00010B503A9044A029800F0BCF910BC5DF8DE
:1043C00014FB0000914E00082C0000200907090E84
:1043D000002804DB00F1E02080F80014704700F0B2
:1043E0000F0000F1E02080F8141D704710B52DED8E
:1043F000040B86B09DED060B10EE100A10EE901A1D
:104400008DED000B002818BF0120084320F000406C
:10441000C0F17F6000F1E040C00F21D19DED080B9D
:1044200010EE101A10EE900A8DED000B002918BF47
:104430000121084320F00040C0F17F6000F1E0401E
:10444000C00F0DD129490798B1EB400F04BF069862
:10445000002842D00998400004BF089800283CD0AA
:104460009DED080B53EC102B9DED060B51EC100B42
:10447000FCF7A5F9CDE902019DED020B40F2FF71B9
:1044800010EE900A8DED000B31EA105021D0079804
:10449000039900F0004001F00041884219D09DEDE1
:1044A000080B8DED040B9DED020B8DED000B10EE56
:1044B000900A059961F31E0005909DED041B9DED8A
:1044C000020B51EC110B53EC102BFBF78AFFCDE9DB
:1044D00002019DED020B0AB010BD012000F028F88A
:1044E0000AB0BDE8104000F003B800000000E0FF93
:1044F0009FED050B10B553EC102B51EC100BFCF796
:10450000EFF841EC100B10BD0000000000000000AF
:1045100002E008C8121F08C1002AFAD1704770478C
:10452000002001E001C1121F002AFBD170470000EA
:104530000149086070470000300000200848D0EDB5
:10454000000A084890ED001A074820EE811AD0EDC5
:10455000000A51EE000AB0EE600A00F0C9B800008F
:104560000000002004000020080000202DE9FF5F6B
:1045700082B00021DDE90430020DDDF840B00343D4
:1045800018D044F61050A2F2FF324243151411988D
:1045900001281FD0A5EB0B00401C5FEA000A4FF07A
:1045A00000064E4FDFF83891B046504615D5CAF197
:1045B000000413E0119801244AA3012801D16FEAF5
:1045C0000B010298119AC0E90031C0E9024206B01D
:1045D000BDE8F09FCBF10000DFE704460021404A30
:1045E000491842EB0450CDE9001012E0E00707D073
:1045F00032463B4640464946FBF7F6FE8046894632
:1046000032463B4610461946FBF7EEFE06460F467D
:104610006410002CEAD1DDE90401DDE90023BAF1E0
:10462000000F06DAFBF7E0FE42464B46FBF7DCFEE6
:1046300005E0FCF755F842464B46FCF751F80446B6
:104640000E460022284BFCF715F903D84FF0FF3037
:10465000014607E00022254B20463146FBF71DFEB0
:10466000FCF7F0F8102409E0002C0ADB0A220023F2
:10467000FBF7D0FD039B30321A55641E50EA01024D
:10468000F2D1641C039AC4F111031444119A012A53
:1046900003D0012208430DD10AE0084304D00020D2
:1046A0004FF0110B119072E7A3EB0B056D1E0DE09F
:1046B0005B4504DD4FF0000205F1010504E003DA7B
:1046C0004FF00002A5F10105002AECD002981199E3
:1046D000C0E90231C0E9004579E70000000014405C
:1046E0000000F03F300000000000F0430000E03F19
:1046F00010B510EE100AFBF7E9FE41EC100B9FED30
:104700000A1BFFF773FE51EC100BFBF7F2FE00EEF5
:10471000100AB5EEC00AF1EE10FA03DADFED040A72
:1047200030EE200A10BD000000000060FB2119409F
:10473000DB0FC9402DE9FF4F95B09A4688460646E3
:104740000025EEE1252877D100242746F94A0121EA
:10475000039400E0044316F8013F203B01FA03F004
:104760001042F7D130782A2811D06FF02F0330781B
:10477000A0F13002092A16D8039A44F0020402EB91
:10478000820203EB42021044761C0390EFE758F8D4
:10479000042B0392002A03DA504244F4005403909D
:1047A00044F00204761C30782E2816D116F8010F3A
:1047B00044F004042A280DD06FF02F023078A0F1C5
:1047C0003003092B09D807EB870302EB4303C71813
:1047D000761CF3E758F8047B761C30786C280FD0F1
:1047E00006DC4C2817D068280DD06A2814D104E0C4
:1047F000742810D07A280FD10DE044F400140AE098
:1048000044F4801401E044F440147278824202D1EE
:1048100004F58014761C761C307866280BD013DCE7
:10482000582877D009DC002875D04528F6D04628CE
:10483000F4D047281AD193E118E0632835D06428D2
:1048400079D0652812D18BE1702873D008DC6728F5
:10485000F1D069286FD06E280DD06F2806D1ACE05A
:1048600073282CD0752874D0782853D052461799C5
:1048700090476D1C54E1C4F30250022809D003286C
:104880000DD0D8F8001004280DD00D6008F10408F0
:1048900046E1D8F80010EA17C1E90052F6E7D8F867
:1048A00000100D80F2E70D70F0E718F8041B8DF88A
:1048B000001000208DF80100EB46012003E058F8BD
:1048C00004BB4FF0FF3061074FF0000102D40DE050
:1048D00009F101018946B9420FDA8145F8DB1BF87D
:1048E00009100029F4D108E009F10101894681424B
:1048F000FADB1BF809100029F6D103985346A0EB08
:10490000090721463846179A00F080FA284400EB40
:10491000090507E044E008E10DE01BF8010B5246F1
:1049200017999047B9F10109F7D253462146384605
:10493000179AF2E039E00A21C4F302524FF0000B5B
:104940000091022A06D058F8040BC117032A09D097
:104950000AE023E008F1070020F00702F2E8020174
:10496000904605E000B2C117042A01D140B2C11738
:10497000002906DA0A460021404261EB02012D229D
:1049800002E0220504D52B228DF80420012203E049
:10499000E20701D02022F7E7914657E00A2100E024
:1049A00010214FF0000B00910BE010214FF0000B95
:1049B00044F004040827009103E008204FF0000BA6
:1049C0000090C4F30252022A05D058F8040B0021CB
:1049D000032A08D008E008F1070020F00702F2E8F7
:1049E0000201904603E080B2042A00D1C0B24FF029
:1049F000000922072AD53278702A07D0DDF800C0D6
:104A00008CF0100C5CEA0B0C05D00EE040228DF807
:104A10000420012208E050EA010306D030238DF87B
:104A200004308DF8052002229146009B83F0080394
:104A300053EA0B030AD150EA010201D1620705D5FE
:104A400030228DF804204FF001097F1E3278582A59
:104A500004D039A20C920CAA02920BE03BA2F9E717
:104A60005B46009AFBF7D6FB0C9B9B5C029A521E9E
:104A70000292137050EA0102F2D1029804A9081AB6
:104A800000F1200B600702D524F4803400E00127F8
:104A90005F4502DDA7EB0B0000E0002000EB0B01FF
:104AA000009003984944401A0390E00306D453460B
:104AB0002146179A039800F0A9F90544002706E05B
:104AC00001A85246C05D179990476D1C7F1C4F4549
:104AD000F6DBE0030CD553462146179A039800F005
:104AE00095F9054404E030205246179990476D1C13
:104AF0000099481E00900029F5DC08E00298029910
:104B000052460078491C0291179990476D1CBBF1E1
:104B10000001ABF1010BF1DC5BE100F065F905444C
:104B2000761C307800287FF40DAE19B02846BDE819
:104B3000F08F000009280100303132333435363728
:104B400038396162636465660000000030313233D9
:104B50003435363738394142434445460000000079
:104B6000600700D4062708F1070020F00700F0E8EE
:104B70000223804603F0004C5FEA0C0001D097A0AE
:104B800009E0200501D596A005E0E00701D095A039
:104B900001E0AFF24C001390307823F00043652819
:104BA0000CD006DC452809D046281DD047287FD1E7
:104BB0003BE0662818D067287AD136E00021112F13
:104BC00001DB112000E0781CCDE9000104A90CA84C
:104BD000FFF7CCFCDDE90D010C9A4FF0000B07F15B
:104BE0000109109200914EE04FF000400097CDE98E
:104BF000011004A90CA8FFF7B9FCDDE90D020C9B1C
:104C00000F994FF0000B91461093009211B9791C47
:104C100000EB0109B7EB090003D4C0F1FF3B07F13A
:104C20000109A9EB0700019042E0012F00DA0127FA
:104C30000021112F01DD112000E03846CDE90001EF
:104C400004A90CA8FFF792FCDDE90D010C9A009174
:104C50004FF0000BB946109221070FD4009A4A4535
:104C600003DA914601E0A9F10109B9F1010F05DD6F
:104C7000109AA9F10101515C3029F4D0B84202DA4E
:104C800010F1040F03DA0121CDE9011010E0002832
:104C900003DC8344A9EB000102E0411C494500DD2F
:104CA0008946A0EB0B00401C01904FF000400290A1
:104CB000200705D40198484502DB4FF0FF300190F2
:104CC00000208DF84B0002980DF14B07B0F1004F1A
:104CD00025D002200C902B200D90029800280CDA91
:104CE000404202902D200D9007E00A210298FBF728
:104CF0001CFC3031029007F8011D0C99481E0C90E5
:104D00000029F2DC02980028EFD1791E0D98087076
:104D1000307800F0200040F0450007F8020D11A89F
:104D2000C01BC01D02901398007800B1012000EB59
:104D30000901019801EBE071029801440398401ABF
:104D4000401E0390E00306D453462146179A039869
:104D500000F05CF805441398007818B15246179992
:104D600090476D1CE00323D553462146179A0398BC
:104D700000F04CF805441BE0BBF1000F07DB009886
:104D8000584504DD1098179910F80B0001E01799A9
:104D900030205246904701980BF1010B401E05F15F
:104DA0000105019004D12E205246179990476D1CA1
:104DB000B9F10001A9F10109DEDC05E017F8010BEA
:104DC0005246179990476D1C0299481E029000297F
:104DD000F4DC53462146179A03989EE62D00000006
:104DE0002B000000200000002DE9F04104460025C2
:104DF0001E461746880404D405E039462020B047F3
:104E00006D1C641EF9D52846BDE8F0812DE9F041FE
:104E1000044600251E469046C80301D5302700E011
:104E20002027880404D505E041463846B0476D1C6C
:104E3000641EF9D52846BDE8F081000010B504468F
:104E40000420FDF713FC0148046010BD1800002089
:104E50004FF47A71484300F001B8000070B54FF08C
:104E6000E024002265690949A36909684843A169EA
:104E70009942FCD002D2A3EB010302E0A5EB0106AC
:104E800033441A440B468242F1D370BD180000200F
:104E900004490A685206FCD5024AC1B20C321160BC
:104EA000704700001C4800401CB5FCF755FEFEF79B
:104EB00069FDFEF73BFCFEF7F1FBFEF789FCFEF710
:104EC00079FBFEF7BFFBFEF791FBFEF705FCFEF753
:104ED0001FFDA020FFF7B2FFFBF768FD4FF47A70CB
:104EE000FFF7B6FF234941F63F7008602149401E95
:104EF000143108602048FDF7CFFD0C211E48FEF755
:104F00008BF800211C48FEF787F804211A48FEF7A9
:104F100083F808211848FEF77FF800211648FDF7AE
:104F2000CFFC04211448FDF7CBFC08211248FDF703
:104F3000C7FC124C4FF49677A068606000EE100A30
:104F4000FFF7FCFA84ED000A3846FCF7D9F920682F
:104F5000FBF7BCFA05460E466068FBF7B7FA41EC72
:104F6000100BCDE9005653EC102B05A0FFF71EFAED
:104F7000E2E700002C2C014008020020080000207D
:104F80006D5F616E676C653A2025662C20655F61F8
:104F90006E676C653A2025660D0A00000001020369
:104FA00004050607080C1014182030400100020008
:104FB0000400060008000A000C0010002000400059
:104FC0008000000101010103070100000804020440
:104FD00008010101000000000000000001020304BC
:104FE0000607080900000000010203040C50000835
:104FF0000000002034000000104500084050000868
:10500000340000205C070000204500080000803FBD
:10501000000000410000000000000000000000004F
:10502000000000000000000010000000010000006F
:10503000000000000024F400000000000000000058
:04000005080001D915
:00000001FF
