:020000040800F2
:1000000028090020F101000837540008594D000864
:1000100035540008CD0A0008C9600008000000003F
:100020000000000000000000000000001D55000856
:100030008B0B0008000000001B550008F955000854
:100040000B0200080B0200080B0200080B0200085C
:100050000B0200080B0200080B0200080B0200084C
:100060000B0200080B0200080B020008DD0A000862
:100070000B0200080B0200080B0200080B0200082C
:100080000B02000800000000CD0900080B02000868
:100090000B020008B10B00080B0200080B0200085D
:1000A00095560008AD5600080B020008A15600083E
:1000B0000B0200080B020008B95600080B020008EA
:1000C0000B0200080B0200080B0200080B020008DC
:1000D0000B0200080B0200080B020008BD600008BC
:1000E0008D0B00080B0200080B0200080B02000831
:1000F0000B0200080B0200080B02000800000000C1
:10010000000000000B020008000000000B020008C5
:100110000B020008000000000B0200080B020008A0
:100120000B0200080B0200080B0200080B0200087B
:100130000B02000800000000000000000B02000895
:10014000D10A00080B0200080000000000000000B7
:10015000000000000000000000000000000000009F
:100160000000000000000000000000000B0200087A
:100170000B0200080000000000000000000000006A
:10018000000000000B02000800000000000000005A
:10019000000000000000000000000000000000005F
:1001A00000000000000000000B0200080B02000825
:1001B0000B0200080B0200080B0200080000000000
:1001C000000000000B02000800000000000000001A
:1001D0000B0200080B020008DFF810D000F0FAF95B
:1001E00000480047BD680008AFF3008028090020E0
:1001F0000648804706480047FEE7FEE7FEE7FEE7C1
:10020000FEE7FEE7FEE7FEE7FEE7FEE785560008AD
:10021000D90100082DE9F05F0546002092469B4673
:1002200088460646814640241BE02846414647460C
:10023000224600F082F853465A46C01A914110D324
:1002400011461846224600F069F82D1A67EB01089E
:100250004F4622460120002100F060F817EB00090C
:100260004E41201EA4F10104DFDC484631462A46F7
:100270004346BDE8F09F40EA01039B0703D009E035
:1002800008C9121F08C0042AFAD203E011F8013B82
:1002900000F8013B521EF9D27047D2B201E000F8DB
:1002A000012B491EFBD270470022F6E710B513461A
:1002B0000A4604461946FFF7F0FF204610BD00F03D
:1002C000004230F000400AD0C10D01F56071C0F36A
:1002D000160042EA0151C20840071143704700204E
:1002E0000146704701F0004330B421F0004150EA6C
:1002F000010206D00A0DA2F56072C1F31301002AB3
:1003000002DC30BC00207047440F44EAC104C10045
:10031000E01830BC00EBC25000F01FB8202A04DB0C
:10032000203A00FA02F1002070479140C2F1200308
:1003300020FA03F3194390407047202A04DB203A47
:1003400021FA02F00021704721FA02F3D040C2F1F5
:10035000200291400843194670470029A8BF704702
:10036000401C490008BF20F00100704710B4B0FAEB
:1003700080FC00FA0CF050EA010404BF10BC704786
:1003800049B1CCF1200421FA04F411FA0CF118BFA0
:10039000012121430843A3EB0C01CB1D4FEA00616F
:1003A0004FEA102042BF002010BC704700EBC35042
:1003B00010440029A4BF10BC7047401C490008BF6E
:1003C00020F0010010BC70472DE9FE4F804681EA05
:1003D0000300C00F0C46009021F0004123F00045BF
:1003E000B8EB0200A94105D24046214690461C4682
:1003F0000B46024623F00040104347D0270DC7F3B9
:100400000A00C3F30A510290401A019040286BDAA7
:10041000C3F3130040F4801B0098924620B10023E0
:10042000D2EB030A63EB0B0B01985946C0F1400273
:100430005046FFF773FF06460D4650465946019A4F
:1004400000F0DAF810EB08006141002487EA11524D
:1004500084EAE7731A4340D0009A62B3019A012AF2
:100460004FEA075215DC001B61EB02014FF000421E
:1004700002EA0752CDE90042001C41F580113246E4
:100480002B4600F0DAF803B0BDE8F08F4046214675
:10049000F9E7001B61EB0201001C41F58013001815
:1004A0005B412018A2F5001747EB030140EAD57025
:1004B000B6196D4111E06D084FEA360645EAC07580
:1004C0004FEA0752001B61EB0201001C41F580114D
:1004D00049084FEA30000019514132462B4603B01B
:1004E000BDE8F04F00F09AB80098012240000023C8
:1004F000D0EB020263EBE073009821464FEAE07410
:10050000B8EB000061EB0401E9E783F000435BE72F
:1005100081F0004158E72DE9FE4FC3F30A5701F07F
:1005200000450024C1F30A56C3F31303C1F31301BA
:1005300043F4801312EB020AA64641F480110095A1
:1005400043EB030CA7F1010B16E0B0EB0A0061EBE3
:100550000C01071E71F1000707DA4FF00008D0EB1D
:10056000080085F0004568EB0101171A73EB0107DD
:10057000EBD3761E001849415E45F6DA50EA0102D7
:1005800009D0CDE900E500221346029600F055F8A7
:1005900003B0BDE8F08F20460099F9E7002801DBA1
:1005A000C0F10040002901DBC1F10041814202D2CB
:1005B0004FF0004004E04FF0005001D14FF0C04038
:1005C0004FEA2062EFF3008162F31F6181F300883C
:1005D00070470000064C074D06E0E06840F001035C
:1005E00094E8070098471034AC42F6D3FFF7F8FDC3
:1005F000E872000808730008202A06DBCB17203AAF
:1006000041FA02F043EAE07306E041FA02F3D04017
:10061000C2F12002914008431946704710B5141EDC
:1006200073F1000408DA401C41F1000192185B41AB
:100630001A4301D120F0010010BD2DE9F04D924682
:100640009B4611B1B1FA81F202E0B0FA80F2203299
:100650009046FFF763FE04460F4640EA0A0041EA6F
:100660000B0153465A46084313D0114653EA010082
:1006700019D0C8F140025046FFF75FFE05460E460E
:10068000504659464246FFF749FE084305D001202F
:1006900004E020463946BDE8F08D0020054346EAD7
:1006A000E0762C4337430A986305E40AA0EB080080
:1006B0000022FD0A44EA47540A3002D500200146D0
:1006C000E9E7010510196941DDE9084500196941AB
:1006D000BDE8F04DA2E72DE9F04D81EA030404F0F6
:1006E000004B21F0004514464FF0000A23F0004172
:1006F00050EA050220D054EA01021DD0C5F30A5782
:100700000246C5F31303C1F31300C1F30A5640F4C4
:10071000801543F48013A7EB0608101BD64608F299
:10072000FD3873EB050002D308F1010801E09218CF
:100730005B41B8F1000F03DA00200146BDE8F08DFF
:1007400000204FF48011064684460EE0171B73EB21
:10075000050705D3121B63EB050306434CEA010CA6
:1007600049084FEA300092185B4150EA0107EDD189
:1007700052EA030012D082EA040083EA050108432A
:1007800005D0101BAB4106D20122002306E0002257
:100790004FF0004302E06FF0010253101AEB060025
:1007A0004CEB085110EB0A0041EB0B01BDE8F04D9A
:1007B000FFF734BF9FED241AB5EE002A46F6E42376
:1007C0000021B7EE004AC0F6000320EE010A30EE29
:1007D000020ABDEEC01AB5EEC00A11EE100AF1EE23
:1007E00010FA9FED1A1AB8BF013802EE100AB8EEDF
:1007F000C22A30EE420A9FED162A20EE010ABDEE13
:10080000C01A11EE100A30EE021A0246B1EB502F58
:1008100018BF002202EE102A03EB8203B1EB502F27
:1008200018BFB0EE410AB8EE421A93ED002A93EDDC
:10083000013A30EE410A34EE401A20EE030A21EE6E
:10084000021A31EE000A704783F9223E000000448C
:10085000000000C40023B3EB920F1FD093085B424B
:1008600090ED001A013331EE001A81ED001A90ED7F
:10087000011A31EE001A81ED011A90ED021A31EEE3
:10088000001A81ED021A90ED031A00F1100031EE0A
:10089000001A81ED031A01F11001E1D112F00302F7
:1008A00008BF7047524200BF90ED001A013200F1BC
:1008B000040031EE001A81ED001A01F10401F3D1B8
:1008C000704700000023B3EB920F1FD093085B42E8
:1008D00090ED001A013321EE001A81ED001A90ED1F
:1008E000011A21EE001A81ED011A90ED021A21EE93
:1008F000001A81ED021A90ED031A00F1100021EEAA
:10090000001A81ED031A01F11001E1D112F0030286
:1009100008BF7047524200BF90ED001A013200F14B
:10092000040021EE001A81ED001A01F10401F3D157
:10093000704700009FED221A46F6E4230021B7EE2F
:10094000004AC0F6000320EE010ABDEEC01AB5EE63
:10095000C00A11EE100AF1EE10FA9FED1A1AB8BF94
:10096000013802EE100AB8EEC22A30EE420A9FEDBC
:10097000162A20EE010ABDEEC01A11EE100A30EE62
:10098000021A0246B1EB502F18BF002202EE102AC5
:1009900003EB8203B1EB502F18BFB0EE410AB8EE63
:1009A000421A93ED002A93ED013A30EE410A34EEFB
:1009B000401A20EE030A21EE021A31EE000A7047B7
:1009C00083F9223E00000044000000C410B5044832
:1009D00001F0B2F8BDE81040024801F0ADB80000E7
:1009E00044010020B001002070B504460068816811
:1009F0008268C1F3400112F0010F28D039BB816831
:100A000001F00D01012914D18168124A1140891C9D
:100A1000816021680320086002F04CFB054612E06B
:100A200002F048FB401B02280DD920688068C007EF
:100A300009D0E06D40F01000E065206E40F001004C
:100A40002066012070BD20688068C007E8D10020C2
:100A500070BD0000C0FFFF7F70B50446006881686C
:100A600011F0010F2DD18168174A11421AD1816806
:100A7000D5432940491C816002F01CFB06461BE05F
:100A8000816811F0010F03D181682940491C816000
:100A900002F010FB801B02280ED920680068C043BA
:100AA000C00709D0E06D40F01000E065206E40F016
:100AB00001002066012070BD20680168C943C90794
:100AC000DED1002070BD00003F000080FEE7000086
:100AD000014801F04FBB00001C020020014801F05A
:100AE000C8BD0000A80400200D4902688A4201D256
:100AF0000C4901E00B492031D2B21423083AB2FB71
:100B0000F3F2436C02F01F0223F0030319448164E3
:100B100004498031C16401219140016570470000A2
:100B200008040240000802400179074A02EB8102F2
:100B30004265054A4432491E826501F01F020121C7
:100B40009140C16570470000FC08024030B5D0E913
:100B500013456560446D14B1D0E91645656090F8A1
:100B6000444004F01F050124AC40056C6C6004682F
:100B700063608368102B036803D099600068C260CB
:100B800030BD9A600068C16030BD704710B54FF449
:100B9000806002F099F94FF4006002F095F9BDE829
:100BA00010404FF4005002F08FB972B6FEE700001B
:100BB00010B5054801F07DFFBDE81040034B044A25
:100BC0004021014801F0FCBE6802002064000020C2
:100BD0001C01002030B587B000220121124801F02D
:100BE0004EFE002401204FF08045CDE90240CDE9C2
:100BF00000546FF07E40CDE9044069460A4801F098
:100C0000AEFE0A481B21C0E90015E912C0E9024105
:100C10000461446152218461C0E90741024802F045
:100C200035F907B030BD000068020020F800002050
:100C3000F8B500260446009690F858000D460128A5
:100C40000BD0012084F858002046FFF7CDFE0100AC
:100C5000E06D04D040F010002AE00220F8BD20F43E
:100C6000885040F00200E06520688268134B1A400B
:100C700005F080431A4342F000428260104A206827
:100C80000EE0009B5B1C0093934209D3E06D20F0C3
:100C9000020040F01000E06584F858600120F8BDC3
:100CA0008368DB0FEDD1E06D20F0020040F0010021
:100CB000E06584F858600846F8BD0000C0FFFF3FBB
:100CC00002DE0400704700002DE9F84F4FF00008E5
:100CD0000446CDF800800D4694F85820DFF8EC93D8
:100CE000616947464046012A0AD00126F84A84F83D
:100CF000586041B1296A012905D0A36EEBB129E002
:100D00000220BDE8F88F6868092838D1A96A4FF435
:100D1000785041B12B6801F07C0100EA5340084350
:100D2000E96A084302E0296800EA51402168CB6C77
:100D300013400343CB64606621E0C4E91971A96ADA
:100D4000286A31B101F07C01401E0843E96A08437A
:100D500000E0401E29682B79C1F3846103F01F0372
:100D600099400143A06E401EA066636E43EA0103F2
:100D7000636604D12068C16C11401943C1642068C6
:100D800003F0FBFF58B995F8250098B12068C168B9
:100D900095F8262021F4401141EA4251C1602068B3
:100DA00003F0F3FF8246206803F0E7FF5AEA0000F1
:100DB0000DD0FBE095F8260095F82410400540EA98
:100DC00001512068C26822F440121143E6E7A86A84
:100DD00030B1E86A20B195F8250001285ED003E023
:100DE00095F82500012804D02068C16821F0007121
:100DF00003E02068C16841F00071C16095F83000DF
:100E0000012852D02068016921F002010161AA681D
:100E100029682068B2F1004F38D003F0D1FF206874
:100E2000416921F00041416120686969C268C2F3EB
:100E3000C102520091402A69042A44D000EB82008A
:100E40002B68026EDFF88CC203F0F84302EA0C0252
:100E50000B431A4342F00041016620682A69A969E0
:100E600000EB8200026E22F080720A430266297F44
:100E700022682869012923D05FF0000102EB80007D
:100E8000026E22F000720A4302668FE0002203F035
:100E900097FF2068416941F00041C4E7E06D40F0F0
:100EA0002000E0654FF00108A8E7D5E90D100143E7
:100EB0002068026922F4FF7242F002021143A5E7A2
:100EC0004FF00071DAE7002103F04DFF4003206886
:100ED0004FF0000172D003F046FF90FAA0F0B0FA94
:100EE00080F1286842036ED090FAA0F0B0FA80F04A
:100EF000814204D100221146206803F078FF0121CD
:100F0000206803F030FF400320684FF001015DD0FE
:100F100003F029FF90FAA0F0B0FA80F128684203AC
:100F200059D090FAA0F0B0FA80F0814204D10022AA
:100F30000121206803F05BFF0221206803F013FF0A
:100F4000400320684FF0020148D003F00CFF90FAF4
:100F5000A0F0B0FA80F12868420344D090FAA0F0E3
:100F6000B0FA80F0814204D100220221206803F00F
:100F70003EFF0321206803F0F6FE400320684FF097
:100F8000030133D003F0EFFE90FAA0F0B0FA80F145
:100F9000286842032FD090FAA0F0B0FA80F0814286
:100FA00004D100220321206803F021FF206881681A
:100FB00011F0010F22D0B6E000E004E003F0D3FE10
:100FC000C0F384618DE7C0F3846091E703F0CBFE4A
:100FD000C0F38461A2E7C0F38460A6E703F0C3FE18
:100FE000C0F38461B7E7C0F38460BBE703F0BBFEE6
:100FF000C0F38461CCE7C0F38460D0E72A7B296822
:1010000050F8B03FC1F3120C23EA0C0302F0180CA5
:10101000314A22FA0CF20A4013430360E968494559
:101020007ED1286841031CD090FAA0F1B1FA81F179
:10103000491C01F01F0109294FEA403132D800292B
:1010400012D000BF90FAA0F1B1FA81F101F10101D3
:1010500001F01F0106FA01F609D100BFC0F3846157
:1010600009E0C0F38461E3E7C0F38461EEE790FA3E
:10107000A0F1B1FA81F101F1010101F01F0146EA8D
:10108000816102D1C0F3846003E090FAA0F0B0FA6D
:1010900080F000F1010000F01F0000EB400041EA89
:1010A00000513AE000290ED090FAA0F1B1FA81F196
:1010B00001F1010101F01F0106FA01F60ED100BF96
:1010C000C0F384610EE0C0F38461F1E700007F406B
:1010D0000040100400F0FF03FFFF070090FAA0F1AA
:1010E000B1FA81F101F1010101F01F0146EA8161CC
:1010F00002D1C0F3846003E090FAA0F0B0FA80F06F
:1011000000F1010000F01F002B4A00EB400002EB51
:10111000005041EA000141F00071AA68206800E037
:1011200001E003F04DFE25482A68024240D02448E1
:101130008168244B01F0E0719A4202D0224B9A421E
:101140001BD10B0219D42268B2F1A04F30D18268B2
:1011500041F4000122F0E0720A4382601B481C49FE
:101160000068B0FBF1F0801C00EB4000800000E064
:10117000401E00900028FBD11AE0164D164BAA42E3
:1011800007D1CD0105D422689A4211D041F0807177
:1011900009E0124DAA420BD14A0209D422689A42B0
:1011A00006D041F48001826822F0E0720A43826036
:1011B00084F858704046A4E5000020FE0000088036
:1011C00000030050000021C31000C090CC0000209C
:1011D000400D0300000052C700010050000084CB06
:1011E0002DE9F041824988427ED18348814C0568CF
:1011F0002046267843888288C1887D48002E006872
:1012000073D050F8806FB6B22681D5F88050ADB259
:1012100065814068F31A00EE103A80B2A081F8EEC2
:10122000C00A9FED760AAA1A401A60EE800AC4ED41
:10123000040A00EE902AF8EEE00A60EE800AC4ED9F
:10124000050A00EE900AF8EEE00A20EE800A84ED2E
:10125000060AA06D6064E06DA06494ED110A05F0CB
:1012600077FA84ED130AB0EE401AD4ED050A94ED36
:10127000040A05F0CFFA84ED080A94ED131AD4EDB0
:10128000050A94ED040A05F09DFA84ED070AF0EED4
:10129000400A94ED0D0A94ED081A04F1500030EE66
:1012A000410A84ED0A0A94ED0E1A71EE600AC4ED4B
:1012B000090A03F0A4FD84ED0A0A04F1500094ED3C
:1012C000090A03F09CFD84ED090A04F1600094ED25
:1012D0000A0A04F0B1F884ED0C0A04F1600094ED00
:1012E000090A04F0A9F801E05BE05CE084ED0B0A78
:1012F0004348D4ED130AC0ED020AD4ED0C0A80EC89
:10130000020A05F087FB3F483F4A90ED000ABCEE19
:10131000C00A10EE101A116090ED010A121DBCEE09
:10132000C00A10EE101A116090ED020A111DBCEEF9
:10133000C00A10EE100A0860206C401C2064E16BAB
:1013400088422EDB314894ED040A014680ED010A03
:1013500094ED050A242280ED020A94ED060A80ED40
:10136000030A94ED070A80ED040A94ED080A80ED63
:10137000050A9FED270A80ED060A94ED110A80ED1B
:10138000070A94ED120A80ED080A04F18400FEF7C2
:1013900072FF282204F184011E4803F08FFC002014
:1013A0002064BDE8F0816678761CF7B2677050F86B
:1013B000806F2681D5F8805065814068A0813344D4
:1013C0009BB22A44638092B20844A28081B2E18039
:1013D0000A2FE6D3012020700A20B3FBF0F3B2FB02
:1013E000F0F2B1FBF0F06380A280E080D9E700006A
:1013F000440100200C000020B00100200000B43C9B
:101400000805002018050020342C0140D4000020DD
:101410000000000018040020704700002DE9F04192
:1014200004463548806800F01F05206803F0A5FCDD
:1014300008BB2168C868C96C00F0004011F4C07F87
:1014400000D190B194F85800012814D0012084F8FC
:1014500058002046FFF700FB02004FF000030CD0BD
:1014600084F858301046BDE8F081E06D40F020006F
:10147000E0650120F7E70220F5E7E06DC00504D53F
:10148000206E20F00800206600E02366E06D42F246
:101490000101884340F48050E065184F21684FF007
:1014A000A046B94201D1304600E00846884200D04B
:1014B0001DB9E06D20F48010E0656020086084F8BC
:1014C00058302068B84200D00646864209D045B15F
:1014D000062D06D0072D04D0E06D40F48010E065A5
:1014E000C0E7C16811F0007FBCD18168044B19408E
:1014F00041F008018160B5E7000300500001005091
:10150000C0FFFF7F2DE9F04104464548806800F0A8
:101510001F05206803F031FC08BB2168C868C96C4E
:1015200000F0004011F4C07F00D190B194F8580051
:10153000012814D0012084F858002046FFF78CFAC7
:1015400001004FF000020CD084F858200846BDE896
:10155000F081E06D40F02000E0650120F7E7022017
:10156000F5E7E06DC00504D5206E20F00800206688
:1015700000E02266E06D42F20103984340F480509F
:10158000E065284B20684FF0A046984201D13746CD
:1015900000E00746874200D01DB9E76D27F48017A9
:1015A000E7656027076084F858202068C2689202C7
:1015B00003D5426842F480624260A069082820682E
:1015C000426807D022F0400242602068426842F040
:1015D000200206E022F0200242602068426842F0C9
:1015E000400242602068984201D1324600E0024643
:1015F000824209D045B1062D06D0072D04D0E06DFA
:1016000040F48010E065A1E7C26812F0007F9DD130
:101610008268054B1A4042F00802826096E700009B
:101620000003005000010050C0FFFF7F704770476B
:101630002DE9F047044690F858009CB00E464FF054
:101640000009012815D0012084F8580000251795BD
:10165000189520684FF0A04840450ED1284F0097BC
:10166000384603F092FB8246206803F08EFB60B19F
:101670000EE002201CB0BDE8F087E06D40F02000D5
:10168000E06584F858500120F4E7BAF1000F09D062
:10169000E06D40F02000E0654FF0010984F85850FB
:1016A0004846E7E71748326840F61F71002A82680B
:1016B00022F4604216D094F8383042EA433273681C
:1016C0001A438260D8F80820BB6802F0010203F0D8
:1016D00001031A43E2D1B36832681A4383688B432B
:1016E0001A430BE08260D8F80820BB6802F00102C0
:1016F00003F001031A43D1D182688A438260CDE7A7
:1017000000010050000300502DE9F84F0027044667
:10171000009790F85800DFF8E0930D46B84601288E
:1017200011D0012684F85860206803F02AFB60B1CC
:10173000E06D40F02000E0655FF0010784F858801C
:101740003846BDE8F88F0220FBE7D5E900210C23DD
:10175000206803EA91131844036B01F01F014FF056
:101760001F0C0CFA01FCC2F3846223EA0C038A40CA
:1017700013430363206803F004FB8246206803F0F0
:10178000F8FA5AEA00003CD1AA6829682068B2F148
:10179000004F37D003F005FB2068416921F000417C
:1017A000416120686969C268C2F3C1025200914078
:1017B0002A69042A31D000EB82002B68026EDFF820
:1017C0003CC303F0F84302EA0C020B431A4342F015
:1017D0000041016620682A69A96900EB8200026E57
:1017E00022F080720A430266297F22682869012953
:1017F00010D0002102EB8000026E22F000720A433A
:1018000002667DE0002203F0CCFA2068416941F0D5
:101810000041C5E74FF00071ECE7002103F09DFAAD
:10182000400320684FF0000172D003F096FA90FA5E
:10183000A0F0B0FA80F1286842036ED090FAA0F0D0
:10184000B0FA80F0814204D100221146206803F0F2
:10185000C6FA0121206803F080FA400320684FF0A7
:1018600001015DD003F079FA90FAA0F0B0FA80F1AE
:101870002868420359D090FAA0F0B0FA80F0814273
:1018800004D100220121206803F0A9FA0221206876
:1018900003F063FA400320684FF0020148D003F0E0
:1018A0005CFA90FAA0F0B0FA80F12868420344D0C4
:1018B00090FAA0F0B0FA80F0814204D10022022117
:1018C000206803F08CFA0321206803F046FA4003F5
:1018D00020684FF0030133D003F03FFA90FAA0F0F4
:1018E000B0FA80F1286842032FD090FAA0F0B0FA45
:1018F00080F0814204D100220321206803F06FFAB6
:101900002068816811F0010F22D0ACE000E004E013
:1019100003F023FAC0F384618DE7C0F3846091E79C
:1019200003F01BFAC0F38461A2E7C0F38460A6E76A
:1019300003F013FAC0F38461B7E7C0F38460BBE738
:1019400003F00BFAC0F38461CCE7C0F38460D0E706
:101950002A7B296850F8B03FC1F3120C23EA0C032C
:1019600002F0180C664A22FA0CF20A401343036094
:10197000E968494577D1286841031CD090FAA0F165
:10198000B1FA81F1491C01F01F0109294FEA4031E8
:1019900032D8002912D000BF90FAA0F1B1FA81F13B
:1019A00001F1010101F01F0106FA01F609D100BFA2
:1019B000C0F3846109E0C0F38461E3E7C0F38461AC
:1019C000EEE790FAA0F1B1FA81F101F1010101F025
:1019D0001F0146EA816102D1C0F3846003E090FAFE
:1019E000A0F0B0FA80F000F1010000F01F0000EB61
:1019F000400041EA005132E000290ED090FAA0F1F7
:101A0000B1FA81F101F1010101F01F0106FA01F6BD
:101A100006D100BFC0F3846106E0C0F38461F1E742
:101A200090FAA0F1B1FA81F101F1010101F01F0179
:101A300046EA816102D1C0F3846003E090FAA0F02D
:101A4000B0FA80F000F1010000F01F002D4A00EB19
:101A5000400002EB005041EA000141F00071AA6829
:101A6000206803F09EF928482A6802423FF466AED7
:101A700026488168264B01F0E0719A4202D0254B3E
:101A80009A421CD10B021AD42268B2F1A04F7FF403
:101A900055AE826841F4000122F0E0720A43826090
:101AA0001D481E490068B0FBF1F0401C00EB4000EF
:101AB000800000E0401E00900028FBD13EE6184D5B
:101AC000184BAA4207D1CD0105D422689A42F5D01D
:101AD00041F0807109E0144DAA42EFD14A02EDD4E1
:101AE00022689A42EAD041F48001826822F0E072D2
:101AF0000A43826022E6000000007F4000F0FF03FE
:101B0000FFFF0700000020FE0000088000030050D7
:101B1000000021C31000C090CC000020400D030045
:101B2000000052C700010050000084CB704770478E
:101B30000068006C704700002DE9F05F0446006803
:101B400006684568DFF854B2DBF8080000F01F07AC
:101B5000B0070ED5A8070CD5E06DC00603D4E06D24
:101B600040F40060E0652046FFF7ACF821680220F1
:101B70000860DFF82CA270074FF0A04801D5680775
:101B800003D4300737D5280735D5E06DC00603D418
:101B9000E06D40F40070E065206803F0FAF820B3CF
:101BA0002068504501D1424600E00246824208D0FA
:101BB0003FB1052F05D0092F03D0504503D1414631
:101BC00002E0C16801E00146C96889040DD40168DA
:101BD00009070AD503F0D5F858B3E06D40F01000BE
:101BE000E065206E40F0010020662046FFF79EFF72
:101BF00021680C200860B00601D5A80603D4700641
:101C000058D5680656D5E06DC00603D4E06D40F4A3
:101C10000050E0652068C16C11F4C07F1AD000212B
:101C2000894603F0B6F802462068504514D1434671
:101C300013E02068416821F00C014160E06D20F460
:101C40008070E065E06DC004CFD4E06D40F001002D
:101C5000E065CAE70121E3E70346834208D03FB1CC
:101C6000062F05D0072F03D0504503D1414602E08F
:101C7000C16801E00146C968B9F1000F14D08B01B9
:101C800002D58AB18A040FD4026852060CD58902A3
:101C90000AD403F06EF8E8B3E06D40F01000E065A0
:101CA000206E40F0010020662046FFF799FA216877
:101CB0006020086030060BD5280609D5E06D40F499
:101CC0008030E065204600F06BF9216880200860D4
:101CD000F0050CD5E8050AD5E06D40F40030E0656C
:101CE0002046FFF7A3FC21684FF480700860B00520
:101CF0000CD5A8050AD5E06D40F48020E0652046AB
:101D0000FFF795FC21684FF400700860F0062ED5AF
:101D1000E80600E008E02AD5E06BD0B1AFB1DBF80F
:101D2000080000F4604013E02068416821F0600181
:101D30004160E06D20F48050E065E06DC005B3D4F3
:101D4000E06D40F00100E065AEE72068C068C007C4
:101D500050B1E06D40F48060E065206E40F002001C
:101D600020662046FFF7E3FE21681020086070051A
:101D700012D5680510D5E06D40F48040E065206E16
:101D800040F00800206621684FF48060086020461B
:101D9000BDE8F05FFFF740BBBDE8F09F00030050D7
:101DA00000010050F8B54FF0000504002E460095E4
:101DB00002D0E06D10B107E00120F8BD204600F030
:101DC000F1F8266684F8586020688168C1F3407194
:101DD00019B181686A4A1140816020688168C1F345
:101DE000007189B98168674A114041F08051816072
:101DF000654866490068B0FBF1F04000801C00E0D7
:101E0000401E00900028FBD120688168C1F300715A
:101E100041B9E16D41F01001E165216E41F0010130
:101E20002166012502F0ADFFE16DC90600D430B195
:101E3000E06D40F01000E06501252846F8BDE06D3A
:101E400020F4807040F00200E0652068806810F0A7
:101E5000010F11D14FF0A04080684D4900F0010002
:101E6000896801F00101084306D14A486168826827
:101E700022F47C120A438260E168E06B627F0843CF
:101E8000A16841EA4231084394F8241040EA014035
:101E9000012904D1218D404A02EB41410843E16A06
:101EA00029B101F47871226B014342EA01002168F3
:101EB000CA683A4B1A400243CA6020680169626BE3
:101EC00021F0406111430161206802F05AFF06468B
:101ED000206802F04EFF30432ED1207F94F8381056
:101EE000800340EA41022068C16844F2020399433A
:101EF0001143C16020690028206801690AD041F4BB
:101F000080310161206850F8C01F22696FF30D0114
:101F1000114307E021F480310161206850F8C01FAF
:101F20006FF30D01016094F8400001280CD0206887
:101F3000016921F001010161606901282068016BDC
:101F400021F00F0111D013E0D4E911010843D4E9C5
:101F500013121143084321680A6940F2FC739A4343
:101F6000104340F001000861E6E7226A521E114367
:101F70000163E06D20F0020040F00100E0655CE7E5
:101F8000C0FFFF5FC0FFFF7FCC000020400D0300BB
:101F900000010050000300500000FEFF0740F0FF6A
:101FA00070470000F0B587B0044614216846FEF77C
:101FB0007BF92F4B266800241A6803252D49521CF3
:101FC0004FF09040B6F1A04F06D02B4FBE424CD1FF
:101FD0001A60012A2AD031E01A60012A07D1CA6C9E
:101FE00042F40052CA64CA6C02F400520592CA6CF0
:101FF00042F00102CA64CA6C02F001020592CA6C86
:1020000042F00202CA64C96C029401F00201059117
:102010000421CDE90015694600F062FF41F202009B
:10202000CDE9000569460294144814E0CA6C42F4F4
:102030000052CA64CA6C02F400520592CA6C42F0A3
:102040000102CA64C96C029401F0010105914121A9
:10205000CDE90015694600F043FF00221146122029
:1020600001F08EF8122001F07DF807B0F0BD0000FD
:10207000B800002000100240000100500004004899
:102080002DE9F04104463848806800F01F052068BB
:1020900002F077FE18B102210846BDE8F08194F8FD
:1020A000580001280CD0012084F858002046FEF783
:1020B000D3FC01004FF0000304D084F85830EBE764
:1020C0000220EAE7E06D40F60162904340F4807040
:1020D000E065264A20684FF0A046904201D137467D
:1020E00000E00746874200D01DB9E76D27F480174E
:1020F000E765E76DFF0404D5276E27F0060727661E
:1021000000E023661C27076084F85830206890425E
:1021100001D1334600E00346834215D0A5B1052D19
:1021200012D0092D10D0E36D43F48013E365904283
:1021300000D13046C0688001AED5E06D20F400507B
:1021400040F48050E065A7E7C268920105D5E26DD2
:1021500022F4005242F48052E2658268044B1A4035
:10216000121D826098E7000000030050000100503B
:10217000C0FFFF7F10B50F4A0168914202D14FF4B2
:1021800000110EE00B4A121D914202D14FF4800162
:1021900007E0084A0832914201D1890601E04FF078
:1021A0008041054A136831EA030302D1116000F04F
:1021B000C3F810BD0002014014040140F8B504004A
:1021C0004FF000000546009003D0216809680029FF
:1021D00001DA012574E0617F21B920772062204671
:1021E00000F07CF821680868E66800F40002D4E991
:1021F00001301843636933431843236918430B685C
:10220000304E334003430B602068016809020DD54E
:1022100062B92D492D4A0968B1FBF2F101EB810148
:10222000890000E0491E00910029FBD1284988421D
:1022300002D14FF400110EE02549091D884202D158
:102240004FF4800107E022490831884201D181061C
:1022500001E04FF08041A3691E489E07A0F10402EF
:1022600028D0DE0600F104031E6801D50E4300E00D
:102270008E431E60237E9E06174B1E6801D50E43BB
:1022800000E08E431E60144B08331960237E9B07C9
:10229000036801D50B4300E08B430360207EC00739
:1022A00002D01068084301E0106888431060607F26
:1022B00020B105E003688B430360F5E701206077F8
:1022C0002846F8BD0F7E00FFCC000020400D030023
:1022D00000020140040401400C04014010B586B026
:1022E000044614216846FDF7DFFF10492068884244
:1022F0001AD10F48C16C41F00201C164C06C69463B
:1023000000F00200059002200090032001900020C0
:102310000290084800F0E4FD00221146402000F041
:102320002FFF402000F01EFF06B010BD000201404C
:102330000010024000040048704700002DE9F047FB
:102340000446407990460D4601280BD04FF0010914
:1023500084F8059002202071A96808F0100604296D
:1023600003D045E00220BDE8F08700F0A3FE074659
:102370005FEA08004FF0030805D01CE000F09AFE69
:10238000C01B01280FD82068406B0004F6D4012040
:1023900000F072FA2168686A086416E000F08AFEAC
:1023A000C01B012807D9206940F00800206184F88B
:1023B00004800320D7E72068406B0028EEDB012073
:1023C00000F05AFA2168686A48642068816C40F21B
:1023D000FF32B2409143AA6AB2401143816420683F
:1023E000C16CFF22B2409143EA6AB2401143C1641A
:1023F000E869012808D12268916B1F20B040814311
:10240000286AB040084390632068C06B0721B14040
:102410008843A969012903D0022955D06969E9B324
:1024200000216B69AA681A430A434FF4807101FACC
:1024300006F398432B79012B00D0002111434FF470
:10244000007202FA06F398436B79012B00D0002248
:1024500020F44047286842EA0108022836D00743A2
:10246000216808FA06F03843C863206801684FF411
:102470008042B240914301602268116840F6FE70CC
:10248000B0408143E868B0400843106020680168AC
:10249000C022B24091430160287B00E014E0297C17
:1024A0002268C0F3830001F03C0140EA8110116E04
:1024B00040F60F73B3409943B0400143116684F86E
:1024C0000490002060714EE70121AAE701F0FCF9B9
:1024D0000549884202D947F40047C1E703498842C9
:1024E000BED947F48047BBE70068890900B4C4043B
:1024F00070B5040003D02079002510B105E001205B
:1025000070BD6571204600F007F80220207125613A
:1025100001202071002070BD10B586B00446142142
:102520006846FDF7C1FE174A2168174891421CD141
:10253000C16C41F48031C164C16C01F480310591FA
:10254000C16C41F00101C164C06C694600F001003A
:1025500005901020009003200190002002904FF081
:10256000904000F0BDFC06B010BD084A9142FAD17F
:10257000C16C41F48021C164C06C00F480200590DE
:10258000F1E7000000080050001002400010005069
:1025900010B590F8253000210122022B03D0042130
:1025A000C163012122E003681C6824F00E041C6052
:1025B000836C1C6824F480741C6003681C6824F01D
:1025C00001041C6090F84430046C03F01F0302FA0D
:1025D00003F36360D0E913345C60436D33B11C686E
:1025E00024F480741C60D0E916345C6080F82520E7
:1025F000002280F82420084610BD70B590F82520F0
:10260000002401212346022A07D00422C26380F855
:10261000251080F82430012429E00268156825F08F
:102620000E0515600268156825F001051560826CBD
:10263000156825F48075156090F84420056C02F04B
:102640001F0201FA02F26A60D0E913255560426D5B
:1026500032B1156825F480751560D0E916255560EE
:1026600080F8251080F82430816B01B1884720461E
:1026700070BDF0B4016C0C6801680D6890F84420DE
:1026800002F01F06042202FA06F3234211D06B0760
:102690000FD50B689B0603D40B6823F004030B6073
:1026A00090F8441001F01F018A40016C4A60016BF0
:1026B0001DE0022303FA06F727424FF0000C4FF00B
:1026C000010218D0AF0716D50C68A40605D40C6813
:1026D00024F00A040C6080F8252090F8441001F0E2
:1026E0001F018B40016C4B6080F824C0C16A002937
:1026F0001AD0F0BC08470823B340234214D02B075C
:1027000012D50B6823F00E030B6090F84410036C95
:1027100001F01F0102FA01F15960C26380F825201F
:1027200080F824C0416BE2E7F0BC704770B504004C
:102730000CD02B4A21681420914209D2294A0A441C
:10274000B2FBF0F08000606427480AE0012070BD11
:10275000234A52420A44B2FBF0F0800060642048F1
:1027600008382064022084F825000A6847F6F070D3
:102770008243D4E902031843D4E904352B431843B8
:10278000A3691843E3691843236A18431043086098
:102790002046FEF7A9F9A0680025B0F5804F00D1CA
:1027A0006560A16C20790860D4E91301416060681C
:1027B000401E032808D82046FEF7B6F9606D056074
:1027C000D4E91601416002E06565A565E565E5634C
:1027D000012084F8250084F82450002070BD0000FA
:1027E00008040240F8FFFDBF0000024070B5044637
:1027F00090F82400002501280CD0012084F8240042
:1028000094F825600020012E06D084F824000225CB
:10281000284670BD022070BD022684F82560E06362
:102820002068066826F0010606602046FEF78EF94D
:10283000206B00282068016802D041F00E0106E0FC
:1028400021F0040101602068016841F00A01016083
:10285000A06C0168C90303D5016841F4807101606F
:10286000606D18B1016841F48071016020680168F1
:1028700041F001010160CBE780B203F0FFBF30B54A
:1028800090F85C30012B07D0022B05D0016E41F08F
:1028900002010166012030BD0468A36D4D0701D01F
:1028A000DD071DD011F0380F01D09D0718D511F4A8
:1028B000E07F01D05D0713D511F4F05F01D01D0753
:1028C0000ED511F4604F01D0DD0609D511F4403F5B
:1028D00001D09D0604D511F47C0F05D05D0603D40C
:1028E000E56D45F00105E5654C0701D0DC071DD11C
:1028F00011F0380F01D09C0718D411F4E07F01D0FB
:102900005C0713D411F4F05F01D01C070ED411F44E
:10291000604F01D0DC0609D411F4403F01D09C0681
:1029200004D411F47C0F06D05B0604D50368DC6D7B
:1029300044F00204DC650B0604D5036853F8DC4F51
:1029400014431C60CB0504D5036853F8E04F1443CF
:102950001C600068426D0A434265002030BD10B51E
:1029600090F85C20012A07D0022A05D0016E41F0C0
:1029700002010166012010BD0A687AB10B7B0A6969
:102980000C7A42EA43734A69406C496842EA8472AD
:1029900000EBC100C0E90032002010BD0B7A4A698B
:1029A0000C8A42EA83720B7B006CDB06496843EABF
:1029B00004431A4340F82120EEE7704770470000B7
:1029C000F0B590F85C40022C03D0016E41F0080194
:1029D0004DE0046840293DD0D4F898502D0743D0ED
:1029E000D4F89840C4F30126D0F84C4006EBC60555
:1029F00004EBC504256815F080455560256839D07D
:102A000025F0604515602568284F05F00055956054
:102A100020CC05F00045156134F8045BADB2D561FA
:102A200054F8045C05F47025D56054F8045C05F492
:102A30008015556154F8045C05F40015956154F84F
:102A4000045CC5F30665156254F8045CED0F55622D
:102A5000002518E0D4F890502D0705D0D4F8904008
:102A6000C4F30126846CC1E7016E41F480710166F4
:102A70000120F0BDC5F38A45C4E700BF14F805C0C6
:102A800003F805C06D1CD2F80CC007EB1C4C9CF879
:102A900000C0AC45F2D80068402903D0C0F89C6063
:102AA0000020F0BDC0F89460FAE70000686A0008F2
:102AB00070472DE9F04704460068016D466D01F44A
:102AC000E0510E40016D476D01F007010F40016DAF
:102AD000426D01F0380102EA0108016D456D01F413
:102AE00071010D40016D426D01F4602102EA01099E
:102AF000016D490607D5416D490604D540210165A0
:102B00002046FFF7D5FF2068016DC9050DD5416D41
:102B1000C9050AD5D0F8D820D0F8E01011404FF4FC
:102B200080720265204600F0C9F92EB12068066562
:102B30003146204600F0C4F92FB1206807653946B8
:102B4000204600F0A1F9B8F1000005D02168086521
:102B50004146204600F099F92068016D890508D5A5
:102B6000416D890505D54FF400710165204600F0DF
:102B7000A8F92068016D09060CD5416D090609D533
:102B8000D0F8D420D0F8DC10114080220265204615
:102B900000F095F92068016D890408D5416D89041C
:102BA00005D54FF400510165204600F086F92068F4
:102BB000016D090408D5416D090405D54FF40041A4
:102BC0000165204600F078F92068016D490409D5B7
:102BD000416D490406D54FF480410165206E40F0F7
:102BE00080002066B9F1000005D0216808654946DB
:102BF0002046FFF7E3FE25B120680565206E2843D7
:102C00002066206E002802D02046FFF7D6FEBDE8E1
:102C1000F08700002DE9F041040006D0DFF8E881DC
:102C200094F85C00002518B107E00120BDE8F081B0
:102C300084F85D50204600F0EFF82068816921F0AB
:102C40001001816100F036FA0646032705E000BF57
:102C500000F030FA801B0A2811D82068806900072C
:102C6000F6D42068816941F00101816100F022FA07
:102C700006460BE000F01EFA801B0A2806D9206EDB
:102C800040F00100206684F85C70CEE7206880691F
:102C9000C007EFD02068816941F00201816121689D
:102CA000414502D1594960680860207C01282068AC
:102CB000816937D041F040018161607C0128206842
:102CC000816932D021F480418161A07C0128206893
:102CD00081692DD041F48051816120688169A268A9
:102CE00021F44071114381612068816921F0A401C0
:102CF00081612068016921F010010161E06801280B
:102D000019D010B302281BD02068816941F08001DE
:102D100081612068016941F010010161E0680328C8
:102D20000ED012E021F04001C6E741F48041CBE72C
:102D300021F48051D0E72068816941F0040103E06B
:102D40002068816941F020018161207EE2694006AE
:102D50006FF0FF0101EB0222A0F100701043226A24
:102D6000A38A521E10430A0202EB0343184323684E
:102D7000D861A068B0F5407F10D1D4E90A0301EB17
:102D80000321401E0843216B131303EB0111084379
:102D9000A18C02EB014108432168C860206850F80B
:102DA000C01FE26B1143016019482064216851F88B
:102DB000802FA38E22F4F81242EA03420A601449DB
:102DC00070316164216851F8802F94F8383022F016
:102DD000706242EA03620A600D49B031A1640D4994
:102DE000E1640C49D83121650A49F031616500F58B
:102DF000547120C08842FCD3A5652566012084F863
:102E00005C00002012E70000006400400065004004
:102E100000A4004088A5004010B586B004461421E7
:102E20006846FDF741FA16492068884226D11548C0
:102E3000816D41F000718165816D01F00071059136
:102E4000C16C41F00101C164C06C694600F0010031
:102E500005904FF4C0500090022001900020029095
:102E6000039009200490C00600F03AF800221146B1
:102E7000152000F085F9152000F074F906B010BD9A
:102E800000640040001002407047704790F85C10EA
:102E9000012905D0016E41F004010166012070474F
:102EA000022180F85C1001688A6922F001028A61BF
:102EB00000210166084670477047704770477047A9
:102EC0007047704770470000044910B50A68024215
:102ED00002D00860FFF7F6FF10BD000014040140A7
:102EE0002DE9FC4FDFF8A0A1002301250AF1040B16
:102EF00003244FF00F0C0BF1040EBDE005FA03F6AE
:102F000032406FD04F68012F05D0022F03D0112F10
:102F100001D0122F17D1D0F808905F0004FA07F8FB
:102F200029EA08090097D1F80C8008FA07F848EA5E
:102F30000908C0F808804768B7430E79C6F3001641
:102F40009E403E434660C6684FEA430804FA08F7CD
:102F5000BE4301978F6807FA08F73743C7604E688A
:102F6000022E01D0122E13D1DE0800EB8606009649
:102F7000366A5F07FF0E0CFA07F926EA0906D1F850
:102F8000109009FA07F949EA0609009EC6F8209050
:102F90000668019FBE430F7907F0030707FA08F799
:102FA000374307604E68F60065D5384E376E47F0F8
:102FB00001073766366E23F0030706F00106009618
:102FC000334E3E44B146B6689F074FEA17780CFA75
:102FD00008F7BE43B0F1904F05D02E4FB84204D150
:102FE000012717E047E0002714E02B4FB84201D13A
:102FF00002270FE0294FB84201D103270AE0284FEA
:10300000B84201D1042705E0264FB84201D1052777
:1030100000E0062707FA08F73743C9F80870DAF81E
:1030200000605746D1F8048096435FEAC83800D55F
:1030300016433E60DBF800605F46D1F8048096439B
:103040005FEA883800D516433E60DEF800607746B8
:10305000D1F8048096435FEAC82800D516433E6045
:10306000094F0C373E68D1F8048096435FEA882800
:1030700000D516433E605B1C0A6832FA03F67FF403
:103080003DAFBDE8FC8F000000040140001002408D
:10309000000001400004004800080048000C0048FF
:1030A00000100048001400480AB181617047816235
:1030B000704700000148806870470000C000002091
:1030C000024881684268114481607047C000002056
:1030D00010B50024032000F073F80F2000F008F86A
:1030E00008B1012401E000F025F8204610BD0000E1
:1030F00070B50E4E05460024706898B14FF47A7191
:10310000B1FBF0F00A490968B1FBF0F000F050FEA5
:1031100040B9102D06D200222946501E00F030F88A
:10312000356000E00124204670BD0000C000002092
:10313000CC0000200A4882B0016E41F00101016616
:10314000016E01F001010091816D41F080518165B6
:10315000806D00F08050009002B000F07BB900005C
:1031600000100240002809DB00F01F0201219140FD
:103170004009800000F1E020C0F800117047000015
:10318000F0B40E4B1B680C46C3F30223C3F10705D2
:10319000042D00D90425191D072901D2002300E0C0
:1031A000DB1E012606FA05F1491E214099409E408A
:1031B000761E16403143F0BC02F09ABF0CED00E0E1
:1031C000064900F0070208684FF6FF03184040EA7E
:1031D0000220034A10430860704700000CED00E035
:1031E0000000FA05F8B504004FF0000514D094F87B
:1031F0003A00052810D094F83A0002280CD0344840
:10320000016E41F001010166006E00F001000090C6
:1032100094F83A0010B104E00120F8BD002084F8D1
:103220003900204600F058F8A0682A4A4FF480710F
:10323000402836D0602834D020680368E66A23F03E
:10324000100333430360D4E901031843D4E9033680
:1032500033431843237D012B00D000210843616ACA
:103260000843A16A0843218E40EAC14094F8341013
:1032700040EA016120680368134019430160206837
:103280008169002909DBD4E906121143226A8369A6
:1032900023F03F031A431143816194F83A0090B13F
:1032A00014E020680368E66A23F0100333430360E8
:1032B000D4E901031843267D2369012E00D00021A3
:1032C0000B431843CBE7012084F83A002846F8BDA9
:1032D00000100240113E00E030B587B004461421D2
:1032E0006846FCF7E1FF24681D4D00221D490323B9
:1032F0004FF09040AC4209D1CC6C44F00104CC6456
:10330000C96C01F0010105910E210CE0144D2D1D39
:10331000AC4211D1CC6C44F00104CC64C96C01F016
:1033200001010591E021CDE9001302924FEA0D0160
:10333000FFF7D6FD07B030BD094808308442F9D107
:10334000C86C40F00200C864C86C694600F0020016
:1033500005900720CDE9000302920348E8E700004A
:10336000000301400010024000040048002138B171
:1033700090F83A20052A03D090F83A20012A02D08A
:103380000121084670470268136843F00103136087
:10339000042280F83A20F4E72B492C4B0A683221AA
:1033A0004A432B4940B1B0F5007F086829D020F48A
:1033B000C06040F480602CE00868C0F3412002281F
:1033C00004D051F8800F20F4807022E0D1F8800002
:1033D00020F48070C1F88000086820F4C06040F4D8
:1033E00000700860B2FBF3F0401C00E0401E4A6928
:1033F000520501D50028F9D1486940050AD50320B6
:103400007047C0F34120022806D051F8800F40F4E5
:103410008070086000207047D1F8800040F4807010
:10342000C1F88000086820F4C06040F400700860B3
:10343000B2FBF3F0401C00E0401E4A695205DBD5A8
:103440000028F9D1D8E70000CC00002040420F004E
:10345000007000400248816841F4804181607047FB
:10346000007000402DE9F8430446006800269D4D99
:1034700000035ED5A86D0027C00008D4A86D40F0F9
:103480008050A865A86D012700F080500090DFF8FB
:103490005892D9F8001041F48071C9F80010FFF774
:1034A00009FE804606E000BFFFF704FEA0EB08001F
:1034B00002282BD8D9F80000C005F5D5D5F8900022
:1034C00010F4407014D0216C814211D0D5F89000D6
:1034D000D5F8901020F4407041F48031C5F8901078
:1034E000D5F8901021F48031C5F89010C5F89000FF
:1034F000C00711D0FFF7DEFD804641F2883907E0B2
:10350000FFF7D8FDA0EB0801494501D903260BE0E0
:10351000D5F890008007F3D5D5F89000216C20F401
:1035200040700843C5F890001FB1A86D20F080508E
:10353000A8652078C00707D0D5F88800616820F01A
:1035400003000843C5F888002078800707D5D5F820
:103550008800A16820F00C000843C5F88800207896
:10356000400707D5D5F88800E16820F0300008430F
:10357000C5F888002078000707D5D5F888002169AC
:1035800020F0C0000843C5F888002078800607D5E1
:10359000D5F88800616920F440600843C5F88800C8
:1035A0002078400607D5D5F88800A16920F440505E
:1035B0000843C5F888002078000607D5D5F88800AC
:1035C000E16920F440400843C5F888002088C00520
:1035D00007D5D5F88800216A20F440300843C5F8A3
:1035E00088002088800507D5D5F88800616A20F416
:1035F00040200843C5F88800208840050FD5D5F83D
:103600008800A16A20F440100843C5F88800A06A29
:10361000B0F5801F03D1E86840F48010E86020888E
:1036200000050FD5D5F88800E16A20F44000084372
:10363000C5F88800E06AB0F5800F03D1E86840F46F
:103640008010E8602088C0040FD5D5F88800216B71
:1036500020F040700843C5F88800206BB0F1807FEF
:1036600003D1E86840F48010E86020884FF00061E2
:1036700080040ED5D5F88800626B20F040601043BE
:10368000C5F88800606B884203D1E86840F4801078
:10369000E860208840040ED5D5F88800A26B20F0A1
:1036A00040601043C5F88800A06B884203D1E868E9
:1036B00040F48010E860208800040FD5D5F8880019
:1036C000E16B20F040500843C5F88800E06BB0F192
:1036D000805F03D1E86840F48030E8603046BDE8A0
:1036E000F883000000100240007000402DE9F04710
:1036F0000E4605004FF0000725D0DFF8AC81D8F862
:10370000000000F00F00B0420CD2D8F8001021F0F9
:103710000F013143C8F80010D8F8000000F00F0086
:10372000B04210D12968614CC80741F2883A5AD09A
:103730006868DFF87C91032808D0022820682DD023
:10374000400500282CDB0120BDE8F08720688001BF
:10375000F9D5E06800F00302E068C0F30310401CF4
:10376000032A19D0534A00BFB2FBF0F0E268C2F35B
:1037700006225043E268C2F34162521C5200B0FB81
:10378000F2F0484517D9A06810F0F00F0CD0880768
:1037900011D5A86840B10EE0474AE5E78003D0E7BD
:1037A00000F0BCF8484506D9A06820F0F00040F0D1
:1037B0008000A0608027A068696820F003000843AB
:1037C000A060FFF777FC814606E000BFFFF772FCC0
:1037D000A0EB090151453AD8A068696800F00C00D7
:1037E000B0EB810FF2D12868810714D5400703D5CB
:1037F000A06840F4E060A0602878000705D5A068C4
:1038000020F4605040F4E060A060A068A96820F057
:10381000F000084304E0802F03D1A06820F0F000FE
:10382000A060D8F80010404601F00F01B14216D94F
:10383000016821F00F0131430160FFF73BFC0746AF
:1038400007E000BFFFF736FCC11B514501D903203B
:103850007AE7D8F8000000F00F00B042F2D12878E3
:10386000400705D5A068E96820F4E0600843A0603F
:103870002878000706D5A068296920F4605040EA3E
:10388000C100A06000F04AF8A1680C4AC1F303111E
:10389000515C01F01F01C8400949086009480068EF
:1038A000BDE8F047FFF724BC0020024000100240B2
:1038B00000B4C4040024F40000366E01A06A0008BD
:1038C000CC000020C00000200148006870470000C4
:1038D000CC0000200548064900688968054AC1F304
:1038E0000221515C01F01F01C8407047CC0000204C
:1038F00000100240B06A000805480649006889685F
:10390000054AC1F3C221515C01F01F01C840704754
:10391000CC00002000100240B06A0008184910B521
:103920008868C0F381021748012A0BD08A68164BB9
:10393000C2F38102022A06D08A68C2F38102032AF6
:1039400003D0002010BD184610BDCA6802F0030461
:10395000CA68C2F30312521C032C02D0B0FBF2F06F
:1039600001E0B3FBF2F0CA68C968C2F30622504313
:10397000C1F34161491C4900B0FBF1F010BD0000EA
:10398000001002400024F40000366E012DE9F843D7
:1039900004007AD02078FA4DC00747D0A868E968BB
:1039A00000F00C0001F003010C2802D0082817D009
:1039B00001E0032914D06068B0F5803F17D0B0F55E
:1039C000A02F286817D020F480302860286820F4C1
:1039D000802028606068E0B1FFF76CFB064614E0C9
:1039E0002868800322D560680028D2D01EE02868AD
:1039F00040F48030EDE740F480202860F7E700BF16
:103A0000FFF758FB801B642870D828688003F7D51F
:103A10000CE0FFF74FFB064605E000BFFFF74AFB4F
:103A2000801B6428F0D828688003F7D420788007AA
:103A30004CD5A868E96800F00C0001F003010C28DF
:103A400002D004280DD001E002290AD0E068002845
:103A500028682BD040F480702860FFF72BFB0646C7
:103A600019E02868400502D5E068002891D0686810
:103A7000217C20F0FE4040EA01606860C148006897
:103A8000FFF736FB002800D120E076E1FFF712FBBC
:103A9000801B0228B8D828684005F7D56868217CC3
:103AA00020F0FE4040EA016068600FE020F4807082
:103AB0002860FFF7FFFA064605E000BFFFF7FAFAB5
:103AC000801B0228A0D828684005F7D4207800077A
:103AD00029D560690028D5F8940013D040F0010082
:103AE000C5F89400FFF7E6FA064606E090E000BF4E
:103AF000FFF7E0FA801B022886D8D5F894008007EB
:103B0000F6D510E020F00100C5F89400FFF7D2FAD6
:103B1000064604E0FFF7CEFA801B022878D8D5F8D5
:103B200094008007F6D42078400761D5A86D002660
:103B3000C00008D4A86D40F08050A865A86D01268B
:103B400000F08050009090480168C90511D40168C8
:103B5000804641F480710160FFF7ACFA074604E04B
:103B6000FFF7A8FAC01B022852D8D8F80000C005F9
:103B7000F6D5A068012815D00528D5F8900016D0F4
:103B800020F00100C5F89000D5F8900020F0040066
:103B9000C5F89000A06841F28838B8B1FFF78AFAFA
:103BA00007460EE0D5F8900040F00100F0E740F045
:103BB0000400C5F89000F5E7FFF77CFAC11B41450A
:103BC00026D8D5F890008007F6D50CE0FFF772FAFA
:103BD000074604E0FFF76EFAC11B414518D8D5F837
:103BE00090008007F6D41EB1A86D20F08050A86523
:103BF0002078800629D5A0690028D5F8980013D030
:103C000040F00100C5F89800FFF754FA064606E0B8
:103C100077E000BFFFF74EFA801B022877D8D5F86F
:103C200098008007F6D510E020F00100C5F8980054
:103C3000FFF740FA064604E0FFF73CFA801B022833
:103C400065D8D5F898008007F6D4E069F0B3A96884
:103C5000C1F38101032961D00228286820F0807017
:103C600028600BD0E86820F00300E860E868474966
:103C70000840E860FFF71EFA04464BE0FFF71AFA27
:103C8000064604E0FFF716FA801B02283FD8286892
:103C90008001F7D4F4E908016FF00F0202EB011183
:103CA0000843218A5204490802EB4151A26841EAC3
:103CB00002210843217D4FF07E42490802EB416119
:103CC0000843217B40EAC160E96800E062E0304AD5
:103CD00011400843E860286840F080702860E86878
:103CE00040F08070E860FFF7E5F9044605E000BFAA
:103CF000FFF7E0F9001B022809D828688001F7D5F2
:103D000048E004E0FFF7D6F9001B022802D903209F
:103D1000BDE8F88328688001F4D43BE00128F7D09F
:103D2000E868226A00F00301914226D1616A00F03E
:103D3000F0020901103991421FD1A26A00F4FE413C
:103D4000B1EB022F19D194F82C2000F07841B1EB9F
:103D5000C26F12D1218E00F4C00249084905A1F5B5
:103D60000011914209D194F8341000F0C060490864
:103D70004906A1F1007181420CD00120C8E7000082
:103D800000100240C000002000700040FFFFEEFE67
:103D90000C809F010020BBE74FF0E0210428086958
:103DA00003D020F004000861704740F00400FAE7F7
:103DB00010B5401EB0F1807F01D3012010BD4FF03F
:103DC000E02460610F21601702F092F90020A061E9
:103DD00007202061002010BD704770477047000029
:103DE000F0B590F83C20012A4AD0012280F83C200E
:103DF000CA688B6822F440721A434B6822F48062CE
:103E00001A430B6822F400621A430B6922F48052B1
:103E10001A434B6922F400521A430B6B22F480427E
:103E20001A430B8B22F4702242EA0342154C0368BA
:103E30000026154DA34201D0AB4203D1CF6922F039
:103E400080523A43A34201D0AB4214D10F8D22F4E9
:103E5000700242EA07520F6A22F080723A434F6AB8
:103E600022F000723A43A34201D0AB4203D1C96AA7
:103E700022F000520A435A6480F83C600020F0BDF2
:103E80000220F0BD002C014000340140F0B590F854
:103E90003C30012B0BD0012380F83C301368042BFD
:103EA0001ED006DC012B11D0022B06D113E002201C
:103EB000F0BD082B19D0102B1CD000242346264619
:103EC000254601291BD002293AD129E001240026E8
:103ED00063020925F5E70224012663020A25F0E7BB
:103EE0000424022663020B25EBE708240326630261
:103EF0000C25E6E71024042663020D25E1E7D0F83F
:103F000000C0DCF8607051689268B140A74321405E
:103F10003943AA4099431A400A43CCF860200FE085
:103F2000D0F800C0DCF8647051689268B140A743D3
:103F300021403943AA4099431A400A43CCF86420EF
:103F4000002180F83C100846F0BD7047704770476C
:103F5000F0B590F83C20012A3AD0012580F83C5079
:103F6000022280F83D2003685A689C68194E1A4F57
:103F7000B34201D0BB4204D122F4700C4A6842EA39
:103F80000C02DFF858C002EA0C02D1F800C04CEA7B
:103F9000020CC3F804C00268B2420DD0B2F1804FE7
:103FA0000AD00F4B9A4207D00E4B9A4204D0BA4225
:103FB00002D00D4B9A4204D1896824F08003194342
:103FC000916080F83D50002180F83C100846F0BD1B
:103FD0000220F0BD002C0140003401408FFFFFFDA6
:103FE00000040040000800400040014010B50446B5
:103FF000022249B104290ED0082913D094F84700B1
:10400000012816D0012010BD94F844000128F9D1F0
:1040100084F844200FE094F845000128F2D184F898
:10402000452008E094F846000128EBD184F84620AA
:1040300001E084F847200422206801F0A8FB2068F2
:10404000416C41F4004141641049206888420ED01F
:10405000B0F1804F0BD00E49884208D00D498842FC
:1040600005D00D49884202D00C49884207D18168A9
:104070000B4A1140062906D0B1F5803F03D00168F4
:1040800041F001010160002010BD0000002C014042
:10409000000400400008004000340140004001409E
:1040A00007000100704710B5040003D094F83D00EC
:1040B00010B107E0012010BD002084F83C0020462C
:1040C00000F022F8022084F83D00211D206801F054
:1040D000F9FA012084F8480084F83E0084F83F0093
:1040E00084F8400084F8410084F8420084F84300DA
:1040F00084F8440084F8450084F8460084F84700BA
:1041000084F83D00002010BD10B586B0044614218F
:104110006846FCF7C9F8274A2168274891421ED112
:10412000016E41F400610166006E002200F400603F
:10413000059011461820FFF723F81820FFF712F812
:10414000002211461920FFF71BF81920FFF70AF883
:10415000002211461B20FFF713F81B2025E0174A09
:10416000914224D1816D41F004018165816D01F09E
:1041700004010591C16C41F00201C164C06C0021D1
:1041800000F0020005904FF4E07000900220CDE9AD
:104190000101CDE9031069460948FEF7A1FE00229E
:1041A00011461E20FEF7ECFF1E20FEF7DBFF06B0D7
:1041B00010BD0000002C014000100240000800402B
:1041C0000004004890F83D10012901D001207047FB
:1041D000022180F83D1000680F4988420ED0B0F1EE
:1041E000804F0BD00D49884208D00D49884205D038
:1041F0000C49884202D00C49884207D181680B4A99
:104200001140062906D0B1F5803F03D0016841F086
:104210000101016000207047002C014000040040B3
:104220000008004000340140004001400700010048
:1042300070B5044690F83C00012814D0012584F89C
:104240003C50022084F83D0022689068344B1840AE
:1042500020F47F4090600868702827D010DC10F0B0
:104260000F0F03D04AE04FF0020070BD4FEA20125A
:10427000072A43D2DFE802F050505050483139004D
:10428000284BC21A984247D009DCB0F5805F35D080
:10429000B0F5005F15D0B0F1101F2FD13CE0102A0F
:1042A0003AD0202A38D0502A28D135E0CB68D1E93D
:1042B0000121206801F078FA2068816841F07701D7
:1042C00009E0CB68D1E90121206801F06DFA20688E
:1042D000816841F48041816010E0CA6849682068C3
:1042E00001F00CFC5021206806E0CA68496820688B
:1042F00001F015FC6021206801F060FA84F83D505F
:10430000002084F83C0070BDCA684968206801F04C
:10431000F5FB40212068EFE7226801461046EBE7F5
:1043200088FFCEFF20001000704770B5044600687B
:1043300001694FF00005C943890715D4C168C94315
:10434000890711D4E91E0161012020772068806966
:104350008007204602D0FFF7E7FF04E000F02EF9C7
:10436000204600F0EDF9257720680169C943490727
:1043700017D4C168C943490713D46FF00401016120
:10438000022020772068806910F4407F204602D008
:10439000FFF7CAFF04E000F011F9204600F0D0F961
:1043A000257720680169C943090716D4C168C94344
:1043B000090712D46FF008010161042020772068FA
:1043C000C0698007204602D0FFF7AEFF04E000F08E
:1043D000F5F8204600F0B4F9257720680169C94353
:1043E000C90617D4C168C943C90613D46FF01001B8
:1043F0000161082020772068C06910F4407F2046C2
:1044000002D0FFF791FF04E000F0D8F8204600F05A
:1044100097F9257720680169C943C90708D1C168A0
:10442000C943C90704D1891E0161204600F008FA7A
:1044300020680169C943090609D4C168C94309064E
:1044400005D46FF0800101612046FFF7C6FC2068AB
:104450000169C943C90509D4C168C943090605D41E
:104460006FF4807101612046FFF7B6FC2068016996
:10447000C943490609D4C168C943490605D46FF048
:1044800040010161204600F0DCF920680169C94360
:10449000890609D4C168C943890605D46FF0200193
:1044A00001612046FFF79AFC20680169C943C902EF
:1044B00009D4C168C943C90205D46FF480110161F0
:1044C0002046FFF743FD20680169C943890209D4EA
:1044D000C168C943890205D46FF400110161204607
:1044E000FFF733FD20680169C943490209D4C16857
:1044F000C943490205D46FF4800101612046FFF7EA
:1045000026FD20680169C94309020BD4C168C9436B
:10451000090207D46FF4000101612046BDE8704034
:10452000FFF7C0BD70BD0000F0B587B00446142190
:104530006846FBF7B9FE1E492068884236D11D48FF
:10454000C16C41F00201C164C16C01F0020105912E
:10455000C16C41F00101C164C06C022500F0010092
:1045600005904FF4C04000900024CDE90154062688
:10457000114FCDE9034669463846FEF7B1FCA80362
:104580000090CDE901540420CDE903406946384646
:10459000FEF7A6FC4FF4E0600090CDE90154CDE9B0
:1045A000034669464FF09040FEF79AFC07B0F0BD15
:1045B000002C01400010024000040048704770B514
:1045C000044690F83C000D4601280BD0012084F8E9
:1045D0003C000C2A45D007DC5AB1042A1BD0082A1B
:1045E00078D12CE0022070BD102A4ED0142A71D14F
:1045F0005DE0206801F0ECF82068816941F0080175
:1046000081612068816921F00401816120688169EC
:104610002A69114311E0206801F028F920688169B6
:1046200041F4006181612068816921F480618161C8
:10463000206881692A6941EA022181614AE0206893
:1046400001F05CF92068C16941F00801C16120688E
:10465000C16921F00401C1612068C1692A6911435F
:1046600011E0206801F092F92068C16941F400610D
:10467000C1612068C16921F48061C1612068C1699C
:104680002A6941EA0221C16124E0206801F0C6F9EB
:104690002068016D41F0080101652068016D21F07D
:1046A000040101652068016D2A69114311E0206849
:1046B00001F0ECF92068016D41F4006101652068AA
:1046C000016D21F4806101652068016D2A6941EA6C
:1046D00002210165002084F83C0070BD10B5040083
:1046E00003D094F83D0010B107E0012010BD002078
:1046F00084F83C00204600F022F8022084F83D00B7
:10470000211D206800F0DEFF012084F8480084F8B5
:104710003E0084F83F0084F8400084F8410084F8AB
:10472000420084F8430084F8440084F8450084F88B
:10473000460084F8470084F83D00002010BD704713
:104740007047000030B50446022269B1042912D036
:10475000082917D00C291CD0102921D094F8430027
:10476000012824D0012030BD94F83E000128F9D161
:1047700084F83E201DE094F83F000128F2D184F82F
:104780003F2016E094F840000128EBD184F8402047
:104790000FE094F841000128E4D184F8412008E0BA
:1047A00094F842000128DDD184F8422001E084F829
:1047B00043200122206800F0DDFF194B20681949D1
:1047C000194A984209D0884207D0904205D0174D27
:1047D000A84202D0164DA84203D1456C45F40045CD
:1047E0004564206898420CD0B0F1804F09D0114B3D
:1047F000984206D0104B984203D0884201D0904294
:1048000007D181680D4A1140062906D0B1F5803FD5
:1048100003D0016841F001010160002030BD0000BB
:10482000002C0140003401400040014000440140A0
:10483000004801400004004000080040070001005B
:104840007047704790F88010012918D0012180F836
:1048500080102421C0F8841050F8641B0A680B688B
:1048600023F001030B6022F000510022026050F897
:10487000643C1960202101620277104670470220D3
:1048800070477047704770B5044690F88000012863
:104890001DD0012084F880002420C4F88400206802
:1048A0000568026822F0010202602068826822F036
:1048B00060620A438260204601F044F92068056086
:1048C0002020C4F88400002084F8800070BD0220FD
:1048D00070BD70B5044690F8800001281DD00120FD
:1048E00084F880002420C4F88400206805680268E9
:1048F00022F0010202602068826822F060420A43CE
:104900008260204601F01EF9206805602020C4F86E
:104910008400002084F8800070BD022070BD7047C4
:10492000704770472DE9F04103680446D86919685B
:104930009A6840F60F0528424FF0000509D1860617
:104940007ED501F0200602F080573E4378D0216FDB
:10495000FFE0924E924F16400F40374370D0C7078A
:1049600009D0CF0507D501271F62D4F88C3043F05A
:104970000103C4F88C3083070AD5D30708D0276811
:1049800002233B62D4F88C3043F00403C4F88C302B
:1049900043070AD5D30708D0276804233B62D4F81D
:1049A0008C3043F00203C4F88C3003070CD501F0BF
:1049B0002003334308D0266808233362D4F88C30B0
:1049C00043F00803C4F88C3003050BD54B0109D51F
:1049D00026684FF400633362D4F88C3043F0200330
:1049E000C4F88C30D4F88C30002B34D0800609D534
:1049F00001F0200002F08051084303D0216F09B17B
:104A000020468847D4F88C0021688968490602D47A
:104A100010F0280F21D0204601F09AF92068816813
:104A2000490615D5816821F040018160E06F78B1B9
:104A30005C498163E06FFDF7E0FD00280BD000E0EA
:104A400011E0E06F816B00E02046BDE8F0410847CF
:104A50002046FFF766FFBDE8F0812046FFF761FFC3
:104A6000C4F88C50F7E7E76E2026012F5CD1C7060B
:104A70005AD5CF0658D5102018622068816849069B
:104A80002FD5E26F116849680904090CE3D0B4F826
:104A90005C308B42DFD9A4F85E1011680968890682
:104AA00018D4016821F4807101602068816821F0C8
:104AB000010181602068816821F040018160C4F8B3
:104AC0008860E5662068016821F010010160E06FF0
:104AD000FDF75EFDB4F85C00B4F85E10401A81B2D8
:104AE0001EE0B4F85C10B4F85E20891AB4F85E20B9
:104AF00089B2002AAFD00029ADD0026822F49072AA
:104B0000026020688268254BDB431A408260C4F84B
:104B10008860E56625672068026822F0100202605E
:104B20002046FFF7AEFE96E7C70209D5570207D524
:104B30004FF4801018622046BDE8F041FFF7F0BE48
:104B400007060AD501F0800702F40002174304D0DB
:104B5000616F00297FF478AF7DE742060CD54A06E5
:104B60000AD51968204621F040011960C4F8846014
:104B7000656700F0EFF86EE7020206D54A0004D53B
:104B80002046BDE8F041FFF7CABEC001CBD50029E1
:104B9000C9DA2046BDE8F041FFF774BE01000010FD
:104BA00020010004B15C000810B5040003D0D4F863
:104BB000840010B107E0012010BD002084F88000BF
:104BC000204600F027F82420C4F8840020680168FB
:104BD00021F001010160204601F0E4F80128EBD04A
:104BE000A06A10B1204600F0CFFF2068416821F490
:104BF000904141602068816821F02A01816020682D
:104C0000016841F0010101602046BDE8104001F05B
:104C10001FB8000070B586B0064614216846FBF741
:104C200043FB2149306888423CD12049886D40F4DB
:104C300080208865886D00F480200590C86C40F065
:104C40000200C864C86C002500F0020005904FF413
:104C5000406000900220CDE901050720CDE9035016
:104C600069461348FEF73CF9134C124820601D209A
:104C700060601020C4E902058020C4E90405A56134
:104C8000E56120462562FDF751FD08B1FBF78DFF78
:104C9000B467002211462720A662FEF771FA27208A
:104CA000FEF760FA06B070BD0048004000100240F8
:104CB0000004004808000240A804002070B5044623
:104CC000D0F8840020283DD171B36AB394F88000F5
:104CD000012837D0012084F880002165A4F85420F1
:104CE000A4F856200025C4F88C502120C4F8840074
:104CF000A06FD8B11449C162A16F1448134608636C
:104D0000A16F13484863A06F85632668216D06F183
:104D10002802A06FFDF76AFD40B11020C4F88C0096
:104D200004F8805F20206060012070BD2168402071
:104D3000086284F880502068816841F080018160B9
:104D4000002070BD022070BD155D0008455D0008A3
:104D5000C55C000870477047FEE700EB8100006EFD
:104D600000F0F840704700EB8100006E00F0F84062
:104D700070478068C0F3C00070478068C0F3C0000F
:104D800070478068C0F3800070478068C0F380007F
:104D90007047C06810F4406F01D0002070470120B8
:104DA0007047042303EAD15310B518444369C1F393
:104DB000045107248C40A3438A401343436110BD30
:104DC000042303EAD15310B518444369C1F30451D5
:104DD00007248C40A3438A401343436110BD00EB7A
:104DE0008100016E21F0004111430166704700EB24
:104DF0008100016E21F00041114301667047F0EE21
:104E0000400A90ED001A90ED010AF7EE001A21EE2B
:104E1000000A31EEC11A01EE200A80ED010A704746
:104E2000F0B59BB000241794189420210FA8199472
:104E3000FBF73AFA3C216846FBF736FA31484FF067
:104E4000A041012501604FF40021C0E9011400F1E7
:104E500010010426C46081E870000477447705627D
:104E600080F82440C462046380F83840C46380F84A
:104E70004040FCF797FF08B1FBF797FE17A92148C0
:104E80001794FCF7D5FB08B1FBF78FFE1E480F9077
:104E900010A906207F2781E89100CDE913640FA9AE
:104EA0001848FCF731FC08B1FBF77FFE174800906B
:104EB00001A9092081E8A100CDE90464022008903D
:104EC00084200A908DF8244080208DF825400B9096
:104ED0008DF826408DF8304069460A48FBF7F4FE0D
:104EE00008B1FBF762FE0A48009040F20F100190F3
:104EF00069460448FBF7E8FE002801D0FBF755FEA1
:104F00001BB0F0BD440100200008302E0800900CBA
:104F100000106032F0B597B03C216846FBF7C4F949
:104F200020210FA8FBF7C0F927482649002401607B
:104F3000C902C0E90114C46004250461C0E9054543
:104F4000047744770126066280F82440C462046333
:104F500080F83840C46380F84040FCF723FF08B174
:104F6000FBF723FE1948009001A909207F2781E85B
:104F7000C100CDE9045484200A908DF8244080209B
:104F80008DF825400B9008968DF826408DF830401E
:104F900069460D48FBF798FE08B1FBF706FE0C4882
:104FA0000F9010A9062081E89100CDE913540FA9B4
:104FB0000548FCF7A9FB002801D0FBF7F6FD17B068
:104FC000F0BD000000010050B00100200800900C6E
:104FD000020030040C4810B50A490160891541608F
:104FE0004021816000210161C16041611121816125
:104FF000FDF7E4F8002803D0BDE81040FBF7D5BD6D
:1050000010BD0000000201401C02002000B58DB060
:1050100030216846FBF748F91149104808600846F6
:10502000FDF766FA08B1FBF7C0FD022000900020F2
:105030008DF804008DF80500029003900121049082
:10504000CDE905010246079069460548FDF776F966
:10505000002801D0FBF7A9FD0DB000BD00080050ED
:105060004002002000B58DB030216846FBF71CF9E6
:105070001149104808600846FDF73AFA08B1FBF7F5
:1050800094FD002002218DF804008DF805000290A7
:10509000CDE906100091CDE904010390024669466E
:1050A0000548FDF74BF9002801D0FBF77EFD0DB058
:1050B00000BD000000100050540200200D4808B54B
:1050C000816C41F004018164816C01F00401009164
:1050D000816C41F001018164806C002200F00100CC
:1050E000009011460B20FEF74BF8BDE808400B205E
:1050F000FEF738B80010024070B51348114910226D
:1051000002C0002102C0082340F8081B072440F811
:10511000041C00F8011B022500F8011B00F8021B0B
:105120003CC03CC0012240F83429C0E90E210648A9
:10513000FDF770FD002803D0BDE87040FBF735BDDA
:1051400070BD0000006400406802002030B587B0E8
:1051500014216846FBF7A8F82248C16C41F004010D
:10516000C164C16C01F004010591C16C41F02001E2
:10517000C164C16C01F020010591C16C41F00101D5
:10518000C164C16C01F001010591C16C41F00201E3
:10519000C164C06C144D00F0020005900022502143
:1051A0002846FDF781FF4FF4305000900F4800244F
:1051B000CDE9010469462846FDF792FE5020009093
:1051C0000120CDE90104694628460394FDF788FED5
:1051D000002211462820FDF7D3FF2820FDF7C2FF4B
:1051E00007B030BD00100240000800480000111058
:1051F0000B4810B509490160002141608160C16020
:10520000016101758161C162FDF7ECFF002803D0E7
:10521000BDE81040FBF7C9BC10BD00000003014011
:10522000CC0200200B4810B5094901600021416003
:105230008160C160016101758161C162FDF7D2FFCA
:10524000002803D0BDE81040FBF7AFBC10BD000044
:1052500004030140080300200B4810B50949016010
:10526000002141608160C160016101758161C1629D
:10527000FDF7B8FF002803D0BDE81040FBF795BC50
:1052800010BD000008030140440300202DE9F04157
:105290009EB000241A941B941C941D94149415948D
:1052A0001694179418941C2168461994FAF7FCFF79
:1052B000342107A8FAF7F8FF434842490127C0E91B
:1052C00000142021816041F63F71C1604FF480716C
:1052D0008461C0E90417FEF7E6FE08B1FBF765FC40
:1052E0004FF480581AA93848CDF86880FEF7A0FF1F
:1052F00008B1FBF75AFC3448FFF7F0F908B1FBF7A7
:1053000054FC7026CDE9146414A92F481694FEF7B6
:105310001FFE08B1FBF749FCCDE91874022517AA56
:10532000012129481795FEF7B1FD08B1FBF73DFCB7
:105330006020CDE9000402940394049405940022B3
:10534000694621480694FFF73AF908B1FBF72DFCAE
:10535000042269461C48FFF732F908B1FBF725FC27
:10536000082269461848FFF72AF908B1FBF71DFC27
:1053700041F63E70CDE900600C2269461248FFF705
:105380001EF908B1FBF711FC079478200894CDE9C9
:105390000940CDE90D544FF40050CDE90B800003D6
:1053A000CDE90F401194129407A907481394FEF712
:1053B00017FD08B1FBF7F9FB0348FFF7B5F81EB07E
:1053C000BDE8F081002C014080030020184810B592
:1053D000164901604FF461214160002181600C2277
:1053E000C160C0E904128161C161016241628162F0
:1053F000FFF7DAFB08B1FBF7D8FB00210C48FFF7F9
:1054000068FA08B1FBF7D1FB00210948FFF73BFA26
:1054100008B1FBF7CAFB0648FFF714FA002803D0CF
:10542000BDE81040FBF7C1BB10BD000000480040C4
:1054300018040020FEE7FEE790ED081AD0ED010AFF
:10544000B0EE402A90ED000A60EE810AF6EE001AF6
:10545000D0ED053A20EE023A60EEA10A73EE821A10
:1054600090ED070A00EEA10AD0ED040AF1EE601AF1
:10547000F4EEC01AF1EE10FA02DDB0EE610A06E0B9
:10548000F4EEC00AF1EE10FA01D2B0EE600A72EE4C
:10549000633AF0EE402A90ED020A33EE223A60EED3
:1054A000233A83EE810A33EE000AF4EEC01AF1EEDD
:1054B00010FA02DDB0EE610A06E0F4EEC00AF1EE89
:1054C00010FA01D2B0EE600AD0ED031AF5EEC01A60
:1054D000F1EE10FA1ADDD0ED060A70EE603A83EEB6
:1054E000813AF4EEC31AF1EE10FA04D2B0EE600A7B
:1054F00001EE810A0AE0F1EE613AF4EEC33AF1EE10
:1055000010FA03DDB0EE600A01EEC10AC0ED072A11
:1055100080ED060A80ED052A70477047704700004D
:1055200030B504462DED068BB0EE418AB0EE409AC0
:10553000BEEE00AA9FED2E1A29EE0A0A87B060EE91
:10554000810A70EE208A70EE609AB0EE490AF0EEA1
:10555000680A00F0A9FEF0EE690A00F0A5FEF0EE80
:1055600040AAF0EE680AB0EE490A00F079FEF0EECB
:10557000690A00F075FE3AEE800A1E4D0322694664
:1055800020EE0A1A204631EE090A84ED000A31EEB7
:10559000280A84ED010A31EE290A84ED020A95ED0C
:1055A000010AFBF78FF99DED000A032203A9C0EE63
:1055B000080A6846CDED000A9DED010AC0EE080A12
:1055C000CDED010A9DED020AC0EE080ACDED020AFA
:1055D00095ED000AFBF73EF995ED020A03222146FC
:1055E00003A8FBF76FF907B0BDEC068B30BD0000D8
:1055F000D7B35D3FB86A0008FDF762BD10B5A4B02F
:1056000038216846FAF750FE14211FA8FAF74CFE1D
:1056100044210EA8FAF748FE0020FDF7BDFE012048
:1056200000900004019002200324CDE90704282102
:10563000CDE90A100C900D9009946846FEF7A6F982
:1056400008B172B6FEE70F20CDE91F0400242194B3
:10565000229404211FA82394FEF748F808B172B6DB
:10566000FEE749F204000E90C0051A9000011D905B
:1056700011940EA8FDF7F6FE002801D072B6FEE7E1
:1056800024B010BD0248016841F470010160704708
:1056900088ED00E00148FEF748BE000080030020CE
:1056A0000148FEF742BE0000800300200148FEF7DB
:1056B0003CBE0000800300200148FEF736BE00001B
:1056C000CC0300202DE9F0430268234B234D244EE8
:1056D000244C4FF08049984207D0484505D0A84255
:1056E00003D0B04201D0A04203D122F070074A6833
:1056F0003A431D4FDFF874C0DFF8748098420DD034
:1057000048450BD0A84209D0B04207D0A04205D0EE
:10571000B84203D0604501D0404503D122F4407522
:10572000CA682A434D6922F080022A4302608A68CF
:10573000C2620A688262984207D0A04205D0B8428D
:1057400003D0604501D0404501D1096901630121C1
:105750004161BDE8F0830000002C014000040040DE
:105760000008004000340140004001400044014076
:105770000048014010B501F01F030121046A99405F
:105780008C430462016A9A401143016210BD10B556
:1057900001F01F030421046A99408C430462016AEA
:1057A0009A401143016210BD10B5846842EA032299
:1057B00024F47F440A432243826010BD8268034B75
:1057C0001A400A4342F00701816070478FFFCFFF04
:1057D0002DE9F043026A22F001020262056A436881
:1057E00082691C4C25F0020522400C6822F003025D
:1057F00014438A68194E2A43174D194FDFF864C0C5
:10580000DFF86490A84207D0B04205D0B84203D078
:10581000604501D0484506D122F00808CA6842EA2E
:10582000080222F00402A84207D0B04205D0B842D4
:1058300003D0604501D0484505D14D6923F440733C
:105840001D438B692B434360846149684163026255
:10585000BDE8F0838FFFFEFF002C014000340140C3
:10586000004001400044014000480140F0B5026A98
:1058700022F010020262056A42688369194C1B4ECD
:1058800023400C6823F4407343EA042425F02003EA
:105890008D6843EA0513144DA84201D0B04206D1E9
:1058A000CF6823F0800343EA071323F04003A842A4
:1058B0000AD0B04208D00E4DA84205D00D4DA842E6
:1058C00002D00D4DA84207D14D6922F4406242EA50
:1058D00085028D6942EA850242608461496881637C
:1058E0000362F0BDFF8FFFFE002C01400034014039
:1058F000004001400044014000480140F0B5026A08
:1059000022F480720262056A4368C269194C1B4E18
:1059100022400C6822F00302144325F400728D68C3
:1059200042EA0522144DA84201D0B04206D1CF6808
:1059300022F4006242EA072222F48062A8420AD0DE
:10594000B04208D00E4DA84205D00E4DA84202D05C
:105950000D4DA84207D14D6923F4405343EA051386
:105960008D6943EA05134360C4614968C1630262FB
:10597000F0BD00008FFFFEFF002C0140003401400D
:10598000004001400044014000480140F0B5026A77
:1059900022F480520262056A4268C369194C1B4EA8
:1059A00023400C6823F4407343EA042425F4005395
:1059B0008D6843EA0533144DA84201D0B04206D1A8
:1059C000CF6823F4004343EA073323F48043A8421B
:1059D0000AD0B04208D00E4DA84205D00D4DA842C5
:1059E00002D00D4DA84207D14D6922F4404242EA4F
:1059F00085128D6942EA85124260C461496801647A
:105A00000362F0BDFF8FFFFE002C01400034014017
:105A100000400140004401400048014030B5026AA6
:105A200022F480320262046A4268036D114D2B40F9
:105A30000D681D4324F400330C8943EA04430E4CE3
:105A4000A0420BD00D4CA04208D00D4CA04205D076
:105A50000C4CA04202D00C4CA04204D14C6922F460
:105A6000803242EA0422426005654968816403622B
:105A700030BD00008FFFFEFF002C014000340140CC
:105A800000400140004401400048014030B5026A36
:105A900022F480120262046A4268036D114D24F4FC
:105AA00000142B400D6843EA05230D8944EA055490
:105AB0000D4DA8420BD00D4DA84208D00C4DA84268
:105AC00005D00C4DA84202D00B4DA84204D14D691F
:105AD00022F4802242EA8522426003654968C1645B
