:020000040800F2
:10000000F8350020F10100080F2E0008072E000827
:100010000B2E000815070008AD4200080000000084
:10002000000000000000000000000000C9330008CC
:100030003907000800000000112E0008CB3300082B
:100040000B0200080B0200080B0200080B0200085C
:100050000B0200080B0200080B0200080B0200084C
:100060000B0200080B0200080B0200080B0200083C
:100070000B0200080B0200080B0200080B0200082C
:100080000B0200080B0200080B0200080B0200081C
:100090000B0200080B0200080B0200080B0200080C
:1000A0000B0200080B0200080B0200080B020008FC
:1000B0000B0200080B020008E93300080B020008DD
:1000C0000B0200080B0200080B0200080B020008DC
:1000D0000B0200089D4200080B0200080B020008FA
:1000E0000B0200080B0200080B0200080B020008BC
:1000F0000B0200080B0200080B0200080B020008AC
:100100000B0200080B0200080B0200080B0200089B
:100110000B0200080B0200080B0200080B0200088B
:100120000B0200080B0200080B0200080B0200087B
:100130000B0200080B0200080B0200080B0200086B
:100140000B0200080B0200080B0200080B0200085B
:100150000B0200080B0200080B0200080B0200084B
:100160000B0200080B0200080B0200080B0200083B
:100170000B0200080B0200080B0200080B0200082B
:100180000B0200080B0200080B0200080B0200081B
:100190000B020008000000000B0200080B02000820
:1001A0000B0200080B0200080B0200080B020008FB
:1001B0000B0200080B0200080B0200080B020008EB
:1001C0000B0200080B0200080B0200080B020008DB
:1001D0000B0200080B020008DFF810D000F07CF8DA
:1001E0000048004795510008AFF30080F835002023
:1001F0000648804706480047FEE7FEE7FEE7FEE7C1
:10020000FEE7FEE7FEE7FEE7FEE7FEE7D533000880
:10021000D90100082DE9F05F0546002092469B4673
:1002200088460646814640241BE02846414647460C
:10023000224600F041F853465A46C01A914110D365
:1002400011461846224600F028F82D1A67EB0108DF
:100250004F4622460120002100F01FF817EB00094D
:100260004E41201EA4F10104DFDC484631462A46F7
:100270004346BDE8F09FD2B201E000F8012B491ED1
:10028000FBD270470022F6E710B513460A46044633
:100290001946FFF7F0FF204610BD202A04DB203A64
:1002A00000FA02F1002070479140C2F1200320FAC9
:1002B00003F3194390407047202A04DB203A21FAC7
:1002C00002F00021704721FA02F3D040C2F120026F
:1002D0009140084319467047064C074D06E0E06818
:1002E00040F0010394E8070098471034AC42F6D37D
:1002F000FFF776FF08B9000828B9000870B58C1818
:1003000010F8015B15F0070301D110F8013B2A1129
:1003100006D110F8012B03E010F8016B01F8016B16
:100320005B1EF9D12B0705D40023521E0DD401F812
:10033000013BFAE710F8013BCB1A921C03E013F8DB
:10034000015B01F8015B521EF9D5A142D8D3002010
:1003500070BD000000B587B000BF00BFAE48C06CE4
:1003600040F00400AC49C8640846C06C00F00400CA
:10037000019000BF00BF00BF00BF00BF0846C06CB7
:1003800040F01000C8640846C06C00F010000190F6
:1003900000BF00BF00BF00BF00BF0846C06C40F0F8
:1003A0001000C8640846C06C00F01000019000BF47
:1003B00000BF00BF00BF00BF0846C06C40F0100087
:1003C000C8640846C06C00F01000019000BF00BF78
:1003D00000BF00BF00BF0846C06C40F00200C86408
:1003E0000846C06C00F00200019000BF00BF00BFD3
:1003F00000BF00BF0846C06C40F00200C864084659
:10040000C06C00F00200019000BF00BF00BF00BF41
:1004100000BF0846C06C40F00100C8640846C06CCC
:1004200000F00100019000BF00BF00BF00BF00BF8F
:100430000846C06C40F00100C8640846C06C00F07B
:100440000100019000BF00BF00BF00BF00BF084611
:10045000C06C40F00400C8640846C06C00F00400A2
:10046000019000BF00BF00BF00BF00BF0846C06CC6
:1004700040F00400C8640846C06C00F0040001901D
:1004800000BF00BF00BF00BF00BF0846C06C40F007
:100490002000C8640846C06C00F02000019000BF36
:1004A00000BF00BF00BF00BF0846C06C40F0200086
:1004B000C8640846C06C00F02000019000BF00BF77
:1004C00000BF00BF00BF0846C06C40F02000C864F9
:1004D0000846C06C00F02000019000BF00BF00BFC4
:1004E00000BF00BF0846C06C40F01000C86408465A
:1004F000C06C00F01000019000BF00BF00BF00BF43
:1005000000BF0846C06C40F01000C8640846C06CCC
:1005100000F01000019000BF00BF00BF00BF00BF8F
:100520000846C06C40F01000C8640846C06C00F07B
:100530001000019000BF00BF00BF4FF400500290B8
:100540000120039004900220059002A9334800F096
:1005500021FD0820029002A9314800F01BFD022075
:10056000029002A92E4800F015FD0120029002A978
:100570002B4800F00FFD2020029002A9294800F02E
:1005800009FD1020029002A9264800F003FD022078
:10059000029002A94FF0904000F0FCFC0120029074
:1005A00002A94FF0904000F0F5FC0820029002A94B
:1005B0001A4800F0EFFC0420029002A9174800F04E
:1005C000E9FC4FF48060029002A9174800F0E2FCB9
:1005D0004FF40070029002A9134800F0DBFC0420E5
:1005E000029002A9104800F0D5FC0420029002A954
:1005F0000B4800F0CFFC4020029002A9084800F010
:10060000C9FC202002900020039002A9044800F0B9
:10061000C1FC07B000BD0000001002400008004807
:1006200000100048000400480014004810B500BF46
:1006300000220821154800F09BFD00BF00BF0122E9
:100640005102134800F094FD00BF142004F0B0F8EC
:1006500000BF012208210D4800F08AFD00BF1420D0
:1006600004F09CF800BF00224FF40071084800F02D
:100670007FFD00BF012004F091F800BF012251026C
:10068000034800F075FD00BF10BD000000100048D9
:100690000014004810B504468CB900BF0022102198
:1006A0001B4800F065FD00BF00BF00222021184854
:1006B00000F05EFD00BF012004F061F826E0012C8F
:1006C00011D100BF00221021114800F051FD00BFE0
:1006D00000BF012220210E4800F04AFD00BF01208A
:1006E00004F04DF812E0022C10D100BF01221021BD
:1006F000074800F03DFD00BF00BF01222021044853
:1007000000F036FD00BF012004F039F810BD0000F4
:100710000004004800BFFEE710B52DED020B0548B0
:1007200000990160019941604FF4002104F064F8E0
:100730001CBD00001E0000207047000010B51D4ABF
:100740001D4C0368A34201D102F554721B4C03688F
:10075000A34201D102F5D46202640368D3F8803069
:1007600023F4F814838E44EA03430468C4F8803009
:1007700002F1700343640368D3F8803023F070649F
:1007800090F8383044EA03630468C4F8803002F11A
:10079000B0038364D833C364D83303651833436527
:1007A000114602E000230B60091D02F554739942C3
:1007B000F8D310BD00A4004000680040006C004069
:1007C0002DE9F041054614461E46D1F804C0BCF19F
:1007D000000F0AD1D1F810C0D1F808804CEA080CFB
:1007E000B1F800804CEA88430BE0D1F810C04CF01F
:1007F000804CD1F808804CEA080CD1F800804CEA13
:10080000080391F82080D1F81CC04CEA086CD1F89C
:1008100018804CEA080CD1F814804CEA080CD1F886
:100820000C804CEA080706EBC608D5F854C00CEB60
:10083000C8021360121D1760121D002019E000F19C
:10084000030C14F80CC04FEA0C6800F1020C14F809
:100850000CC048EA0C4800F1010C14F80CC048EA3E
:100860000C2C14F800804CEA080CC2F800C0121DD1
:10087000001DDFF81880D1F80CC008EB1C4C9CF868
:1008800000C08445DBD8BDE8F0810000286900087D
:100890000146002091F82520022A03D00422CA63D1
:1008A000012027E00A68126822F00E020B681A6025
:1008B0008A6C126822F480728B6C1A600A68126863
:1008C00022F001020B681A6091F8442002F01F0325
:1008D00001229A400B6C5A60D1E913325A604A6D7A
:1008E00042B14A6D126822F480724B6D1A60D1E9F0
:1008F00016325A60012281F8252000BF002281F8BB
:10090000242000BF704770B50446002594F82500E8
:1009100002280BD00420E063012084F8250000BFEA
:10092000002084F8240000BF012534E0206800681E
:1009300020F00E00216808602068006820F00100A7
:1009400021680860A06C006820F48070A16C0860C9
:1009500094F8440000F01F0101208840216C486099
:10096000D4E913104860606D40B1606D006820F4F8
:100970008070616D0860D4E916104860012084F829
:10098000250000BF002084F8240000BFA06B10B138
:100990002046A16B8847284670BD70B503461446B3
:1009A00093F85C5001F4C07000B100BF012D01D07C
:1009B000022D7DD11868826D01F0070010B102F0A0
:1009C000010018B301F0380010B102F00200E8B1E4
:1009D00001F4E07010B102F00400B8B101F4F0507D
:1009E00010B102F0080088B101F4604010B102F0CB
:1009F000100058B101F4403010B102F0200028B1CD
:100A000001F47C0040B102F0400028B91868C06DC4
:100A100040F001001E68F06501F0070010B102F01F
:100A2000010018BB01F0380010B102F00200E8B973
:100A300001F4E07010B102F00400B8B901F4F05014
:100A400010B102F0080088B901F4604010B102F062
:100A5000100058B901F4403010B102F0200028B95C
:100A600001F47C0040B102F0400028B11868C06D6C
:100A700040F002001E68F06501F0800030B1186897
:100A8000D0F8DC0020431E68C6F8DC0001F480705A
:100A900030B11868D0F8E00020431E68C6F8E000C6
:100AA0001868406D08431E687065002070BDFFE740
:100AB000186E40F0020018660120F7E72DE9F041BA
:100AC00004460E461746706800B900E000BF94F86F
:100AD0005C00022821D12068D0F8C40000F4001086
:100AE00030B1206E40F4007020660120BDE8F08136
:100AF0002068D0F8C400C0F301452B463A46314681
:100B00002046FFF75DFE0120A8402168C1F8CC0017
:100B10000120A840A0650020E8E7206E40F0080012
:100B200020660120E2E7F0B5024692F85C60012EF3
:100B300001D0022E23D1086880B9087A80070F7B84
:100B400040EAC7600F8A40EA07404F6940EA07045D
:100B5000176C486807EB80031C600EE00F7B086988
:100B600040EA47740F7A486940EA8775576C4868CD
:100B700007EBC0031C601B1D1D600020F0BD106E44
:100B800040F0020010660120F8E770B50446049DAD
:100B900094F85C00012810D1080140EA820040EA84
:100BA000430028432668D6F8806026F03F0630438D
:100BB0002668C6F88000002070BD206E40F004005A
:100BC00020660120F8E710B504460CB9012010BDDD
:100BD000204600F092F92068C06D20F003002168E3
:100BE000C865204600F012F90020206684F85C00F9
:100BF00000BFECE770B504460CB9012070BD814917
:100C00002068884200D100BFA068B0F5407F00D1C5
:100C100000BF94F85C0028B9002084F85D002046ED
:100C200000F0F6F82068806920F0100021688861E3
:100C300000F0AAFA05460DE000F0A6FA401B0A28CB
:100C400008D9206E40F001002066032084F85C0083
:100C50000120D3E72068806900F008000828EBD065
:100C60002068806940F001002168886100F08CFAFA
:100C700005460DE000F088FA401B0A2808D9206ECE
:100C800040F001002066032084F85C000120B5E7F5
:100C90002068806900F001000028EBD0206880699E
:100CA00040F002002168886156492068884202D1DC
:100CB000554960680860207C012806D12068806959
:100CC00020F040002168886105E02068806940F0DC
:100CD000400021688861607C012806D12068806915
:100CE00040F480402168886105E02068806920F434
:100CF000804021688861A07C012806D12068806935
:100D000020F480502168886105E02068806940F403
:100D10008050216888612068806920F44070A16853
:100D20000843216888612068806920F0A400216858
:100D300088612068006920F0100021680861E0687F
:100D4000012806D12068806940F00400216888618C
:100D500020E0E068F0B1E068022815D020688069E2
:100D600040F08000216888612068006940F0100030
:100D700021680861E06803280CD12068806940F090
:100D800020002168886105E02068806940F020002B
:100D900021688861207E401E4106E069401E41EACC
:100DA0000020216A491E0843A18A491E40EA0140E9
:100DB0002168C861A068B0F5407F0FD1A06A401ECD
:100DC000E16A491E40EA0121206B401E41EA001100
:100DD000A08C401E41EA00402168C8602068D0F81D
:100DE000C000E16B08432168C1F8C0002046FFF74E
:100DF000A5FC0020A0652066012084F85C0000208E
:100E0000FCE6000000640040006500407047000000
:100E100010B59CB00446142117A8FFF733FA5421EB
:100E200002A8FFF72FFA27492068884248D180148A
:100E300002904003109002A800F0E6FA00BF00BF45
:100E40002148C06C40F001001F49C8640846C06CCE
:100E500000F00100019000BF00BF00BF00BF00BF55
:100E60000846C06C40F00100C8640846C06C00F041
:100E70000100019000BF00BF00BF00BF0846806DA9
:100E800040F0007088650846806D00F000700190A9
:100E900000BF00BF881417900220189001201990FD
:100EA00002201A9009201B9017A9C00600F072F8C2
:100EB0004FF40060179017A94FF0904000F06AF8C7
:100EC0001CB010BD0064004000100240014691F8C3
:100ED0005C0001280BD1022081F85C000868806961
:100EE00020F001000A689061002008667047086ED3
:100EF00040F0040008660120F8E70146002291F85E
:100F00005C0002283FD10868806940F001000B684E
:100F100098610BE00A2A08D9086E40F001000866C3
:100F2000032081F85C0001207047521C086880692A
:100F300000F001000028EDD000220868806920F050
:100F400010000B6898610BE00A2A08D9086E40F07F
:100F500001000866032081F85C000120E4E7521CD0
:100F60000868806900F008000828EDD008688069EA
:100F700040F002000B68986100208865012081F82C
:100F80005C000020D0E7086E40F0080008660120F1
:100F9000CAE7000078B502460B460021CAE00126E8
:100FA0008E401D6805EA0604002C73D01D7905F0FB
:100FB0000305012D04D01D7905F00305022D13D181
:100FC00090684E000325B540A8434E00DD68B5404B
:100FD00028439060506801258D40A8431D79C5F3D2
:100FE00000158D40284350601D7905F00305032D41
:100FF00009D0D0684E000325B540A8434E009D6837
:10100000B5402843D0601D7905F00305022D13D1AA
:10101000CE0802F1200555F826004D07EE0E0F25EB
:10102000B540A8434E07F60E1D69B5402843CE08CB
:1010300002F1200545F8260010684E000325B54052
:10104000A8431D7905F003054E00B5402843106004
:101050005D6805F44035002D6BD000BF384D2D6E16
:1010600045F00105364E356635462D6E05F0010515
:10107000009500BF00BF4FEAB6358E0855F8260030
:101080008D072E0F0F25B540A843B2F1904F02D126
:1010900000251AE04DE02B4DAA4201D1012514E0B4
:1010A000294DAA4201D102250FE0284DAA4201D1C3
:1010B00003250AE0264DAA4201D1042505E0254D6D
:1010C000AA4201D1052500E006258E07360FB5405E
:1010D0002843214D8E0845F82600204D2868A0435E
:1010E0005D6805F4801505B120431C4D28602D1D59
:1010F0002868A0435D6805F4001505B12043174D2D
:101100002D1D2860154D2D1F2868A0435D6805F42E
:10111000003505B12043114D2D1F28602D1F286873
:10112000A0435D6805F4803505B120430B4D083DB3
:101130002860491C1D68CD40002D7FF430AF78BD7C
:10114000001002400004004800080048000C00485D
:101150000010004800140048080001400804014045
:10116000024613690B400BB1012000E000207047DC
:101170000AB1816100E081627047000001480068A7
:10118000000C7047002004E0014800687047000030
:1011900038000020034800680349096808440149F1
:1011A00008607047380000204000002010B500247F
:1011B000032000F089F8002000F008F808B10124AD
:1011C00001E000F02FF8204610BD000070B5044685
:1011D000002511480068D8B10F4800684FF47A71B3
:1011E000B1FBF0F00D490968B1FBF0F6304601F0B3
:1011F0006EFA58B9102C07D200222146501E00F07A
:1012000026F80748046004E0012502E0012500E01B
:101210000125284670BD0000400000202800002065
:101220003C00002070470146084600280DDB00BF47
:1012300000BF00F01F0301229A4043099B0003F105
:10124000E023C3F8002100BF00BF00BF70472DE9B5
:10125000F05F80460D46164603F03AF807463946D9
:101260002A46334601F00700C0F1070ABAF1040F1D
:1012700002D94FF0040A01E0C0F1070AD14600F19B
:10128000040ABAF1070F02D24FF0000A01E0A0F100
:10129000030AD4464FF0010A0AFA09FAAAF1010A30
:1012A0000AEA020A0AFA0CFA4FF0010B0BFA0CFBDD
:1012B000ABF1010B0BEA030B4AEA0B042146404653
:1012C00003F00EF8BDE8F09F00BF00F00702064BE8
:1012D00019684FF6FF031940044B0B4343EA022100
:1012E000014B196000BF70470CED00E00000FA05EB
:1012F00002468ABB4148006800F4C060B0F5806FC8
:101300002BD13E488030006820F480703B4BC3F8FE
:1013100080001846006820F4C06040F40070186037
:101320003748006832235843364BB0FBF3F0411C7A
:1013300000E0491E3148406900F48060B0F5806FDC
:1013400001D10029F5D12D48406900F48060B0F545
:10135000806F51D10320704708E028488030006832
:1013600020F48070254BC3F8800045E0B2F5007F83
:101370003AD12248006800F4C060B0F5806F2AD1ED
:101380001E488030006840F480701C4BC3F8800019
:101390001846006820F4C06040F4007018601848D7
:1013A000006832235843174BB0FBF3F0411C00E0B8
:1013B000491E1248406900F48060B0F5806F01D189
:1013C0000029F5D10D48406900F48060B0F5806FC8
:1013D00012D10320BFE709488030006840F48070D4
:1013E000064BC3F8800007E00448006820F4C060A2
:1013F00040F48060014B18600020ACE700700040B2
:101400002800002040420F002DE9F8430446002741
:10141000B846206800F40020B0F5002F73D1B9461B
:10142000FD48806D00F0805078B900BFFA48806DAB
:1014300040F08050F84988650846806D00F0805083
:10144000009000BF00BF4FF00109F448006840F46D
:101450008070F2490860FFF797FE064606E0FFF746
:1014600093FE801B022801D9032705E0EB480068A2
:1014700000F480700028F2D000BF002F46D1E6486B
:101480009030006800F44075CDB1206DA84216D0B0
:10149000E1489030006820F44075DF48D0F89000B3
:1014A00040F48030DC49C1F890000846D0F8900044
:1014B00020F48030C1F890000846C0F8905005F044
:1014C0000100A0B1FFF760FE064608E0FFF75CFEF2
:1014D000801B41F28831884201D9032706E0CE48BB
:1014E0009030006800F002000028EFD000BF5FB924
:1014F000C9489030006820F44070216D0843C64907
:10150000C1F8900003E00CE0B84600E0B846B9F13D
:10151000010F05D1C048806D20F08050BE4988651C
:1015200000BF207800F0010048B1BB488830006857
:1015300020F0030061680843B749C1F888002078AB
:1015400000F00200022809D1B3488830006820F07A
:101550000C00A1680843B049C1F88800207800F069
:101560000400042809D1AC488830006820F030001D
:10157000E1680843A849C1F88800207800F0080015
:10158000082809D1A4488830006820F0C0002169EB
:101590000843A149C1F88800207800F01000102805
:1015A00009D19D488830006820F440706169084383
:1015B0009949C1F88800207800F02000202809D13E
:1015C00095488830006820F44060A169084392493A
:1015D000C1F88800207800F04000402809D18E48EA
:1015E0008830006820F44050E16908438A49C1F816
:1015F0008800207800F08000802809D18648883053
:10160000006820F44040216A08438349C1F88800FB
:10161000208800F48070B0F5807F09D17E48883042
:10162000006820F44030616A08437B49C1F88800B3
:10163000206800F40030B0F5003F09D176489C30B6
:10164000006820F00300A16A08437349C1F89C00B8
:10165000208800F40070B0F5007F09D16E48883012
:10166000006820F44020E16A08436B49C1F8880013
:10167000208800F48060B0F5806F13D16648883010
:10168000006820F44010216B0843634988310860EA
:10169000206BB0F5801F05D15F48C06840F4801012
:1016A0005D49C860208800F40060B0F5006F13D178
:1016B00059488830006820F44000616B084356495F
:1016C00088310860606BB0F5800F05D15248C06862
:1016D00040F480105049C860208800F48050B0F574
:1016E000805F13D14C488830006820F04070A16BB7
:1016F0000843494988310860A06BB0F1807F05D16B
:101700004548C06840F480104349C860208800F410
:101710000050B0F5005F13D13F488830006820F0DA
:101720004060E16B08433C4988310860E06BB0F1F0
:10173000006F05D13848C06840F480103649C86051
:10174000208800F48040B0F5804F13D132488830B3
:10175000006820F04060216C08432F498831086000
:10176000206CB0F1006F05D12B48C06840F48010A8
:101770002949C860208800F40040B0F5004F13D11B
:1017800025488830006820F04050616C08432249A9
:1017900088310860606CB0F1805F05D11E48C06878
:1017A00040F480301C49C860206800F48030B0F5F7
:1017B000803F13D118488830006820F04040A16C69
:1017C0000843154988310860A06CB0F1804F05D1FD
:1017D0001148C06840F480300F49C860206800F4A8
:1017E0008020B0F5802F13D10B489C30006820F486
:1017F0004010E16C084308499C310860E06CB0F58A
:10180000001F05D10448C06840F480100249C86038
:101810004046BDE8F8830000001002400070004020
:101820002DE9F04104460D464FF0000814B901209F
:10183000BDE8F0817D48006800F00F00A8420ED29C
:101840007A48006820F00F0028437849086008466D
:10185000006800F00F00A84201D00120E8E72078DE
:1018600000F00100002864D06068032823D170488C
:10187000006800F0007008B90120D9E701F0CAFA49
:1018800006466C48864237D96948806800F0F00007
:1018900030B1207800F0020002282DD1A06858BB9A
:1018A0006348806820F0F00040F080006049886064
:1018B0004FF0800820E06068022806D15C4800688C
:1018C00000F4003040B90120B2E75948006800F444
:1018D000806008B90120ABE700F0DEF80646554805
:1018E000864209D95248806820F0F00040F080001C
:1018F0004F4988604FF080084D48806820F0030011
:10190000616808434A498860FFF73EFC074608E0E3
:10191000FFF73AFCC01B41F28831884201D903200D
:1019200086E74348806800F00C006168B0EB810FE7
:10193000EED1207800F00200022820D1207800F0BB
:101940000400042805D13A48806840F4E060384932
:101950008860207800F00800082807D134488068A3
:1019600020F4605040F4E06031498860304880687D
:1019700020F0F000A16808432D49886008E0B8F124
:10198000800F05D12A48806820F0F000284988603F
:101990002648006800F00F00A84219D923480068C3
:1019A00020F00F00284321490860FFF7EDFB0746B0
:1019B00008E0FFF7E9FBC01B41F28831884201D9FA
:1019C000032035E71948006800F00F00A842F0D165
:1019D000207800F00400042807D11548806820F41E
:1019E000E060E168084312498860207800F0080050
:1019F000082808D10E48806820F46050216940EA28
:101A0000C1000B49886000F047F809498968C1F3B3
:101A10000311094A515C01F01F01C84007490860E1
:101A200007480068FFF7D2FB02E7000000200240F1
:101A30000010024000B4C404F86800082800002028
:101A40003C0000200148006870470000280000208A
:101A500000B5FFF7F7FF05498968C1F30221044A81
:101A6000515C01F01F01C84000BD000000100240A1
:101A70000869000800B5FFF7E5FF05498968C1F36B
:101A8000C221044A515C01F01F01C84000BD0000A2
:101A9000001002400869000870B5224DAD6805F0DD
:101AA0000C05042D01D120483AE01E4DAD6805F02B
:101AB0000C05082D01D11D4832E01A4DAD6805F026
:101AC0000C050C2D2BD1174DED6805F00304154DB9
:101AD000ED68C5F303156A1C022C0CD0032C09D148
:101AE000124DB5FBF2F50F4EF668C6F3062605FB60
:101AF00006F10AE000BF0C4DB5FBF2F5094EF668A1
:101B0000C6F3062605FB06F100BF00BF054DED68D4
:101B1000C5F341656D1C6B00B1FBF3F000E00020E4
:101B200070BD0000001002400024F40000127A0092
:101B30002DE9F843044614B90120BDE8F883207864
:101B400000F00100002865D0FC48806800F00C0718
:101B5000FA48C06800F003060C2F01D1032E01D013
:101B6000082F0AD1F548006800F40030002851D051
:101B7000606800284ED10120DFE700BF6068B0F543
:101B8000803F06D1ED48006840F48030EB490860A2
:101B90001AE06068B0F5A02F0BD1E848006840F467
:101BA0008020E64908600846006840F480300860FC
:101BB0000AE0E248006820F48030E0490860084606
:101BC000006820F48020086000BF606888B1FFF7DB
:101BD000DBFA054606E0FFF7D7FA401B642801D977
:101BE0000320AAE7D548006800F400300028F2D0AE
:101BF00010E0FFF7C9FA054606E0FFF7C5FA401BFB
:101C0000642801D9032098E7CC48006800F400302C
:101C10000028F2D1207800F00200022860D1C748E5
:101C2000806800F00C07C548C06800F003060C2F60
:101C300001D1022E01D0042F18D1C048006800F451
:101C4000806018B1E06808B9012076E7BB484068B9
:101C500020F0FE40217C40EA0160B8494860B84865
:101C60000068FFF7B3FA18B3012066E7E06800B335
:101C7000B248006840F48070B0490860FFF784FA09
:101C8000054606E0FFF780FA401B022801D9032031
:101C900053E7AA48006800F480600028F2D0A74803
:101CA000406820F0FE40217C40EA0160A349486082
:101CB00016E0A248006820F48070A0490860FFF791
:101CC00063FA054606E0FFF75FFA401B022801D9D8
:101CD000032032E79948006800F480600028F2D1C0
:101CE000207800F00800082836D16069D0B1934808
:101CF0009430006840F001009049C1F89400FFF76B
:101D000043FA054606E0FFF73FFA401B022801D9D7
:101D1000032012E789489430006800F00200002890
:101D2000F1D019E085489430006820F00100834923
:101D3000C1F89400FFF728FA054606E0FFF724FAF9
:101D4000401B022801D90320F7E67C489430006844
:101D500000F002000028F1D1207800F004000428EF
:101D600072D14FF000087548806D012121EA107092
:101D700078B100BF7148806D40F080506F49886530
:101D80000846806D00F08050009000BF00BF4FF00B
:101D900001086C48006800F48070B0B969480068B8
:101DA00040F4807067490860FFF7EEF9054606E0E9
:101DB000FFF7EAF9401B022801D90320BDE661487C
:101DC000006800F480700028F2D000BFA0680128ED
:101DD00008D15A489030006840F001005749C1F8D6
:101DE000900021E0A06805280FD154489030006889
:101DF00040F004005149C1F890000846D0F8900026
:101E000040F00100C1F890000EE04C4890300068AE
:101E100020F001004949C1F890000846D0F8900030
:101E200020F00400C1F8900000BFA068A8B1FFF73F
:101E3000ABF9054609E0FFF7A7F9401B41F28831ED
:101E4000884202D9032078E625E03C4890300068BB
:101E500000F002000028EED013E0FFF795F90546E8
:101E600008E0FFF791F9401B41F28831884201D91F
:101E7000032062E631489030006800F0020000283C
:101E8000EFD1B8F1010F05D12C48806D20F08050C2
:101E90002A49886500BF207800F02000202836D12C
:101EA000A069D0B125489830006840F0010023496E
:101EB000C1F89800FFF768F9054606E0FFF764F9F6
:101EC000401B022801D9032037E61C4898300068DF
:101ED00000F002000028F1D019E01848983000689E
:101EE00020F001001549C1F89800FFF74DF90546AB
:101EF00006E0FFF749F9401B022801D903201CE640
:101F00000E489830006800F002000028F1D1E06926
:101F1000002860D00948806800F00C000C287FD0B1
:101F2000E069022858D10548006820F08070034914
:101F30000860FFF729F905460DE000000010024097
:101F40003C00002000700040FFF71EF9401B0228F3
:101F500001D90320F1E54D48006800F00070002829
:101F6000F2D1D4E90810401E41EA0011A06A41EA0A
:101F70000021208E0122C2EB500041EA4051342062
:101F8000005DC2EB500041EA40612C20005D41EA57
:101F9000C0603E49C9683E4A114008433B49C86099
:101FA0000846006840F0807008600846C06840F04D
:101FB0008070C860FFF7E8F8054606E0FFF7E4F830
:101FC000401B022801D90320B7E53048006800F023
:101FD00000700028F2D056E02C48006820F0807095
:101FE0002A4908600846C06820F00300C860084617
:101FF000C068284908402549C860FFF7C5F805466C
:1020000007E00DE0FFF7C0F8401B022801D90320CC
:1020100093E51E48006800F000700028F2D132E01D
:10202000E069012800D188E51848C66806F0030178
:10203000206A814225D106F0F001606A401EB1EBB2
:10204000001F1ED106F4FE41A06AB1EB002F18D18B
:1020500006F078412C20005DB1EBC06F11D106F481
:10206000C001208E0122C2EB5000B1EB405F08D1CD
:1020700006F0C0613420005DC2EB5000B1EB406F50
:1020800001D0012059E5002057E500000010024072
:102090000C809F01FFFFEEFE2DE9F84F04468846B5
:1020A00016461D464FF0000A00BF94F85C00012858
:1020B00002D10220BDE8F88F012084F85C0000BF47
:1020C000FFF762F80746B14694F85D00012802D098
:1020D0004FF0020AE7E0B8F1000F00D016B94FF058
:1020E000010AE0E0032084F85D0000202066C4F8C7
:1020F0003880A687E6872064A4F84400A4F8460048
:102100002065E064A068B0F5004F0BD1206800683E
:1021100020F04000216808602068006840F480409A
:1021200021680860A06AB0F5005F0DD100BF20688B
:10213000006820F40050216808602068006840F4BE
:1021400000502168086000BF2068006800F040006F
:10215000402805D02068006840F0400021680860F1
:10216000E068B0F5E06F2FD9606810B1B9F1010FE8
:1021700009D1A06B00882168C860A06B801CA06397
:10218000E08F401EE0871BE02068806800F00200BE
:1021900002280AD1A06B00882168C860A06B801C4F
:1021A000A063E08F401EE0870AE0FEF7EDFFC01B52
:1021B000A84201D3681C00B915B94FF0030A72E0B8
:1021C000E08F0028E0D14AE0606810B1B9F1010F5A
:1021D00017D1E08F01280AD9A06B00882168C86058
:1021E000A06B801CA063E08F801EE08709E0A06BDD
:1021F000007821680873A06B401CA063E08F401E2C
:10220000E08729E02068806800F00200022818D1E9
:10221000E08F01280AD9A06B00882168C860A06BF4
:10222000801CA063E08F801EE08715E0A06B007823
:1022300021680873A06B401CA063E08F401EE087FC
:102240000AE0FEF7A1FFC01BA84201D3681C00B939
:1022500015B94FF0030A26E0E08F0028D2D1A06A1A
:10226000B0F5005F05D12068006840F48050216817
:1022700008603A462946204600F08CFF08B120202D
:102280002066A06850B900BF002000902068C06898
:10229000009020688068009000BF00BF206E08B1E9
:1022A0004FF0010A00BF012084F85D0000BF00204C
:1022B00084F85C0000BF5046FCE62DE9FF4F89B072
:1022C000044689461D46169E002006900390012074
:1022D00002900020019000BF94F85C00012803D117
:1022E00002200DB0BDE8F08F012084F85C0000BF33
:1022F000FEF74AFF074694F85DA060680790A8467D
:1023000008952068D0F800B0206840680590BAF1C0
:10231000010F0BD00798B0F5827F04D1A06810B9E7
:10232000BAF1040F02D002200190B2E1B9F1000F1E
:1023300002D00B9800B115B901200190A9E194F8E1
:102340005D00042802D0052084F85D00002020668E
:102350000B982064A4F84650A4F84450C4F8389070
:10236000E587A5870020E0642065A06AB0F5005FDE
:102370000DD100BF2068006820F40050216808607B
:102380002068006840F400502168086000BFE068E1
:10239000B0F5E06F02D80898012806D92068406897
:1023A00020F480502168486005E02068406840F4CF
:1023B0008050216848602068006800F04000402894
:1023C00005D02068006840F0400021680860E0689F
:1023D000B0F5E06F68D9606810B1B8F1010F09D1AC
:1023E000A06B00882168C860A06B801CA063E08F90
:1023F000401EE08750E02068806800F0020002285C
:102400002AD1E08F40B30298012825D1A06B008823
:102410002168C860A06B801CA063E08F401EE0872D
:1024200000200290E08FB8B9A06AB0F5005F13D128
:102430000BF0040050B9059800F00800082805D1F9
:102440002068006840F40070216808602068006817
:1024500040F48050216808602068806800F0010026
:1024600080B1B4F8460068B12068C068216C08806B
:10247000206C801C2064B4F84600401EA4F846007E
:1024800001200290FEF780FEC01BB04204D3701CF6
:1024900010B103200190FCE0E08F0028ABD1B4F82C
:1024A00046000028A7D19FE0606810B1B8F1010F85
:1024B00017D1E08F01280AD9A06B00882168C86075
:1024C000A06B801CA063E08F801EE08709E0A06BFA
:1024D000007821680873A06B401CA063E08F401E49
:1024E000E0877AE02068806800F00200022838D196
:1024F000E08FB0B30298012833D1E08F01280AD9C8
:10250000A06B00882168C860A06B801CA063E08F6E
:10251000801EE08709E0A06B007821680873A06B3B
:10252000401CA063E08F401EE08700200290E08FF7
:10253000B8B9A06AB0F5005F13D10BF0040050B930
:10254000059800F00800082805D12068006840F4CC
:102550000070216808602068006840F4805021689D
:1025600008602068806800F0010058B3B4F84600A5
:1025700040B3B4F84600012816D92068C068216C21
:102580000880206C801C2064B4F84600801EA4F8EB
:102590004600B4F84600012812D82068406840F48C
:1025A0008050216848600BE02068007B216C087037
:1025B000206C401C2064B4F84600401EA4F846007D
:1025C00001200290FEF7E0FDC01BB04201D3701C59
:1025D00000B916B9032001905BE0E08F002881D19B
:1025E000B4F846000028FAD1A06AB0F5005F35D1F2
:1025F0003346012211462046009700F079FE30B1A3
:10260000206E40F0020020660320019041E0E06867
:10261000B0F5706F03D12068C06806901EE0206896
:102620000C3004900498007803909DF80C00206B07
:10263000022813D13346012211462046009700F0AC
:1026400057FE30B1206E40F002002066032001905A
:102650001FE00498007803909DF80C0020688068C3
:1026600000F01000102809D1206E40F00200206612
:102670004FF6EF7021688860012001903A4631469C
:10268000204600F087FD18B101200190202020662F
:1026900000BF012084F85D0000BF002084F85C00CA
:1026A00000BF01981DE6042808D14FF0E021096918
:1026B00041F004014FF0E022116107E04FF0E0210A
:1026C000096921F004014FF0E0221161704770B5F3
:1026D00004462546681EB0F1807F01D301200FE03B
:1026E000681E4FF0E02148610F214FF0FF3001F0EC
:1026F000F7FD00204FF0E0218861072008610020ED
:1027000070BD10B504460CB9012010BD94F83D0011
:1027100028B9002084F83C00204600F029F8022067
:1027200084F83D00211D206800F080FE012084F81F
:10273000480000BF84F83E0001213F2001554020A1
:10274000015541200155422001554320015500BF4C
:1027500000BF012084F84400452001554620015562
:102760004720015500BF012084F83D000020CCE740
:1027700070470000014691F83D00012801D001207A
:102780007047022081F83D000868C06840F00100F1
:102790000B68D8601C4B086898421BD00868B0F1E1
:1027A000804F17D0194B0868984213D0184B08680F
:1027B00098420FD0174B086898420BD0164B086808
:1027C000984207D0154B0868984203D0144B08680C
:1027D000984210D108688068124B00EA0302062A6A
:1027E0000FD0B2F5803F0CD00868006840F00100BF
:1027F0000B68186005E00868006840F001000B688D
:1028000018600020BCE70000002C014000040040DC
:1028100000080040000C004000340140004001402E
:102820000050014007000100704770477047704733
:10283000704700002DE9F04704462068C56920680C
:1028400006682068876840F60F0005EA0009B9F1BC
:10285000000F0FD105F0200060B106F0200010B984
:1028600007F0805030B1206F10B12046216F8847AB
:10287000BDE8F087B9F1000F7ED0CF48384018B9D5
:10288000CE4830400028F7D005F0010058B106F4DA
:10289000807040B1012021680862D4F88C0040F0BB
:1028A0000100C4F88C0005F0020058B107F00100E7
:1028B00040B1022021680862D4F88C0040F0040086
:1028C000C4F88C0005F0040058B107F0010040B1D5
:1028D000042021680862D4F88C0040F00200C4F89B
:1028E0008C0005F0080070B106F0200010B9B24865
:1028F000384040B1082021680862D4F88C0040F0CC
:102900000800C4F88C0005F4006060B106F0806037
:1029100048B14FF4006021680862D4F88C0040F0A0
:102920002000C4F88C00D4F88C0000284ED005F0AC
:10293000200050B106F0200010B907F0805020B1FF
:10294000206F10B12046216F8847D4F88CA02068F2
:10295000806800F04000402802D00AF0280070B3E0
:10296000204600F097FE2068806800F04000402874
:1029700021D100BF00BF00E029E02168083151E803
:10298000001F21F040002168083141E80002002AC0
:10299000F1D100BFE06F50B18948E16F8863E06F0B
:1029A000FDF7B1FF90B1E06F816B88470EE02046E4
:1029B000FFF73EFF0AE02046FFF73AFF06E0FFE799
:1029C0002046FFF735FF0020C4F88C0050E7E06E8A
:1029D000012870D105F0100000286CD006F010001E
:1029E0000028FAD01020216808622068806800F072
:1029F0004000402860D1E06F006840681FFA80F80E
:102A0000B8F1000F56D0B4F85C00404552DDA4F890
:102A10005E80E06F0068006800F02000F0BB00BF3F
:102A200000BF216851E8001F21F48070226842E84D
:102A300000010029F5D100BF00BF00BF21680831A7
:102A400051E8001F21F001002168083141E800022F
:102A5000002AF3D100BF00BF00BF2168083151E850
:102A6000001F21F040002168083141E80002002ADF
:102A7000F3D100BF2020C4F888000020E06600BF2A
:102A800000BF216851E8001F21F01000226842E8D1
:102A900000010029F5D100BFE06F00E001E0FDF783
:102AA000F7FEB4F85C00B4F85E20801A81B22046CC
:102AB000FFF7BAFEDCE641E034F85C0F6188401AAB
:102AC0001FFA80F860885C3CB8B3B8F1000F34D0CE
:102AD00000BF00BF216851E8001F21F490702268F8
:102AE00042E800010029F5D100BF00BF00BF216806
:102AF000083151E8001F304AD24301EA0200216840
:102B0000083141E80002002AF1D100BF2020C4F8BA
:102B100088000020E066206700BF00BF216851E800
:102B2000001F21F01000226842E800010029F5D1C1
:102B300000BF41462046FFF777FE99E605F4801076
:102B400050B107F4800038B14FF48010216808625A
:102B50002046FFF76CFE8BE605F0800058B106F0CA
:102B6000800010B907F4000028B1606F10B1204652
:102B7000616F88477CE605F0400030B106F0400008
:102B800018B1204600F0BCFD72E605F4000030B13B
:102B900006F0804018B12046FFF748FE68E605F0D1
:102BA000807030B106F0004018B12046FFF73DFEBE
:102BB0005EE600BF5CE6000001000010200100049A
:102BC0007B36000810B504460CB9012010BDA06981
:102BD00000B100E000BFD4F8840028B9002084F8D8
:102BE0008000204600F02AF82420C4F884002068E1
:102BF000006820F0010021680860204601F032F8EA
:102C0000012800D1E2E7A06A10B1204600F07EFC66
:102C10002068406820F490402168486020688068FF
:102C200020F02A00216888602068006840F00100D8
:102C300021680860204600F0E5FCC7E710B586B0C3
:102C400004462949206888424BD100BF00BF27486D
:102C5000006E40F48040254908660846006E00F486
:102C60008040009000BF00BF00BF00BF00BF08460B
:102C7000C06C40F00200C8640846C06C00F002005E
:102C8000009000BF00BF00BF00BF00BF0846C06C7F
:102C900040F00200C8640846C06C00F002000090DA
:102CA00000BF00BF00BF4020019002200290012021
:102CB0000390022004900720059001A90C48FEF71C
:102CC00069F9802001900720059001A90848FEF7C6
:102CD00061F92520FEF7A7FA032211462520FEF709
:102CE000B6FA06B010BD00000038014000100240E6
:102CF0000004004870B504460D461646D4F8880016
:102D000020282CD105B10EB9012070BD00BF94F868
:102D10008000012801D10220F7E7012084F880001B
:102D200000BF0020E0660F492068884211D020686B
:102D3000406800F4000060B100BF00BF216851E8A6
:102D4000001F41F08060226842E800010029F5D1AF
:102D500000BF32462946204601F068F9D5E7022037
:102D6000D3E700000080004010B5044620492068E9
:102D700088423BD11F48008800F4004088BB1D48B2
:102D8000008800F4804070B11B4800780A2803D006
:102D900000201849088024E01648008840F40040CC
:102DA000144908801DE0144800780D2806D1114808
:102DB000008840F480400F49088012E00E480078F7
:102DC0000C490988C1F30D010C4A50540948008888
:102DD000401C0849088008460088C72801DD0020FB
:102DE0000880012204490648FFF784FF10BD000057
:102DF000003801403400002036000020DC010020B3
:102E0000A4020020704700BFFEE700BFFEE7704746
:102E10007047000070B5164DED6805F00304144DC1
:102E2000ED68C5F303156B1C022C0CD0032C09D1E3
:102E3000104DB5FBF3F50E4EF668C6F3062605FBFE
:102E400006F10AE000BF0C4DB5FBF3F5084EF6683D
:102E5000C6F3062605FB06F100BF00BF044DED6872
:102E6000C5F341656D1C6A00B1FBF2F070BD000056
:102E70000010024000127A000024F40070B50446ED
:102E80000E461546022C7CD12E7000BF0122042173
:102E90007A48FEF76DF900BF012001F070FC00BF19
:102EA000012204217648FEF763F900BF012001F0FA
:102EB00066FC00BF002204217148FEF759F900BFEB
:102EC000012001F05CFC00BF012204216D48FEF7E7
:102ED0004FF900BF012001F052FC00BF0022042185
:102EE0006848FEF745F900BF012001F048FC29467B
:102EF000012000F009F900BF012204216148FEF71A
:102F000037F900BF012001F03AFC00BF0122042183
:102F10005B48FEF72DF900BF00BF0122042157488E
:102F2000FEF726F900BF00BF012204215448FEF736
:102F30001FF900BF00BF012204215248FEF718F913
:102F400000BF012001F01BFC00BF002204214C48FF
:102F5000FEF70EF900BF012001F011FC00BF0022B6
:102F600004214648FEF704F900BF012001F007FCE8
:102F700000BF002204214348FEF7FAF800BF0120F9
:102F800000E016E001F0FBFB2946012000F07CF890
:102F900000BF012204213B48FEF7EAF800BF0120F0
:102FA00001F0EDFB00BF012204213548FEF7E0F8F7
:102FB00062E00CB1012C5FD100BF01225102304808
:102FC000FEF7D6F800BF012001F0D9FB00BF0022B8
:102FD0004FF400712A48FEF7CBF800BF052001F03E
:102FE000CEFB00BF012204212448FEF7C1F800BF38
:102FF00000BF012204212248FEF7BAF800BF00BF3B
:10300000012204211F48FEF7B3F800BF012001F0A0
:10301000B6FB00BF002204211948FEF7A9F800BF43
:10302000012001F0ACFB00BF002204211348FEF791
:103030009FF800BF012001F0A2FB00BF0022042185
:103040001048FEF795F800BF012001F098FB2946D3
:10305000032000F019F800BF012204210948FEF7FF
:1030600087F800BF012001F08AFB00BF0122042184
:103070000348FEF77DF800BF70BD00000010004857
:1030800000140048000800482DE9F04706460F46A6
:103090004FF000080024A146002534462EE04FF0F2
:1030A000000823E000BF012204211648FEF760F863
:1030B00000BF6806050E012001F061FB20211148C8
:1030C000FEF74EF8814600BF002204210D48FEF7AE
:1030D0004FF800BFB9F1000F01D045F00105012004
:1030E00001F04DFB08F1010000F0FF08B8F1080FF6
:1030F000D8DB381900F8015C601EC4B2002CCEDCAD
:10310000BDE8F087001000482DE9F04105460E4665
:1031100000270024A0462C4636E0301910F8017C28
:103120004FF000082BE000BF012204211848FEF7F1
:103130001FF800BF07F08000802806D100BF0122E1
:1031400040211348FEF714F806E000BF002240219A
:103150000F48FEF70DF800BF012001F010FB00BF83
:10316000002204210A48FEF703F800BF012001F005
:1031700006FB7806070E08F1010000F0FF08B8F121
:10318000080FD0DB601EC4B2002CC6DCBDE8F081A5
:1031900000100048F8B504460E4615463346002296
:1031A0004FF4C0512046009500F026F828B1206E5B
:1031B00040F0200020660320F8BD33460022802125
:1031C0002046009500F094F828B1206E40F02000D1
:1031D00020660320F0E7334600224FF4C06120460A
:1031E000009500F009F828B1206E40F0200020661C
:1031F0000320E1E70020DFE72DE9FC5F04460D46F0
:1032000016461F46DDF8309000200090FDF7BCFF09
:10321000A0EB0900A7EB0008FDF7B6FF8246206887
:1032200000F10C0B31480068C0EBC00000EB8000DF
:10323000000D00FB08F0019050E0B5F5C06F05D11E
:1032400026B99BF8000000909DF80000781C00282B
:1032500044D0FDF799FFA0EB0A00404502D2B8F137
:10326000000F34D12068406820F0E00021684860F9
:103270006068B0F5827F0DD1A068B0F5004F03D033
:10328000A068B0F5806F05D12068006820F040008C
:1032900021680860A06AB0F5005F0DD100BF20680A
:1032A000006820F40050216808602068006840F43D
:1032B00000502168086000BF012084F85D0000BF55
:1032C000002084F85C0000BF0320BDE8FC9F01984B
:1032D00008B94FF000080198401E019020688068EE
:1032E0002840B042A9D10020EFE7000028000020CC
:1032F0002DE9F84F04460D4690461E46DDF828900D
:10330000FDF742FFA0EB0900371AFDF73DFF8246AB
:103310002C480068C0F3CB307843009045E0701C27
:10332000002842D0FDF730FFA0EB0A00B84200D2DF
:10333000A7BB2068406820F0E00021684860606812
:10334000B0F5827F0DD1A068B0F5004F03D0A06822
:10335000B0F5806F05D12068006820F0400021683A
:103360000860A06AB0F5005F0DD100BF206800685A
:1033700020F40050216808602068006840F4005084
:103380002168086000BF012084F85D0000BF0020B4
:1033900084F85C0000BF0320BDE8F88FFFE70098C9
:1033A00000B900270098401E0090206880682840DF
:1033B000A84201D1012000E000204045AFD100200B
:1033C000EAE7000028000020704710B5FDF7E2FE94
:1033D00010BD00000348006840F470000149086017
:1033E0007047000088ED00E010B50E480068C06826
:1033F00000F0010078B10C490869804700200949B4
:103400000968486200BF642006490968C8626421EF
:103410000448C16000BF6FF00100024909680861FB
:1034200010BD0000AC310020E800002010B502689B
:103430002D4B984211D0B0F1804F0ED02B4B9842BB
:103440000BD02B4B984208D02A4B984205D02A4BE0
:10345000984202D0294B984203D122F070024B6867
:103460001A43214B98421AD0B0F1804F17D01F4B0E
:10347000984214D01E4B984211D01E4B98420ED049
:103480001D4B98420BD01E4B984208D01D4B9842C2
:1034900005D01D4B984202D0184B984203D122F41C
:1034A0004072CB681A4322F080034C6943EA04025D
:1034B00002608B68C3620B6883620B4B98420ED02C
:1034C0000D4B98420BD00E4B984208D00D4B9842B2
:1034D00005D00D4B984202D0084B984201D10B69A0
:1034E00003630123436110BD002C01400004004030
:1034F00000080040000C0040003401400050014032
:1035000000400140004401400048014090F828106C
:1035100001F0010139B10168496821F40031C26A42
:1035200011430268516090F8281001F0020102294D
:1035300007D10168496821F48031026B11430268A8
:10354000516090F8281001F00401042907D10168A6
:10355000496821F48021426B11430268516090F860
:10356000281001F00801082907D10168496821F4F1
:103570000041826B11430268516090F8281001F0FD
:103580001001102907D10168896821F48051C26BAC
:1035900011430268916090F8281001F02001202961
:1035A00007D10168896821F40051026C1143026857
:1035B000916090F8281001F04001402913D1016872
:1035C000496821F48011426C114302685160416CDA
:1035D000B1F5801F07D10168496821F4C001826CF0
:1035E00011430268516090F8281001F08001802991
:1035F00007D10168496821F40021C26C11430268B7
:103600005160704738B504460020C4F88C00FDF7BF
:10361000BBFD05462068006800F0080008280CD1B2
:103620006FF07E402B4600224FF4001100902046A0
:1036300000F0B4FD08B1032038BD2068006800F038
:10364000040004280CD16FF07E402B4600224FF47A
:1036500080010090204600F0A1FD08B10320EBE7B7
:103660002020C4F88400C4F888000020E06600BF71
:1036700084F8800000BF00BFDEE770B50546AC6A85
:103680000020A4F85E00A4F856002046FFF7D0F80A
:1036900070BD000000BF00BF026852E8002F22F496
:1036A0009071036843E80012002AF5D100BF00BF03
:1036B00000BF0268083252E8002F104B02EA0301F3
:1036C0000268083242E80013002BF2D100BFC16E3D
:1036D00001290CD100BF00BF026852E8002F22F080
:1036E0001001036843E80012002AF5D100BF202131
:1036F000C0F888100021C16601677047FEFFFFEF28
:1037000010B5044600BF00BF216851E8001F21F03A
:103710004000226842E800010029F5D100BF2020C6
:10372000C4F88400002060672046FFF76BFB10BDE3
:103730002DE9F0410446B4F86070D4F888002228DE
:1037400057D12068406A86B2A56D06EA0700288036
:10375000A06D801CA065B4F85E00401EA4F85E0059
:10376000B4F85E0000284AD100BF00BF216851E8CC
:10377000001F21F49070226842E800010029F5D171
:1037800000BF00BF00BF2168083151E8001F21F0D1
:1037900001002168083141E80002002AF3D100BF8E
:1037A0002020C4F8880000202067E06E01281CD18A
:1037B0000020E06600BF00BF216851E8001F21F033
:1037C0001000226842E800010029F5D100BF2068FE
:1037D000C069C0F3001010B1102021680862B4F86D
:1037E0005C102046FFF720F809E02046FFF7BCFAFE
:1037F00005E02068806940F0080021688861BDE824
:10380000F08100002DE9F84F0446B4F860B020685C
:10381000C5692068006800902068D0F808A0D4F836
:10382000880022287ED1B4F8689096E02068406A2B
:103830001FFA80F8A76D08EA0B003880A06D801C85
:10384000A065B4F85E00401EA4F85E002068C5695B
:1038500005F00700B0B305F0010060B1009800F476
:10386000807040B1012021680862D4F88C0040F0DB
:103870000100C4F88C0005F0020058B10AF0010004
:1038800040B1022021680862D4F88C0040F00400A6
:10389000C4F88C0005F0040058B10AF0010040B1F2
:1038A000042021680862D4F88C0040F00200C4F8BB
:1038B0008C00D4F88C0028B12046FEF7B9FF002018
:1038C000C4F88C00B4F85E0068BB00BF00BF21687C
:1038D00051E8001F21F48070226842E800010029AD
:1038E000F5D100BF00BF00BF2168083151E8001FBB
:1038F000344A01EA02002168083141E80002002A46
:10390000F2D100BF2020C4F8880000202067E06EBC
:1039100001281FD10020E06600BF00BF216851E8E8
:10392000001F01E046E018E021F01000226842E8A4
:1039300000010029F2D100BF2068C069C0F3001067
:1039400010B1102021680862B4F85C102046FEF720
:103950006BFF02E02046FFF707FAB9F1000F04D031
:1039600005F0200000287FF461AFB4F85E6006B374
:10397000B4F86800B04223DD00BF00BF2168083101
:1039800051E8001F21F080502168083141E8000211
:10399000002AF3D100BF0C48206700BF00BF216898
:1039A00051E8001F41F02000226842E80001002990
:1039B000F5D105E02068806940F008002168886141
:1039C000BDE8F88FFEFFFFEF3137000870B5044601
:1039D000B4F86060D4F88800222857D12068406A83
:1039E00085B2F0B22840A16D0870A06D401CA065A2
:1039F000B4F85E00401EA4F85E00B4F85E00002833
:103A00004AD100BF00BF216851E8001F21F4907027
:103A1000226842E800010029F5D100BF00BF00BFC5
:103A20002168083151E8001F21F0010021680831A8
:103A300041E80002002AF3D100BF2020C4F888002A
:103A400000202067E06E01281CD10020E06600BF46
:103A500000BF216851E8001F21F01000226842E8F1
:103A600000010029F5D100BF2068C069C0F3001033
:103A700010B1102021680862B4F85C102046FEF7EF
:103A8000D3FE09E02046FFF76FF905E02068806962
:103A900040F008002168886170BD00002DE9F05FEA
:103AA0000446B4F860A02068C5692068D0F800B06A
:103AB0002068D0F80890D4F8880022287DD1B4F886
:103AC000688095E02068406A87B20AF0FF003840BD
:103AD000A16D0870A06D401CA065B4F85E00401E8A
:103AE000A4F85E002068C56905F00700A8B305F0DA
:103AF000010058B10BF4807040B1012021680862C8
:103B0000D4F88C0040F00100C4F88C0005F00200ED
:103B100058B109F0010040B1022021680862D4F8D0
:103B20008C0040F00400C4F88C0005F0040058B18B
:103B300009F0010040B1042021680862D4F88C002B
:103B400040F00200C4F88C00D4F88C0028B1204664
:103B5000FEF76EFE0020C4F88C00B4F85E0068BB6F
:103B600000BF00BF216851E8001F21F48070226867
:103B700042E800010029F5D100BF00BF00BF216865
:103B8000083151E8001F354A01EA02002168083176
:103B900041E80002002AF2D100BF2020C4F88800CA
:103BA00000202067E06E01281FD10020E06600BFE2
:103BB00000BF216851E8001F01E046E018E021F055
:103BC0001000226842E800010029F2D100BF2068FD
:103BD000C069C0F3001010B1102021680862B4F869
:103BE0005C102046FEF720FE02E02046FFF7BCF8FE
:103BF000B8F1000F04D005F0200000287FF462AF78
:103C0000B4F85E6006B3B4F86800B04223DD00BFCC
:103C100000BF2168083151E8001F21F08050216861
:103C2000083141E80002002AF3D100BF0C482067A8
:103C300000BF00BF216851E8001F41F0200022684A
:103C400042E800010029F5D105E02068806940F0D4
:103C5000080021688861BDE8F09F0000FEFFFFEFCB
:103C6000CD3900082DE9FE4F044600200290E449BA
:103C70002068884200D100E000BF2169A0680843A5
:103C800061690843E16940EA010820680068DD498C
:103C9000084040EA0800216808602068406820F475
:103CA0004050E168084321684860D4F81880D4493E
:103CB0002068884202D0206A40EA080820688068AC
:103CC000D149084040EA0800216888602068C06A3D
:103CD00020F00F00616A08432168C86200BFCB4929
:103CE0002068884216D1CA48006800F0030030B14D
:103CF000012808D0022804D0032808D105E00125B6
:103D000007E0022505E0042503E0082501E0102571
:103D100000BF8DE0BF492068884216D1BC480068CA
:103D200000F00C0030B1042808D0082804D00C287A
:103D300008D105E0002507E0022505E0042503E0A1
:103D4000082501E0102500BF72E0B34920688842D1
:103D500016D1AF48006800F0300030B1102808D00C
:103D6000202804D0302808D105E0002507E00225EE
:103D700005E0042503E0082501E0102500BF57E019
:103D8000A6492068884216D1A148006800F0C0000A
:103D900030B1402808D0802804D0C02808D105E0E0
:103DA000002507E0022505E0042503E0082501E0E1
:103DB000102500BF3CE09A492068884219D19448F8
:103DC000006800F4407048B1B0F5807F0AD0B0F5CB
:103DD000007F05D0B0F5407F08D105E0002507E061
:103DE000022505E0042503E0082501E0102500BFB9
:103DF0001EE083492068884219D18548006800F494
:103E0000406048B1B0F5806F0AD0B0F5006F05D0C2
:103E1000B0F5406F08D105E0002507E0022505E078
:103E2000042503E0082501E0102500BF00E010256F
:103E300000BF7349206888425BD135B1022D08D09C
:103E4000042D08D0082D0DD109E0FDF701FE06462E
:103E50000CE0744E0AE0FDF71FFE064606E04FF444
:103E6000004603E000260120029000BF00BF002EA4
:103E700010D06D49606A31F81000B6FBF0F9606847
:103E800000EB4000484503D860680003484502D273
:103E900001200290A8E06449606A31F810C06246CF
:103EA000002330461946FCF7B5F94FF4807C002218
:103EB000A0FB0C3B01FB0CB100FB02106168490840
:103EC00059185041CDE90010D4F804C062460023CF
:103ED00008460199FCF79EF90746B7F5407F05D3E0
:103EE000B7F5801F02D22068C7607DE001200290F4
:103EF0007AE0E069B0F5004F3FD1092D17D2DFE835
:103F000005F005090D160F1616161300FDF7A0FD96
:103F1000064610E0FDF7AEFD06460CE0414E0AE015
:103F2000FDF7BAFD064606E04FF4004603E0002622
:103F30000120029000BF00BF86B33B49606A31F8A0
:103F40001000B6FBF0F04000616800EB5100B0FBE0
:103F5000F1F7102F0ED3B7F5803F0BD24FF6F0706C
:103F600007EA000AC7F342004AEA000A2068C0F8DC
:103F70000CA039E00120029036E0092D18D2DFE8CC
:103F800005F005090E17101717171400FDF760FD4F
:103F9000064611E0FDF76EFD06460DE024E0214ED9
:103FA0000AE0FDF779FD064606E04FF4004603E01F
:103FB00000260120029000BF00BFAEB11A49606A1E
:103FC00031F81000B6FBF0F0616800EB5100B0FB77
:103FD000F1F7102F06D3B7F5803F03D2B8B22168AE
:103FE000C86001E0012002900120A4F86A00A4F852
:103FF00068000020206760670298BDE8FE8F00001F
:1040000000800040F369FFCFFFF4FF11003801404A
:10401000881002400044004000480040004C00402E
:10402000005000400024F4001069000830B5034639
:104030009965A3F85C20A3F85E200020186700BFF4
:104040009868B0F5805F0AD1186920B940F2FF1076
:10405000A3F8600020E0FF20A3F860001CE098684F
:1040600048B9186918B9FF20A3F8600014E07F2050
:10407000A3F8600010E09868B0F1805F09D118697A
:1040800018B97F20A3F8600006E03F20A3F8600085
:1040900002E00020A3F8600000BF0020C3F88C00FD
:1040A0002220C3F8880000BF00BF1C68083454E811
:1040B000004F44F001001C68083444E80005002D5E
:1040C000F3D100BF586EB0F1005F31D1B3F8680092
:1040D00090422DDC9868B0F5805F04D1186910B962
:1040E0002A48186701E02A48186700BF002083F8B3
:1040F000800000BF186960B100BF00BF1C6854E8B1
:10410000004F44F480701D6845E80004002CF5D190
:1041100000BF00BF00BF1C68083454E8004F44F0E3
:1041200080501C68083444E80005002DF3D12BE0D2
:104130009868B0F5805F04D1186910B91548186700
:1041400001E01548186700BF002083F8800000BF19
:10415000186960B100BF00BF1C6854E8004F44F408
:1041600090701D6845E80004002CF5D10CE000BFFC
:1041700000BF1C6854E8004F44F020001D6845E86B
:104180000004002CF5D100BF002030BD0538000828
:104190009D3A000831370008CD3900082DE9F0417B
:1041A00004460D4617469846069E6AE0701C002895
:1041B00067D0FCF7E9FFA0EB0800B04200D846BB8F
:1041C00000BF00BF216851E8001F21F4D0702268B1
:1041D00042E800010029F5D100BF00BF00BF2168FF
:1041E000083151E8001F21F001002168083141E841
:1041F0000002002AF3D100BF2020C4F88400C4F8D4
:10420000880000BF002084F8800000BF0320BDE8C4
:10421000F0812068006800F0040088B32068C0695D
:10422000C0F3C02060B34FF400602168086200BF93
:1042300000BF216851E8001F21F4D070226842E8D5
:1042400000010029F5D100BF00BF00BF216808317F
:1042500051E8001F21F001002168083141E8000207
:10426000002AF3D100BF202044F8840F6060A060D2
:10427000843C00BF002084F8800000BF0320C6E714
:10428000FFE72068C0692840A84201D1012000E072
:104290000020B8428AD00020B9E7000010B50248DB
:1042A000FEF7C8FA10BD0000A402002000BFFEE720
:1042B0000FB4054B10B503A9044A029800F034F876
:1042C00010BC5DF814FB0000FD4800083000002021
:1042D00002480068C0F30220704700000CED00E0C7
:1042E00010B5002804DB0A07130E054A135406E034
:1042F0000A07140E034A00F00F031B1FD45410BD0D
:1043000000E400E018ED00E002E008C8121F08C158
:10431000002AFAD170477047002001E001C1121F46
:10432000002AFBD1704700002DE9FF4F8DB00F46EA
:104330000546002606E025280BD0DDE90F12904740
:104340006D1C761C28780028F5D111B03046BDE8E8
:10435000F08F0024A246A1460122E94900E004436F
:1043600015F8013F203B02FA03F00842F7D1287804
:104370002A2810D06FF02F022878A0F130010929E7
:1043800014D80AEB8A0102EB410144F0020400EB6D
:10439000010A6D1CF0E701CF5FEA000A03D544F47F
:1043A0000054CAF1000A44F002046D1C28782E283B
:1043B00017D115F8010F44F004042A280ED06FF02D
:1043C0002F022878A0F1300109290AD809EB8901C8
:1043D00002EB410100EB01096D1CF2E757F8049B69
:1043E0006D1C28786C280FD006DC4C2817D0682864
:1043F0000DD06A2814D104E0742810D07A280FD187
:104400000DE044F400140AE044F4801401E044F4A4
:1044100040146978814202D104F580146D1C6D1C32
:1044200028786E281ED00CDC632830D004DC0028ED
:104430008BD0582811D19FE0642867D069280CD10F
:1044400064E073282DD004DC6F2872D0702804D16A
:1044500094E075286ED078286DD0DDE90F12904772
:10446000761C4BE1C4F30250022806D0032809D081
:10447000042801CF09D0066040E101CFF117C0E95F
:1044800000613BE101CF068038E1067036E117F8A4
:10449000040B8DF8000000208DF80100EB46012090
:1044A00003E057F804BB4FF0FF3061074FF0000105
:1044B00002D40DE008F10101884649450FDA804534
:1044C000F8DB1BF808100029F4D108E008F101011D
:1044D00088468142FADB1BF808100029F6D1DDE995
:1044E0000F23AAEB08008146214600F031F9304441
:1044F00000EB080604E0DDE90F121BF8010B904702
:10450000B8F10108F7D221464846F2E00A21C4F387
:1045100002524FF0000B0891022A04D001CFC117BC
:10452000032A09D00AE0FF1D27F00707F7E8020178
:1045300008E02CE01EE01FE000B2C117042A01D100
:1045400040B2C117021E71F1000206DA0023D0EB5F
:10455000030063EB01012D2202E0220504D52B228A
:104560008DF82420012203E0E20701D02022F7E7A2
:10457000904653E00A210BE0102109E010214FF092
:10458000000B44F004044FF00809089103E00821EF
:104590004FF0000B0891C4F30252022A04D001CF5D
:1045A0000021032A06D006E0FF1D27F00707F7E8E1
:1045B000020103E080B2042A00D1C0B24FF000082B
:1045C00022072BD52A78702A07D0DDF820C08CF07E
:1045D000100C5CEA0B0C05D00EE040228DF8242074
:1045E000012208E050EA010306D030238DF8243080
:1045F0008DF8252002229046089B83F0080353EA99
:104600000B030BD150EA010201D1620706D530221B
:104610008DF824204FF00108A9F101092A78582AC1
:1046200004D038A20B9208AA0A920BE03AA2F9E74A
:104630005B46089AFBF7EEFD0B9B9B5C0A9A521EA9
:104640000A92137050EA0102F2D10A98ADEB000011
:1046500000F1200B600702D524F4803401E04FF014
:104660000109D94502DDA9EB0B0000E0002000EBB9
:104670000B0141440890AAEB010AE00306D4DDE9EE
:104680000F232146504600F063F806444FF000091E
:1046900008E009A911F80900DDE90F12904709F1B6
:1046A0000109761CC145F4DBE0030CD5DDE90F23DD
:1046B0002146504600F04CF8064404E0DDE90F12B4
:1046C00030209047761C0899481E08900029F5DC98
:1046D00008E00A980A990078491C0A91DDE90F124E
:1046E0009047761CBBF10001ABF1010BF1DC2146D8
:1046F0005046DDE90F2300F019F806446D1C21E651
:1047000009280100303132333435363738396162A7
:10471000636465660000000030313233343536376B
:104720003839414243444546000000002DE9F0413C
:10473000044600251E461746880404D405E0394681
:104740002020B0476D1C641EF9D52846BDE8F081D5
:104750002DE9F041044600251E469046C80301D5C8
:10476000302700E02027880404D505E0414638467C
:10477000B0476D1C641EF9D52846BDE8F08100E005
:10478000401E0028FCDC704710B504460420FDF7ED
:104790008AFF0148046010BD2C00002010B50446BB
:1047A0004FF47A7104FB01F000F002F810BD000034
:1047B00070B5034600224FF0E02675690D4E36684D
:1047C00003FB06F44FF0E026B16910E04FF0E0265D
:1047D000B06988420BD0884202D20E1A324402E0FD
:1047E0002E1A0E4432440146A24200D300E0EDE707
:1047F00000BF70BD2C00002070B504460D4612208D
:104800000A4908600020486088600846C5600020AA
:10481000086148618861C861086222460448FCF763
:104820004DF908B1012070BD0020FCE76031002087
:10483000FC3000202DE9F04188B004460D461646B4
:104840001F46DDF83880182102A8FBF71BFD294818
:10485000FCF7B9F928482749086000204860002182
:1048600024488160C0F80C80017441748174042173
:104870004162102181620321C1620121016344610F
:104880008561C66107621C214163082181630021A3
:10489000C163FCF7AFF918B1012008B0BDE8F081A1
:1048A0000020029003900220049001200590002037
:1048B0000690079002A90F48FCF735F908B10220CD
:1048C000EBE7002003460222114600900948FCF75E
:1048D0005CF908B10320E0E70648FCF7F7FA08B1F5
:1048E0000420DAE7002201210248FCF756F80020F4
:1048F000D3E70000FC3000200064004000BF054A00
:10490000126802F04002002AF9D0C2B2014B0C3307
:104910001A6070471C3801402DE9F04104460D46ED
:1049200016461F462A2000F0FDFB201200F00AFC6C
:10493000E0B200F007FC301200F004FCF0B200F02E
:1049400001FC2B2000F0EEFB281200F0FBFBE8B28C
:1049500000F0F8FB381200F0F5FBF8B200F0F2FBC3
:104960002C2000F0DFFBBDE8F0810000F8B5054623
:104970000020009028128DF80000E8B28DF80100A8
:10498000EF231A4600210846FFF7C6FF00240DE07A
:104990009DF80000104901F814009DF80100012164
:1049A00001EB44010C4A5054601C84B2B4F5B45F6E
:1049B000EEDB00BF012210210848FCF7D9FB00BF45
:1049C000002606E04FF43451034800F075FB701CDC
:1049D00086B20A2EF6DBF8BD34030020000400483E
:1049E0002DE9F04706460F4690469A460024454674
:1049F0000320A0EB480952E03A1B91B2721B90B21F
:104A0000524600F0E3F83A1B91B2721990B2524646
:104A100000F0DCF87A1991B2321B90B2524600F0E5
:104A2000D5F83A1B91B2721B90B2524600F0CEF804
:104A30007A1B91B2321B90B2524600F0C7F83A1975
:104A400091B2721990B2524600F0C0F87A1B91B23E
:104A5000321990B2524600F0B9F87A1991B232196F
:104A600090B2524600F0B2F83A1991B2721B90B26D
:104A7000524600F0ABF8641CB9F1000F03DAA00055
:104A8000801D814404E0601B80000A3081446D1E5B
:104A90007A1991B2321990B2524600F097F8AC42AE
:104AA000AADDBDE8F08700002DE9FF4F87B007467B
:104AB0008846914600200590049001900A98804510
:104AC0002DD14A46414638460A9BFFF725FF002074
:104AD00001900FE03A48008801123A4A019802F822
:104AE00010103748017801984000401C115401987B
:104AF000401C0190A9EB070101988142EAD800BF50
:104B0000012210213048FCF733FB00BFA9EB07005E
:104B100041002C4800F0D0FA0BB0BDE8F08FA9EBB3
:104B200007040A98A0EB08050397CDF80880002C2D
:104B300002DD4FF0010A06E014B94FF0000A02E06E
:104B40004FF0FF3A6442002D02DD4FF0010B06E00A
:104B500015B94FF0000B02E04FF0FF3B6D42AC4245
:104B600001DD264600E02E460020069022E0029A53
:104B700091B2039A90B2149A00F028F80598204454
:104B800005900498284404900598B04205DD0598E6
:104B9000801B05900398504403900498B04205DDB3
:104BA0000498801B04900298584402900698401C78
:104BB00080B20690711C06988842D8DD00BFABE732
:104BC00044000020340300200004004870B504466F
:104BD0000D4616462B46224629462046FFF79CFEE8
:104BE000304600F0BFFA70BD2DE9F84305460E4689
:104BF00017469846089C33463A4631462846009464
:104C0000FFF752FF43462A46314628460094FFF7F5
:104C10004BFF43463A46414628460094FFF744FF7F
:104C200043463A46314638460094FFF73DFFBDE81B
:104C3000F88300002DE9F05F0746884691469A46C2
:104C4000DDF828B0002400250026A9EB0700401C51
:104C5000AAEB0801491C48434500B5F5345F03D968
:104C6000A5F534564FF4345553464A464146384626
:104C7000FFF752FE24E000240AE04FEA2B20124AFC
:104C800002F814006000401C02F800B0601C84B2FE
:104C9000B4EB550FF1D300BF012210210B48FCF7F4
:104CA00067FA00BF2946084800F006FA06B908E08E
:104CB000B6F5345F02D9A6F5345601E03546002634
:104CC000D9E700BFBDE8F09F34030020000400488E
:104CD00010B50246012000E050430B1EA1F1010473
:104CE000E1B2F9D110BD00002DE9F04F85B0814649
:104CF0008A4616461C46DDF838B00027B84600251F
:104D000000200490039002900190A6F12000C6B20A
:104D100004EBD4714910C1F1F001494503DBC4F142
:104D2000F001514502DA05B0BDE8F08F04EBD47014
:104D300009EB6000401E82B20AEB0400401E83B201
:104D4000514648460094FFF7E7FD0C2C06D0102C86
:104D50000BD0182C0ED0202C18D112E006EB4600F8
:104D60005E4901EB8000049011E05D4800EB061005
:104D700004900CE006EB46005A4901EB0010049049
:104D800005E0594800EBC610049000E0CBE700BFF7
:104D9000182C66D02046E31704EB5373DB10214632
:104DA0004FEAE47C04EB5C7C4FEAEC0CA4EBCC0C0B
:104DB000BCF1000F02D04FF0010C01E04FF0000CED
:104DC0006344224604EBD27C4FEA6C0C03FB0CF3E9
:104DD000DBB20393002540E00498475D0C2C1BD107
:104DE0004FF0000814E007F0800010B10F98029017
:104DF00005E0BBF1000F02D13C4800880290029808
:104E000000F0B0F97806070E08F1010000F0FF0885
:104E1000B8F1060FE7DB1EE0102C01D0202C1AD1D0
:104E20004FF0000814E007F0800010B10F980290D6
:104E300005E0BBF1000F02D12C48008802900298D7
:104E400000F090F97806070E08F1010000F0FF0865
:104E5000B8F1080FE7DB681CC5B203988542BBDBDD
:104E60003AE02001C11700EB5171C1F3C701039172
:104E700000252EE006EB46001A4901EB0010475DC5
:104E8000284605EBD0714910A5EB410111B9082066
:104E9000019001E0042001904FF0000814E007F0B9
:104EA000800010B10F98029005E0BBF1000F02D115
:104EB0000E4800880290029800F054F97806070E18
:104EC00008F1010000F0FF0801988045E7DB681C4D
:104ED000C5B203988542CDDB00BF24E738690008DE
:104EE000AC6D00089C7300086C850008460000202B
:104EF0002DE9FF4F83B0074691461E46DDE9105A63
:104F00000020029000243AE0301B401EC1B20A206B
:104F1000FFF7DEFEB9FBF0F00A21B0FBF1F201FB76
:104F200012080298B8B9701EA04214DDB8F1000F43
:104F30000FD10020AB4605EBDB71491001FB04717A
:104F4000CDE9000A88B22B4620220499FFF7CCFE57
:104F500013E0012002900020AB4605EBDB71491005
:104F600001FB0471CDE9000A88B208F13001CAB230
:104F70002B460499FFF7B8FE00BF601CC4B2B442D0
:104F8000C2DB07B0BDE8F08F2DE9FC5F04460D469B
:104F900090469946DDE90D7A0C9E04F0FF0B08EB74
:104FA00004001FFA80F809EB05001FFA80F917E0EA
:104FB000444502DB5C46A81985B24D4500DB15E08F
:104FC0000020CDE9000A3A78334629462046FFF70B
:104FD0008BFE304606EBD07104EB61018CB27F1C76
:104FE00038787E2802DC38782028E1DA00BFBDE876
:104FF000FC9F2DE9FF4F85B0064693461F46DDE92D
:105000001389129C00200490002550E0781B401E5C
:10501000C1B20A20FFF75CFEBBFBF0F00A21B0FB37
:10502000F1F201FB120A049860BB781EA84229DD48
:10503000BAF1000F24D108F0800080B108F001001F
:1050400004EBD471491001FB0561CDE9000903941B
:1050500088B2234630220699FFF746FE0FE008F09B
:10506000010004EBD471491001FB0561CDE9000991
:10507000039488B2234620220699FFF735FE14E0F8
:105080000120049008F0010004EBD471491001FBE9
:105090000561CDE90009039488B20AF13001CAB272
:1050A00023460699FFF720FE00BF681CC5B2BD422B
:1050B000ACDB09B0BDE8F08F2DE9F04105460E46A6
:1050C00000BF00224FF480611548FCF751F800BF83
:1050D0004FF6FF70B6FBF0F7002416E0BC420CD18F
:1050E0004FF6FF70B6FBF0F100FB1168C4EB044112
:1050F0004819414600F040FA06E0C4EB0441481963
:105100004FF6FF7100F038FA641CBC42E6D900BFCC
:10511000012291020248FCF72BF800BFBDE8F081A4
:10512000000C004801B500BF002210210448FCF724
:105130001FF800BF01216846FFF7BEFF08BD000051
:105140000004004801B500BF012210210448FCF70B
:105150000FF800BF01216846FFF7AEFF08BD000051
:105160000004004838B504460020009020128DF855
:105170000000E0B28DF8010000BF012210210448B8
:10518000FBF7F6FF00BF02216846FFF795FF38BD29
:105190000004004808B5FCF709F80820042302229F
:1051A00011460090552000F047FAAA20FFF7ECFACC
:1051B0004FF4612000F09EFA00200723022208210C
:1051C00000901120FFF736FBFBF7C4F8FBF72EFA2F
:1051D00000BF00224FF480615E48FBF7C9FF00BFAB
:1051E00000BF012208215C48FBF7C2FF00BF02207C
:1051F000FBF750FA00BF002202214FF09040FBF76E
:10520000B7FF00BF00BF012211464FF09040FBF7EF
:10521000AFFF00BF9CE00020FBF73CFA4F4A0021A3
:105220000846FDF72BFE4D4840784C49897840EA06
:10523000012000114FF4B47110FB01F040F6FF7132
:1052400090FBF1F000EE100AB8EEC00A444880ED81
:10525000000A0120FBF71EFA404A00210120FDF759
:105260000DFE3E4840783D49897840EA0120001112
:105270003C49088008460088C0F3C02000B30846B7
:10528000008840F6FF71884205D19FED370A374804
:1052900080ED000A25E033490988C1F58051494273
:1052A0004FF47A7201FB02F0C11700EB5151C912A1
:1052B00000EE101AB8EEC00A2C4981ED000A10E089
:1052C000284909884FF47A7201FB02F0C11700EBFC
:1052D0005151C91200EE101AB8EEC00A234981EDEF
:1052E000000A1F4890ED000ADFED210A30EEC00AE7
:1052F000204880ED000A1D4890ED000AFFEE000AEC
:1053000020EE200A1C4880ED000A1A4890ED000AA1
:10531000DFED1A0A20EE200ADFED190A80EE201ACE
:10532000184880ED001A144890ED000AF0EE000ACB
:1053300020EE200ADFED110A20EE200A124880ED4F
:10534000000AD0ED000A0F4890ED000AFBF7E4F9DF
:1053500061E7000000140048000800481800002021
:10536000000000201C0000200000000004000020BD
:105370000000B443080000200C000020DB0F49406F
:1053800000003443100000201400002010B500F08D
:10539000C5F800F0B9F800F025F900BF00224FF47D
:1053A00080710948FBF7E4FE00BFC72000F0D4F885
:1053B00000BF012211020448FBF7DAFE00BF00F033
:1053C000E9F800F0A1F810BD0004004810B504464B
:1053D000240300F0A3F800F097F800F003F900BFF1
:1053E00000224FF480710B48FBF7C2FE00BF202063
:1053F00000F0B2F8204600F06DF800BF0122110263
:105400000448FBF7B5FE00BF00F0C4F800F07CF8DC
:1054100010BD00000004004810B500F0E3F800BF24
:1054200000224FF480711148FBF7A2FE00BF9020CC
:1054300000F092F8002000F08FF8002000F08CF8C7
:10544000002000F089F8FF2000F086F80402FF2019
:1054500000F082F8044300BF012211020348FBF769
:1054600087FE00BF00F096F8204610BD00040048FB
:1054700070B5044600250026012C04D0022C04D06F
:10548000032C06D103E0052605E0352603E01526AA
:1054900001E0052600BF00BF00F0A4F800BF002215
:1054A0004FF480710A48FBF763FE00BF304600F0FE
:1054B00053F8FF2000F050F8054600BF012211020A
:1054C0000348FBF755FE00BF00F064F8284670BDA6
:1054D0000004004810B504460A4800884EF61871CA
:1054E000884202D1200E00F037F8C4F3074000F0E4
:1054F00033F8C4F3072000F02FF8E0B200F02CF8E6
:1055000010BD00004800002010B500BF0120FFF7CB
:10551000AFFF00F001000028F8D110BD10B500F079
:1055200061F800BF00224FF480710848FBF720FEAD
:1055300000BF062000F010F800BF0122110203484E
:10554000FBF716FE00BF00F025F810BD0004004870
:10555000014608687047000001B582B04FF47A70C8
:10556000012301AA02A900900248FCF7A6FE9DF8BB
:1055700004000EBD3430002070B504460D464FF0D7
:10558000FF332A4621460248FCF786FD70BD000025
:105590003430002000B587B0142102A8FAF772FE5B
:1055A00000BF00BF0D48C06C40F002000B49C8644A
:1055B0000846C06C00F00200019000BF00BF00BFB1
:1055C00010200290012003900220059001200490F9
:1055D00002A90348FBF7DEFC07B000BD0010024043
:1055E0000004004800B587B0142102A8FAF74AFE6B
:1055F00000BF00BF0E48C06C40F002000C49C864F8
:105600000846C06C00F00200019000BF00BF00BF60
:1056100010200290022003900120049002200590A7
:105620000520069002A90348FBF7B4FC07B000BDB3
:1056300000100240000400482DE9F04395B00446F4
:105640000D4617469846DDF870900026382107A8C9
:10565000FAF718FE142102A8FAF714FE00BF234837
:10566000806D40F08050214988650846806D00F0CB
:105670008050019000BF00BF0020FBF739FE0120E1
:1056800007900004089002200E9003210F911194BE
:105690001095CDF84880CDF84C90149707A8FCF7EA
:1056A00047FA06461EB1012015B0BDE8F0830F2071
:1056B000029003200390002004900590069004219E
:1056C00002A8FCF7ADF806460EB10120ECE7FBF7A7
:1056D00055FD41F20101884205D10548006840F4BA
:1056E0008070034908600020DEE7000000100240DF
:1056F0000020024010B504460A480B4908600846DD
:10570000446000218160C160016181610C214161BF
:105710000021C161FDF756FA012204490248FDF754
:10572000E9FA10BD00380140A40200203600002034
:1057300030B595B0054613AB12AA09A9284600F06A
:105740003FFA044614B1204615B030BD0020149035
:1057500026E0224909689DF8502001EBC20113ABF5
:1057600011AA486801A900F02BFA04460CB12046A2
:10577000EAE709A901A800F0AFFC60B99DF8440070
:105780009DF84810884201DD0220DDE79DF85000B9
:10579000124988750AE09DF85000401CC0B2149070
:1057A0000E48007D9DF850108842D2DC00BF0B48A7
:1057B000007D9DF85010884201D10420C4E714A94F
:1057C000284600F0DDFA04460CB12046BCE79DF8FF
:1057D0005000024948750020B6E70000E8000020AC
:1057E0002DE9F0419AB09C48847D007DA04202DC06
:1057F0001AB0BDE8F0819849096801EBC40106AB15
:1058000007AA486808A900F0DBF908A993A0FEF7E9
:105810004FFD002644E09048008B0121B140084034
:10582000D8B122218FA0FEF743FD304600F042FBA5
:1058300089492431471839468BA0FEF739FD2221CA
:1058400088A0FEF735FD304600F034FB8249243154
:10585000084410A941F8260018E0304600F02AFB61
:105860007D492431085810A941F826007A48C07DA6
:1058700030B910A850F826107CA0FEF719FD05E0FD
:1058800010A850F826107AA0FEF712FD9DF81C0013
:10589000401EB04202D078A0FEF70AFD701CC6B2CE
:1058A0009DF81C008642B6DB74A0FEF701FD01F0F6
:1058B00007F86948407D0B280DD2DFE800F0060D9F
:1058C000151E27323F4E5F7287006349096851F801
:1058D00034008047054690E05F4A126852F8341061
:1058E00010988847054688E05B4B1B6853F83420C6
:1058F000DDE91001904705467FE0574F3F6857F8B4
:10590000343010A807C89847054676E0DFF848C14C
:10591000DCF800C05CF8347010A80FC8B847054622
:105920006BE01498DFF830C10090DCF800C05CF840
:10593000347010A80FC8B84705465EE0DDE91401D1
:10594000DFF814C1CDE90001DCF800C05CF8347068
:1059500010A80FC8B84705464FE0DDE914121698A5
:10596000DFF8F4C0CDE900120290DCF800C05CF86A
:10597000347010A80FC8B84705463EE0DDE914238F
:10598000DDE91610DFF8D0C0CDE90023CDE9021023
:10599000DCF800C05CF8347010A80FC8B8470546A2
:1059A0002BE0DDE91523DDE91710CDE90123CDE971
:1059B00003101498DFF8A0C00090DCF800C05CF879
:1059C000347010A80FC8B847054616E0DDE9162365
:1059D000DDE91810CDE90223CDE90410DDE9140159
:1059E000DFF874C0CDE90001DCF800C05CF8347069
:1059F00010A80FC8B847054600BF00BF00F00EFF53
:105A00009DF8180001280CD11348C07D20B9294603
:105A10001BA0FEF74DFC07E029461BA0FEF748FC43
:105A200002E018A0FEF744FC0B4890F8EC0088B1A7
:105A30000948D0F8F0000A21B0FBF1F201FB12078F
:105A40000548D0F8F000B0FBF1F83A46414611A005
:105A5000FEF72EFC00BFCBE6E80000200D0A257300
:105A6000280000002563000025730000256C6400F9
:105A700030582558000000002C00000029000000CC
:105A80003D256C753B0D0A003D305825583B0D0AED
:105A90000000000046756E6374696F6E2052756E6B
:105AA0002054696D653A25642E2531646D730D0AA5
:105AB00000000000F0B50346154600200022002635
:105AC00000245BE01F782C2F01D104B901221F783C
:105AD000292F01D01F780FB904B950E0002E3AD118
